:020000040800F2
:100000009856002059010008C5250008D31B000898
:10001000C1250008FD040008F1510008000000009F
:10002000000000000000000000000000793500081A
:10003000C10E000800000000552C0008C53A000859
:1000400073010008730100087301000873010008C0
:1000500073010008730100081911000873010008FA
:1000600073010008730100087301000873010008A0
:100070007301000873010008730100087301000890
:100080007301000873010008730100087301000880
:100090007301000873010008730100087301000870
:1000A0007301000873010008730100087301000860
:1000B00073010008194B0008730100087301000860
:1000C0007301000873010008730100087301000840
:1000D00073010008F54D0008730100087301000862
:1000E0007301000873010008730100087301000820
:1000F0007301000873010008730100087301000810
:1001000073010008730100087301000873010008FF
:1001100073010008730100087301000873010008EF
:1001200073010008730100087301000873010008DF
:1001300073010008730100087301000873010008CF
:10014000DFF810D000F01AF80048004759570008AF
:10015000AFF30080985600200648804706480047C5
:10016000FEE7FEE7FEE7FEE7FEE7FEE7FEE7FEE767
:10017000FEE7FEE7E13A000841010008064C074DA2
:1001800006E0E06840F0010394E807009847103467
:10019000AC42F6D3FFF7D8FF08230308282303084F
:1001A00070B58C1810F8015B15F0070301D110F839
:1001B000013B2A1106D110F8012B03E010F8016B66
:1001C00001F8016B5B1EF9D12B0705D40023521EE9
:1001D0000DD401F8013BFAE710F8013BCB1A921C51
:1001E00003E013F8015B01F8015B521EF9D5A1424F
:1001F000D8D3002070BD000070B50E4805780E48B9
:10020000057003200C4948700020887003210A48BB
:1002100000F076F904460849CC70201208710520D8
:1002200081F83200084690F83220002004F07EFF6A
:1002300070BD000002100020161000202DE9F05FB4
:100240002C4807782C4890ED010AF2EE040A20EEC3
:10025000200ABCEEC00A10EE100A84B22046E11754
:1002600004EB1161C1F30728E11704EB11610912D6
:10027000A4EB012101F0FF091F4890ED000AF2EE06
:10028000040A20EE200ABCEEC00A10EE100A85B265
:100290002846E91705EB1161C1F3072AE91705EBB9
:1002A00011610912A5EB012101F0FF0B1348077042
:1002B00003201249487004208870084680F80380A3
:1002C00080F8049080F805A080F806B0072100F0BF
:1002D00017F906460949CE7130120872092081F8D3
:1002E0003200084690F83220002004F01FFFBDE8DD
:1002F000F09F000002100020AC110020161000201A
:1003000010B5044890F8332000F13401002004F0C7
:100310000DFF10BD161000202DE9F0418046B8F108
:10032000000F05D14FF6FF7542F2041637460DE077
:10033000B8F1010F05D142F204154FF6FF762F46B2
:1003400004E042F204152E464FF6FF774FF49B73FC
:10035000E0223C21084604F083FA002404E0284609
:1003600004F008FB601CC4B2552CF8DBE0231A46ED
:1003700094213C2004F074FA002404E0284604F0A0
:10038000F9FA601CC4B2582CF8DB4FF49B73E022DE
:100390009421084604F064FA002404E0284604F09E
:1003A000E9FA601CC4B2552CF8DB4FF49B731A4673
:1003B00094213C2004F054FA002404E0284604F080
:1003C000D9FA601CC4B2582CF8DBCC2375223C212E
:1003D000084604F045FA002404E0304604F0CAFA66
:1003E000601CC4B2572CF8DB75231A4694213C20BC
:1003F00004F036FA002404E0304604F0BBFA601C36
:10040000C4B2582CF8DBCC2375229421084604F0A2
:1004100027FA002404E0304604F0ACFA601CC4B2B1
:10042000572CF8DBCC231A4694213C2004F018FA10
:10043000002404E0304604F09DFA601CC4B2582C3D
:10044000F8DB61230A223C21084604F009FA002463
:1004500004E0384604F08EFA601CC4B2572CF8DB76
:100460000A231A4694213C2004F0FAF9002404E0FF
:10047000384604F07FFA601CC4B2582CF8DB6123C4
:100480000A229421084604F0EBF9002404E03846DF
:1004900004F070FA601CC4B2572CF8DB61231A46D2
:1004A00094213C2004F0DCF9002404E0384604F0F8
:1004B00061FA601CC4B2582CF8DBBDE8F0817047CB
:1004C00010B502F099FC04F06FFA01F0C1FFFFF7DC
:1004D000F6FF01F0DBFD04F01AFF02F0F9FF02F075
:1004E000D1FD04F081FC04F0D9FA02F06CF800F0C0
:1004F000EBFD01F04DFD02F045F810BD00BFFEE739
:1005000070B502460C46FF25FF2309E012F8010BE7
:1005100080EA03010648405C80EA05030548455C23
:10052000201EA4F10106B4B2F0D143EA052070BD4B
:10053000EE200308EE21030810B501460F4BD878D2
:100540001A7941B1431CDBB218460D4CA45CA3429E
:100550000ADB002008E0031EA0F10104E0B203D191
:10056000074B9B5C5B1ED8B2044BD8700A23034C2C
:10057000E3710123034C637010BD00009C11002047
:10058000E92003089011002070B505460D48047954
:10059000601CC0B20446052800DB002401200A4983
:1005A0000870084804710A200649C8710749085DA7
:1005B00003F074F80120064988700020054988700E
:1005C00070BD00009C11002027010020E4200308DA
:1005D00090110020310100202DE9F14F86B0B14883
:1005E0000079B14911F80090A9F10400052878D2EA
:1005F000DFE800F0035678A0C9000925AB48007871
:1006000006460290642096FBF0F0C0B28DF806001A
:10061000642096FBF0F100FB1160C0B20646039027
:100620000A2096FBF0F0C0B28DF805000A2096FB78
:10063000F0F100FB1160C0B2064604908DF8046032
:100640009848C078022802DD02209649C870954873
:10065000C078022804D102250398C830029013E024
:100660009DF8060002280FDB8E48C078012804D1CF
:1006700004250498F030029006E09DF80500042857
:1006800002DB0725F72002904FF0000B0298F728B5
:1006900001DD681EC5B28348C07801A947188FE004
:1006A000092582484478A04644460A2098FBF0F188
:1006B00000FB1140C0B28DF804000A2098FBF0F056
:1006C000C0B28DF805007748C078012802DD01200E
:1006D0007449C8704FF0000B7248C07801A94718E0
:1006E0006EE06CE0092571488478A04644460A20F3
:1006F00098FBF0F100FB1140C0B28DF804000A2015
:1007000098FBF0F0C0B28DF805006648C07801286B
:1007100002DD01206349C8706248C078012800D119
:1007200001254FF0000B5F48C07801A9471804F07D
:1007300039FE45E009255D48C47805940A20059CEA
:1007400094FBF0F100FB1140C0B28DF804000A20C8
:10075000059C94FBF0F0C0B28DF805005148C078BC
:10076000012802DD01204F49C8704E48C078012899
:1007700000D101254FF0000B4A48C07801A9471865
:1007800004F010FE1CE00125484804790594007926
:100790008DF804004348C078012802DD012041495A
:1007A000C8704048C078012800D101254FF0000BE7
:1007B0003C48C07801A9471804F0F4FD00E000BFF0
:1007C00000BF97F800A0069820B10AF1010000F0E0
:1007D000FF0A03E0AAF1010000F0FF0AAA4505DDC7
:1007E000069810B14FF0000A00E0AA4687F800A072
:1007F000B9F1040F13D19DF80600642110FB01F03C
:100800009DF8051001EB810100EB41009DF80410FB
:100810000844C6B2F72E00DDF72624480670B9F169
:10082000050F12D12148407800EE100AB8EE400AB8
:100830001F4880ED000A9DF804009DF8051001EBAB
:10084000810100EB410019494870B9F1060F09D147
:100850009DF804009DF8051001EB810100EB4100BB
:1008600012498870B9F1070F09D19DF804009DF86D
:10087000051001EB810100EB41000C49C870B9F192
:10088000080F03D19DF804000849087100200549AC
:1008900088700A20C87101200649487007B0BDE879
:1008A000F08F00009C110020E42003080C100020B1
:1008B0003C010020901100202DE9F041FE48006825
:1008C000401CFD49086001F087F9FC4800780528C4
:1008D0007ED2DFE800F003FE4FDFFD00F64800683F
:1008E000F749884209D8002004F09AFE012004F05C
:1008F00059FF012004F046FF3BE0EF480068F14952
:10090000884209D8002004F08BFE002004F04AFF42
:10091000002004F037FF2CE0E7480068EA498842ED
:1009200009D8012004F07CFE002004F03BFF0020E9
:1009300004F028FF1DE0E548D0ED010AE4484078C6
:1009400000EE100AB8EE400AF4EEC00AF1EE10FA1A
:1009500006DD0120DF4908700220D849087005E053
:100960000120DC4908700320D44908700020D249D6
:10097000086022E2012004F053FE002004F012FF80
:10098000002004F0FFFED348007801280CD1CF48A6
:1009900090ED010ABDEEC00ACF4880ED000A0020AC
:1009A000CC490870CD490860C84890ED010ABDEEF9
:1009B000C00A10EE100AC849096888420DDA002002
:1009C000C6490860C14890ED010ABDEEC00A00E0CA
:1009D000E9E1C14880ED000A04E0C0480068401C1D
:1009E000BE490860B94890ED010ABDEEC00A10EE9C
:1009F000100AB9490968C91C88420CDD0220B849AF
:100A000008700020B54908600120AC49087000203A
:100A1000A9490860D1E1AD48D0ED010AAC48407861
:100A200000EE100AB8EE400AF4EEC00AF1EE10FA39
:100A30000BD20120A74908700020A84908609E49F0
:100A4000086003209D490870B7E1A4480068A549E3
:100A500088421ED30020A14908609C4890ED010AFD
:100A6000BDEEC00A10EE100A9B490968C91C8842F5
:100A700006DC04209149087001209649087005E0C1
:100A800002209749087001208C49087000208A498B
:100A9000086092E18F48007801280ED18B4890EDD4
:100AA000010ABDEEC00A8C4880ED000A0020894989
:100AB00008708D49087080490860844890ED010AEB
:100AC000BDEEC00A10EE100A83490968884201E0B1
:100AD0006CE0DFE007DA7D4890ED010ABDEEC00A68
:100AE0007D4880ED000A794890ED010ABDEEC00A0C
:100AF00010EE100A78490968091D884209DD0320B3
:100B00007749087001206D49087000206A49086023
:100B100053E17548007860BB012004F081FD00209E
:100B200004F040FE002004F02DFE634800686F4989
:100B300088423AD36548D0ED010A6548407800EE16
:100B4000100AB8EE400AF4EEC00AF1EE10FA06D22E
:100B500001206549087000205749086025E0012000
:100B60005C4908700420554908700020524908600B
:100B70001BE0002004F054FD002004F013FE0020D0
:100B800004F000FE5148D0ED010A5148407800EED3
:100B9000100AB8EE400AF4EEC00AF1EE10FA04DBD7
:100BA0000020514908704449086006E1494800782E
:100BB00001280AD1454890ED010ABDEEC00A464819
:100BC00080ED000A002043490870404890ED010A7A
:100BD000BDEEC00A10EE100A3F490968884208DAE3
:100BE0003A4890ED010ABDEEC00A3B4880ED000A8C
:100BF00019E0364890ED010ABDEEC00A10EE100A69
:100C0000354909680C3188420DDD042034490870EB
:100C100029480068364908600120284908700020EA
:100C200025490860C9E0244800683249884209D251
:100C3000002004F0F5FC012004F0B4FD012004F0D4
:100C4000A1FD26E01C4800682B49884209D20020FB
:100C500004F0E6FC012004F0A5FD002004F092FD64
:100C600017E0154800682549884209D2002004F0A1
:100C7000D7FC002004F096FD002004F083FD08E07E
:100C800001201449087002200C49087000200A490C
:100C9000086092E000261A4F11480078022803D01D
:100CA0000F480078032831D1012004F0B9FC00205E
:100CB00004F078FD002025E060010020860100207E
:100CC00040771B00C0C62D0040164000AC1100202C
:100CD00002100020700100206C010020740100202F
:100CE00078010020A068060071010020E093040054
:100CF0007C0100204024140020B81800205E27004A
:100D0000804F120004F03EFD3C4628E02C4D2D485B
:100D10000068A84201D22C4E09E02A490968481B04
:100D20002949884201D20E1A00E0002600BFF419BA
:100D300026480068B04209D2002004F071FC00206F
:100D400004F030FD002004F01DFD08E0012004F057
:100D500067FC002004F026FD002004F013FD1B4872
:100D60000068A0421ED31A48D0ED010A1948407805
:100D7000401E00EE100AB8EEC00AF4EEC00AF1EE12
:100D800010FA06DD0120144908700220134908708A
:100D900005E0012010490870032010490870002068
:100DA0000A49086009E002200C49087001200A493C
:100DB000087000200549086000BF00BFBDE8F08151
:100DC000A00E15007C010020C02709006001002052
:100DD000AC110020021000207001002086010020CC
:100DE000002019E01649095C164A125C914203DDA5
:100DF0001549095C124A11541149095C124A125CE6
:100E0000914203DA1049095C0D4A11540C49095CFE
:100E10000E4A1154411CC8B20528E3DB0849497940
:100E200001F00F01072905DD0549497901F0F001BD
:100E3000034A517102494979044A517170470000CF
:100E400002100020EE220308F32203080C100020F9
:100E500070B5002413E04FF6FF7000EA44260A49FB
:100E6000701800F0DFFA054642F22830854203DBB5
:100E70004FF6FF70854200D103E0601C84B20A2C5B
:100E8000E9DB00BF304670BD00F8030810B5094823
:100E90000078012803D00848C07A012800D110BD8D
:100EA000064890F83300062800DAF8E700F022F848
:100EB00000BFF4E7270100204E110020161000208B
:100EC000704700B5034603E04FF47A7000F005F870
:100ED000181EA3F10103F7D100BD07E0002101E0D6
:100EE0004A1C91B21529FBDB421E90B20028F5DCAA
:100EF0007047000070B54B4804784B4890F83300B9
:100F0000801E81B248483430FFF7FAFA0646464858
:100F100090F83300801E444934310D5C424890F80B
:100F20003300401E085C05EB002085B23E4890F877
:100F3000340050BB3C4890F83500062825D13A488B
:100F400090F83300082820D1374890F8370010B9BE
:100F500002F08AF865E0344890F83700012860D143
:100F60003248007A02285CD00120304908722E48AD
:100F700090F839002E49087001202C4988722D49BB
:100F80000871042002F08AFB4BE0274890F83400F7
:100F9000A04246D1F4B3244890F83500032802D08B
:100FA00006283ED112E0204890F8380030B91E489B
:100FB00090F83900012801D1FFF71EF91A4890F87E
:100FC00039000E2801D1FFF739F900BF164890F813
:100FD0003700C12825D1FFF793F9134890F839104D
:100FE00090F8380001EB002000EE100AB8EEC00ABD
:100FF000F2EE040A80EE201ABCEEC10A10EE100ACE
:101000000B4948700846407863280ADA0846407859
:10101000044900E005E0487002F0B0FA052002F053
:101020003DFB70BD0210002016100020F60F0020BE
:101030000C1000203101002070B506460D48808953
:1010400000F23F1083B20B488289EF21002003F0A9
:1010500007FC00240AE0002504E0304603F08AFC87
:10106000681C85B2F02DF8DB601C84B2B4F5A07F5B
:10107000F1DB70BD7A4E002010B500200849C8721F
:1010800008490870C870487088700549C8710872AE
:101090000449087102F002FB01F020FA10BD0000C3
:1010A0004E1100202701002008B506208DF8000011
:1010B00000208DF801008DF8020001208DF803005A
:1010C000684601F08DFA08BD0EB50120ADF80800A4
:1010D00002208DF80A0028208DF80B0002A90D4887
:1010E00000F01EFA0121084601F076FE00210846B4
:1010F00000F0F6F90120009000208DF80400102087
:101100008DF8050001208DF80600684600F02EF8E5
:101110000EBD00000008014010B5012000F012F8DB
:1011200030B1012000F008F804F08AFA0149087093
:1011300010BD000026010020014908607047000032
:1011400014040140014600200022074B1B6803EAFB
:101150000102054B14331B680B4013B10AB1012087
:1011600000E00020704700000004014000212349F6
:101170008279002A3AD00A46126803689A430B46DD
:101180001A600A1D126803689A430B1D1A600279DF
:1011900011440A6803681A430A60184A0832126840
:1011A00003689A43154B08331A601A1D12680368C6
:1011B0009A43124B0C331A604279102A0ED11A1F2F
:1011C000126803681A430D4B08331A601A1D12681F
:1011D00003681A43094B0C331A600DE00749427942
:1011E00011440A6803681A430A6005E00279114451
:1011F0000A6803689A430A607047000000040140CF
:1012000010B501200D498870C87000200871FFF7E3
:1012100033FF00200A4988720A48C07900B910BD1E
:10122000002405E00848005D08490855601CC4B268
:10123000052CF7DB02F0A2F900BFF0E73101002036
:10124000F60F00209C1100200C100020021000203E
:1012500030B504460425B4F1046F24D3681F00F0B0
:1012600004F90546042D1CD12448006840F0020012
:1012700022499039C1F890000846C0F89440D0F84F
:10128000900040F040001D490860681F00F0EDF834
:1012900005461A489038D0F8900020F0020017490F
:1012A0000860284630BD164800684FF0006101EB29
:1012B0008020401EA0421FD3480000F0C3F805461E
:1012C000042D19D10D489038006940F002000B49F7
:1012D0009039086108464461006940F040000861A7
:1012E000C80300F0AFF8054604489038006920F0C4
:1012F00002000249903908612846D3E79020024055
:10130000E0F7FF1F04200B49C96801F0010109B192
:1013100001200EE00749C96801F0040109B102206B
:1013200007E00449C96801F0100109B1032000E099
:10133000042070470020024004200B49096801F096
:10134000010109B101200EE00749096801F004011B
:1013500009B1022007E00449096801F0100109B150
:10136000032000E0042070478C20024003480069FD
:1013700040F08000014908617047000000200240F1
:1013800070B504460D460426B4F1046F1ED34FF425
:10139000704000F06AF80646042E15D11F48006818
:1013A00040F001001D49086025804FF4704000F0B6
:1013B0005CF8064619489038D0F8900020F00100FB
:1013C00016499039C1F89000304670BD1448006845
:1013D0004FF0006101EB8020401EA0421CD34FF46F
:1013E000704000F02FF80646042E15D10B489038B7
:1013F000006940F0010009499039086125804FF4E7
:10140000704000F01FF8064604489038006920F04C
:1014100001000249903908613046D6E79020024029
:10142000E0F7FF1F014608887047000002480349A3
:101430004860034848607047230167450020024028
:10144000AB89EFCD00B502460423FFF75BFF0346EF
:1014500003E0FFF757FF0346521E012B01D1002A7C
:10146000F7D102B90523184600BD00B50246042392
:10147000FFF762FF034603E0FFF75EFF0346521EDD
:10148000012B01D1002AF7D102B90523184600BD6E
:1014900030B50346A12921DBA12B0DDBA92B0BDCE9
:1014A000A1F1A100A3F1A104C4EB041505EB4414C0
:1014B00000EB4400504330BDB02B0FDBF72B0DDCAD
:1014C000A1F1A100A3F1B004C4EB041505EB441491
:1014D00000EB440000F24E305043ECE70020EAE716
:1014E00030B500228B071C0F0F2303FA04F20B4BBD
:1014F0008C1053F824309343084C8D1044F8253059
:1015000023468C1053F824308C07240F00FA04F47F
:101510002343024C8D1044F8253030BD08000140B3
:101520002DE9F0410246002500260020002300247A
:10153000002791F803C00CF00F0591F803C00CF0E0
:10154000100CBCF1000F03D091F802C04CEA050565
:1015500091F800C0BCF1000F31D0146800202BE0DE
:101560004FF0010C0CFA00F3B1F800C00CEA0306CE
:101570009E4220D183004FF00F0C0CFA03F7BC43BE
:1015800005FA03FC4CEA040491F803C0BCF1280FEF
:1015900006D14FF0010C0CFA00FCC2F814C00AE0AE
:1015A00091F803C0BCF1480F05D14FF0010C0CFAC3
:1015B00000FCC2F810C0401C0828D1D31460B1F858
:1015C00000C0BCF1FF0F34DD546800202EE000F1B4
:1015D000080C4FF0010808FA0CF3B1F800C00CEA4F
:1015E00003069E4221D183004FF00F0C0CFA03F743
:1015F000BC4305FA03FC4CEA040491F803C0BCF1B7
:10160000280F05D100F1080C08FA0CF8C2F8148074
:1016100091F803C0BCF1480F07D100F1080C4FF05E
:10162000010808FA0CF8C2F81080401C0828CED334
:101630005460BDE8F0810000F0B50346B3F1004FFF
:1016400071D90025002223F00044E50904F07F044D
:10165000220904F00F04970004FA07F6062D15D2AC
:10166000DFE805F00305080B0E11F8480FE0F74816
:10167000001D0CE0F548083009E0F4480C3006E0A5
:10168000F248103003E0F148143000E000BF00BF22
:1016900022B9076827F00F0707603DE0012A12D141
:1016A000012D0BD1042C04D9076827F0C00707606F
:1016B00032E0076827F0300707602DE0076827F061
:1016C000F007076028E0022A04D1076827F4706752
:1016D000076021E0032A04D1076827F470470760F8
:1016E0001AE0042A04D1076827F47027076013E082
:1016F000052A04D1076827F4700707600CE0062A62
:1017000004D1076827F07067076005E0072A03D156
:10171000076827F070470760012902D1076837433F
:1017200007603EE2FFE7B3F5802F6FD037DCB3F5FB
:10173000007F6CD015DC102B6AD008DC012B68D040
:10174000022B7BD0042B7AD0082B72D17CE0302B7B
:1017500070D0402B6FD0C02B6ED0B3F5807FF4D10A
:10176000E4E0B3F5804F68D00CDCB3F5407F7CD06B
:10177000B3F5006F7AD0B3F5406F78D0B3F5805FE2
:10178000E3D162E0B3F5C04F72D0B3F5004F57D04C
:10179000B3F5803F55D0B3F5003FD6D152E0B3F159
:1017A000005F76D01DDCB3F5000F73D00CDCB3F511
:1017B000002F4BD0B3F5801F49D0B3F5001F6AD07E
:1017C000B3F5800FC1D18FE1B3F1807F74D0B3F155
:1017D000007F72D0B3F1806F70D0B3F1805FB4D16D
:1017E00066E19B4A981A934269D014DCB3F1804FAA
:1017F00076D0A3F180402038002872D0B0F5787FF1
:1018000070D0944A104400289FD18BE11BE09DE0EA
:1018100042E02EE012E0B0F5802F74D0B0F5402FFA
:1018200072D0B0F5A01F70D0B0F5E01F8DD17BE174
:1018300005E0B4E144E056E068E0C7E000BF00BF67
:1018400000BF00BF00BF00BF00BF00BF00BF7F4898
:101850002038406898437D4A203A5060012903D1DE
:1018600010464068184350609AE17FE08EE09DE0AA
:10187000BCE0764820384068774A1040734A203AE6
:101880005060012904D11046406840F001005060CA
:1018900086E1FFE01AE135E16C482038406820F02D
:1018A00030006A4A203A5060012904D1104640684D
:1018B00040F01000506073E1A8E0B7E0CEE032E104
:1018C00062482038406820F03000604A203A50607A
:1018D000012904D11046406840F0300050605FE1BB
:1018E000CAE01DE11DE159482038406820F0C000E1
:1018F000564A203A5060012904D11046406840F011
:10190000400050604CE120E12DE13AE14F482038A1
:10191000406820F0C0004D4A203A5060012904D1AF
:101920001046406840F0C000506039E14748203818
:10193000406820F44070454A203A5060012904D1A3
:101940001046406840F48070506029E13F482038DC
:10195000406820F440703D4A203A5060012904D18B
:101960001046406840F40070506019E13748203854
:10197000406820F44070354A203A5060012904D173
:101980001046406840F44070506009E12F4820380C
:10199000406820F440602D4A203A5060012904D16B
:1019A0001046406840F400605060F9E02748203855
:1019B000406820F44060254A203A5060012904D153
:1019C0001046406840F440605060E9E01F4820380D
:1019D000406820F4C0401D4A203A5060012904D1DB
:1019E0001046406840F480405060D9E017482038E5
:1019F000406820F4C040154A203A5060012904D1C3
:101A00001046406840F4C0405060C9E00F4820389C
:101A1000406820F0E0600D4A203A5060012904D16E
:101A20001046406840F080705060B9E007482038A8
:101A3000406820F0E060054A203A5060012904D156
:101A40001046406840F000705060A9E0200001405E
:101A5000000004402000FEFFFEFFFF7F5148406869
:101A600020F0E0604F4A5060012904D110464068E0
:101A700040F08060506093E04A48406820F0804029
:101A8000484A5060012904D11046406840F0804027
:101A9000506085E04348406820F00050414A506063
:101AA000012904D11046406840F00050506077E0B2
:101AB0003C48406820F080503A4A5060012904D1E7
:101AC0001046406840F08050506069E035484068FA
:101AD00020F40000334A5060012904D110464068C8
:101AE00040F4000050605BE02E48406820F4800025
:101AF0002C4A5060012904D11046406840F480000F
:101B000050604DE02748406820F40010254A50609E
:101B1000012904D11046406840F4001050603FE0B5
:101B200000BF00BF00BF00BF1E48C069C3F315025D
:101B300090431C4AD061012906D11046C069C3F305
:101B400015021043174AD0612AE01648C06920F4F4
:101B5000C010144AD061012904D11046C06940F474
:101B60000020D0611CE00F48C06920F4C0100D4A6D
:101B7000D061012904D11046C06940F48010D061C1
:101B80000EE00848C06920F4C010064AD06101295F
:101B900004D11046C06940F4C010D06100E000BF1D
:101BA00000BFF0BD000001400246002093680B40DA
:101BB0000BB1012000E000207047416170470161D6
:101BC00070474FF6FF710180022181700421C170BE
:101BD000704700BFFEE70000034890ED010A03488C
:101BE00080ED000A70470000AC1100200C000020BE
:101BF0002DE9F04104460E4617464FF0000800203C
:101C000020704FF480712748FFF7D9FF80251FE02F
:101C10004FF400712348FFF7D2FF0120FFF75DF971
:101C20003846FFF75AF90320FFF757F94FF4807150
:101C30001C48FFF7B9FF10B12078284320704FF4FB
:101C400000711848FFF7B9FF0120FFF746F96D1042
:101C5000002DDDDC2EB94FF480711248FFF7ADFF87
:101C600004E04FF480710F48FFF7A9FF0120FFF750
:101C700034F94FF400710B48FFF7A1FF0520FFF77F
:101C80002CF94FF400710748FFF797FF4FF480716C
:101C90000448FFF794FF1420FFF71FF94046BDE802
:101CA000F0810000000C014010B54FF480710F4826
:101CB000FFF785FF0120FFF710F94FF400710B4883
:101CC000FFF77DFF0120FFF708F94FF48071074807
:101CD000FFF773FF0A20FFF700F94FF40071034884
:101CE000FFF76BFF0A20FFF7F8F810BD000C01406A
:101CF00010B54FF400710F48FFF75FFF0120FFF7A9
:101D0000ECF84FF480710B48FFF757FF0120FFF705
:101D1000E4F84FF400710748FFF751FF0A20FFF77E
:101D2000DCF84FF480710348FFF749FF0A20FFF702
:101D3000D4F810BD000C014070B505460026802483
:101D400021E004EA050028B94FF480711E48FFF72E
:101D500034FF04E04FF480711B48FFF730FF01208F
:101D6000FFF7BBF84FF400711748FFF728FF052075
:101D7000FFF7B3F84FF400711348FFF71EFF01207F
:101D8000FFF7ABF86410002CDBDC4FF480710E48D9
:101D9000FFF715FF4FF400710B48FFF710FF01200C
:101DA000FFF79BF84FF480710748FFF7FDFE00B185
:101DB00001264FF400710448FFF7FFFE1420FFF7DF
:101DC0008CF8304670BD0000000C01402DE9F04158
:101DD00004460E4617464FF00008002020700221EE
:101DE0002248FFF7ECFE80251CE004211F48FFF786
:101DF000E6FE0120FFF771F83846FFF76EF8032082
:101E0000FFF76BF802211948FFF7CEFE10B12078DA
:101E10002843207004211548FFF7CFFE0120FFF76B
:101E20005CF86D10002DE0DC26B902210F48FFF7A9
:101E3000C4FE03E002210D48FFF7C1FE0120FFF7B9
:101E40004CF804210948FFF7BAFE0520FFF745F8D2
:101E500004210648FFF7B1FE02210448FFF7AFFE58
:101E60001420FFF73AF84046BDE8F0810008014031
:101E700010B502210D48FFF7A2FE0120FFF72DF853
:101E800004210A48FFF79BFE0120FFF726F80221F4
:101E90000648FFF792FE0A20FFF71FF804210348C7
:101EA000FFF78BFE0A20FFF718F810BD000801406D
:101EB00070B50546002680241DE004EA050020B91F
:101EC00002211B48FFF779FE03E002211848FFF7C3
:101ED00076FE0120FFF701F804211548FFF76FFE99
:101EE0000520FEF7FAFF04211148FFF766FE0120E6
:101EF000FEF7F3FF6410002CDFDC02210C48FFF733
:101F00005EFE04210A48FFF75AFE0120FEF7E5FFB6
:101F100002210748FFF748FE00B1012604210448CA
:101F2000FFF74BFE1420FEF7D8FF304670BD0000CF
:101F30000008014030B502460B46FF20002113E0A7
:101F4000555C684008240BE000F0800525B1312580
:101F500085EA4005E8B201E04506280E651EECB2B0
:101F6000002CF1DC4D1CE9B29942E9DB30BD2DE9D2
:101F7000F04105460E46144631462846FFF7DAFF83
:101F80000746A74202D00220BDE8F0810020FBE70F
:101F900008B50620ADF8000001208DF802001420DD
:101FA0008DF8030069460248FFF7BAFA08BD000041
:101FB000000801402DE9FC4105460E4617463A4609
:101FC000002101A8FFF702FF044634B900221146A0
:101FD0000DF10500FFF7FAFE04462CB90022314648
:101FE0006846FFF7F3FE044634B99DF8002002214D
:101FF00001A8FFF7BCFF04469DF805009DF80410FA
:1020000040EA012028802046BDE8FC810149087093
:10201000704700008301002010B5FFF729FF054934
:102020000978012202EB4101C8B2FFF741FF0446E3
:10203000204610BD8301002010B50446202C10D08E
:1020400006DC012C19D0042C1AD0102C1BD104E072
:10205000402C0ED0802C16D107E00120FEF794FA18
:1020600012E00020FEF7B8FA0EE00120FEF7B4FA05
:102070000AE00120FEF760FA06E0FFF7C1F803E08E
:1020800000F072FE00BF00BF00BF10BD704700002F
:1020900010B504460848007A012808D1074800789E
:1020A0000749087001F06AFA0220034908722046C5
:1020B000FFF7C2FF10BD0000F60F00200C1000203B
:1020C0000210002070B53C48407A012800D170BD54
:1020D0003A48007900B9FAE700203849087101F060
:1020E000A7FA04462046E11704EB1161C1F3072566
:1020F000E6B23148407A022837D03048807901284A
:1021000033D12E48407CA8422DD125BB2B484078A6
:1021100001281AD12948007C18B92848007C0128D8
:1021200013D02648007C102807D1012024490871CB
:102130002249087CFFF7ACFF07E02148007901281D
:1021400003D11E49087CFFF7A3FF00201B494870FC
:102150000846057407E01948407820B9012017495E
:10216000487008460574154845741348407A03289A
:102170001BD012484079012817D11048C07BB042CB
:1021800011D11EB900200D4908700CE00B480078F1
:1021900048B90B480079012805D13046FFF778FF90
:1021A0000120064908700548C6730020034948719C
:1021B000887100BF8BE70000F60F00204E11002051
:1021C0003101002000B54B48037A052B00DB0523C5
:1021D0004948408949F22631884205D0464840891D
:1021E00047F2937188423DD1C3EBC300434901EBF1
:1021F00040021078424908705078487050884880F2
:1022000090888880D088C88010890881508948814A
:1022100090898881032002F0A9FB3949488802F09F
:10222000A9FB4FF4047002F0A1FB3549888802F045
:10223000A1FB40F2112002F099FB3149C88802F05D
:1022400099FB40F2122002F091FB2D49088902F01F
:1022500091FB40F2132002F089FB2949488902F0E2
:1022600089FB46E0C3EBC300264901EB400210782E
:10227000234908705078487050884880908888803A
:10228000D088C880108908815089488190898881C8
:10229000362002F06BFB1A49488802F06BFB2A20BB
:1022A00002F064FB16498988081202F063FB1449A6
:1022B000087902F05FFB1249C988081202F05AFB44
:1022C0000F49887902F056FB2B2002F04FFB0C4996
:1022D0000989081202F04EFB0949087A02F04AFB0C
:1022E00007494989081202F045FB0549887A02F03E
:1022F00041FB00BD02100020901100209C580008F6
:102300007A4E0020F058000810B549484078C0B90E
:102310004848C07928B948480078012801D1FEF71B
:102320006FFF4448407860B14248808948B9002036
:10233000404948704148407840490870012001F008
:10234000ADF93B48407800B910BD002201213C485E
:1023500002F0EAFC022036494870084600794871CC
:1023600001221146364802F0DFFC3148007920B1E5
:102370004FF400513348FFF720FC334804682C48E1
:1023800040790A281BD2DFE800F01A081A1A0B0E4F
:102390001114170500F09CFB14E000F0E1F911E0C6
:1023A00000F060F90EE001F0CBFA0BE001F066FA04
:1023B00008E001F025FB05E001F022FA02E000F060
:1023C000CFF900BF00BF20480068001B18490881F2
:1023D00008464078022812D1002048708870C870E2
:1023E0001A484078062802DB002018494870104837
:1023F000018916484278083020F8121016E0134878
:10240000407818B906201149487006E00F48407816
:10241000062802DB01200D494870054802890B4857
:102420004078401E0949083121F8102000BF8BE791
:10243000901100209C110020270100201E01002087
:1024400000040040000C0140884E00206411002070
:1024500008B58020ADF8000002208DF802001020A1
:102460008DF8030069461A48FFF75AF82020ADF8A6
:10247000000069461748FFF753F81020ADF8000038
:1024800069461448FFF74CF82020ADF80000694673
:102490001148FFF745F80820ADF8000069460C48E0
:1024A000FFF73EF880210A48FFF787FB2021094803
:1024B000FFF783FB10210748FFF77FFB2021064829
:1024C000FFF77DFB08210248FFF777FB08BD0000FE
:1024D00000080140001001400018014010B5002024
:1024E0000249087003F0C0F810BD00001E01002072
:1024F00010B500F073FD0948007858B9002405E0D4
:102500000748005D05490855601CC4B2052CF7DB7F
:1025100001F034F8FEF764FC10BD0000021000204A
:10252000F322030838B50446102C00DD00241048BF
:10253000807801281AD10F48007868B90C480470D7
:1025400000780D4901EBC0050C4800680090D5E902
:10255000001201F065FB09E006480478102C00DD4C
:102560000024074931F81400FEF766FD38BD00006D
:102570009011002010000020C0590008005B0008E6
:102580001400002008B57020ADF8000001208DF87F
:10259000020010208DF8030069460848FEF7C0FFCE
:1025A00040210648FFF70BFB20210448FFF707FBFB
:1025B00010210248FFF703FB08BD0000000801409E
:1025C00000BFFEE7704710B54FF4A06000F040F880
:1025D00002F090FAFEF768FD02F04EFC10BD00001C
:1025E00070B5002100230F22C47804B3154C246871
:1025F00004F4E064C4F5E064210AC1F10403CA40B4
:10260000447804FA03F184781440214309010E4C04
:102610000678A155047804F01F050124AC40057824
:102620006D11AD0005F1E025C5F8004109E0047821
:1026300004F01F050124AC40044D0678761145F8DE
:10264000264070BD0CED00E000E400E080E100E019
:1026500002490143024A1160704700000000FA0578
:102660000CED00E03EB538480478002002900025CB
:102670000A2094FBF0F100FB11403030C0B28DF81D
:102680000800642094FBF0F100FB11400A2190FB4C
:10269000F1F03030C0B28DF80900642094FBF0F006
:1026A0003030C0B28DF80A002748007908B90225F9
:1026B00000E00A2525480078A84204D0E8B2FFF7D8
:1026C00031FF22490D702249C878FDF725FE2148C7
:1026D0002149097830F8110020491F4A127831F851
:1026E0001210CDE900109DF808200523F3214820A1
:1026F00001F066FE17481849097830F811001749AB
:10270000154A127831F81210CDE900109DF8092011
:1027100005238921482001F053FE0E480E4909780F
:1027200030F811000D490C4A127831F81210CDE939
:1027300000109DF80A2005231E21482001F040FECC
:102740000220024948703EBD0C10002031010020DB
:102750009C110020140000201000002034000020F4
:1027600070B52DED028B86B00020059004900024FA
:102770009FED770AB0EE408A002500260390754849
:1027800090ED000AB0EE408AB2EE040A28EE000A8C
:10279000BCEEC00A10EE104A6F4890ED000AF2EE4F
:1027A000040A20EE200ABCEEC00A10EE105ABCEE5D
:1027B000C80A10EE100A86B2684840780A2190FBD9
:1027C000F1F03030C0B28DF80C006448407890FBD6
:1027D000F1F201FB12003030C0B28DF80D0000F0B4
:1027E000C9F804A9204602F0E0FA05A9284602F03B
:1027F000DCFA9DF8100030282CD159485949097845
:1028000030F811005849574A127831F81210CDE9C2
:1028100000109DF81120052384215C2001F0D0FDDB
:1028200084235C22AC21104601F070FA4C484D49DB
:10283000097830F811004C494A4A127831F81210E0
:10284000CDE900109DF813200523B6215C2001F08E
:10285000B7FD29E09DF8100030B34148414909789F
:1028600030F8110040493F4A127831F81210052221
:102870000223CDE90021029004AA5C21084601F060
:10288000B3FF37483749097830F811003649354ADF
:10289000127831F81210CDE900109DF813200523AD
:1028A000B6215C2001F08CFD4FF6FF700323062259
:1028B00068210090A82002F055FE2948294909788E
:1028C00030F811002849274A127831F812100022F6
:1028D0000423CDE90021029005AA0A21B42001F0C9
:1028E00083FF1F481F49097830F811004FF44071E9
:1028F000CDE900109DF80C2003230E21762001F075
:102900005FFD17481749097830F811004FF44071FE
:10291000CDE900109DF80D2003231E21762001F043
:102920004FFD1248C089012803D01148C078012802
:1029300009D10F48C178304602F070FD00200B49E4
:10294000C8810B49C87006B0BDEC028B70BD000099
:10295000000000000C000020AC110020021000203C
:10296000140000201000002034000020884E0020B9
:102970003101002038B500244C484078401C00EE5E
:10298000100AB8EEC00A4A48D0ED000AB4EEE00AD8
:10299000F1EE10FA03DB01204649087011E04348CC
:1029A0004078401C00EE100AB8EEC00A4048D0ED56
:1029B000000AB4EEE00AF1EE10FA02D200203D491E
:1029C00008703D480078A8B13A48007890B93B4873
:1029D000007908B9002400E00824E0B2FFF7A2FD66
:1029E0000121002002F01AFD002033490870022066
:1029F000487024E030480078012820D02D48007825
:102A000001281CD12E48807A012806D120212D488A
:102A1000FFF7D5F800202A4988722848007908B9BC
:102A2000012400E00924E0B2FFF77CFD0121002031
:102A300002F0F4FC012020490870022048701D4873
:102A40004078012817D11C484078012813D01B4832
:102A5000007908B9052400E00D241B4800EBC403ED
:102A60001A4840680090D3E9001201F0D9F801201B
:102A70001149487018E00F484078A8B90E484078CE
:102A800090B10E48007908B9042400E00C240E48E7
:102A900000EBC4030D4840680090D3E9001201F038
:102AA000BFF800200449487038BD00000210002023
:102AB0000C0000201C010020310100200C1000201F
:102AC000AC11002000100140C0590008005B000854
:102AD0002DE9FE414A480088FEF7AEFA494890F8D1
:102AE00000800120474908704748408947F29371A8
:102AF000884228D14548007820B191245A25C4261F
:102B00001E2703E07824AA2555266E273C48008816
:102B10004FF6FF7101220623CDE9002102903CA26D
:102B20002946204601F060FE354800884DF6DB61FD
:102B300000221E23CDE90021029039A239463046F9
:102B400001F052FE56E03048408949F22631884271
:102B500028D12E48007820B191245A25C4261E275A
:102B600003E07824AA2555266E27254800884FF6CD
:102B7000FF7101220623CDE90021029024A22946FB
:102B8000204601F031FE1E4800884DF6DB61002230
:102B90001E23CDE90021029021A23946304601F0E2
:102BA00023FE27E01948007820B1EB245A25C826D7
:102BB0001E2703E0782450255526642710480088F6
:102BC0004FF6FF7101220A23CDE90021029019A2DC
:102BD0002946204601F008FE094800884DF6DB61D1
:102BE00000221E23CDE90021029016A2394630466C
:102BF00001F0FAFD034880F80080BDE8FE81000086
:102C00001200002010000020901100207A4E0020B9
:102C100048535F436162696E657420202020200064
:102C200056312E303020202020323032332D3035B6
:102C30002D303800534D445F44484320202020204D
:102C40000000000056322E36322D32363038313800
:102C5000000000007047F0B5074627B94FF6FF7532
:102C600042F2041603E042F204154FF6FF7640F2FA
:102C70002B13B4222C21084601F0F2FD002404E0BD
:102C8000284601F077FE601CC4B2782CF8DBB42330
:102C90001A46A4212D2001F0E3FD002404E028467B
:102CA00001F068FE601CC4B2762CF8DB40F22B13F6
:102CB000B422A421084601F0D3FD002404E02846F4
:102CC00001F058FE601CC4B2782CF8DB40F22B13E4
:102CD0001A46A4212D2001F0C3FD002404E028465B
:102CE00001F048FE601CC4B2762CF8DB8B23142262
:102CF0002C21084601F0B4FD002404E0304601F028
:102D000039FE601CC4B2782CF8DB14231A46A421C7
:102D10002D2001F0A5FD002404E0304601F02AFE3C
:102D2000601CC4B2762CF8DB8B231422A421084645
:102D300001F096FD002404E0304601F01BFE601C0B
:102D4000C4B2782CF8DB8B231A46A4212D2001F085
:102D500087FD002404E0304601F00CFE601CC4B284
:102D6000762CF8DBF0BD000010B501200749887013
:102D7000C87000200871FEF77FF9002004498872AE
:102D80000448C07900B910BD00BFFCE73101002044
:102D9000F60F00209C11002029B1064A5269024317
:102DA000044B5A6104E0034A52698243014B5A6161
:102DB000704700000010024029B1064AD269024360
:102DC000044BDA6104E0034AD2698243014BDA61C1
:102DD000704700000010024029B1064A9269024380
:102DE000044B9A6104E0034A92698243014B9A6161
:102DF000704700000010024010B54FF4803000F022
:102E0000B5F801210802FFF7C7FF01210448FFF7C9
:102E1000D3FF012144F67D00FFF7DEFF10BD000067
:102E200003000018F0B50022002100240023484DC3
:102E30006D6805F00C0222B1042A05D0082A3ED1A3
:102E400005E0444D05603DE0424D05603AE0404DEF
:102E50006D6805F480343E4D6D683F4E05EA06010D
:102E600001F0C04535B901F47015B5F5701F01D0FA
:102E7000022500E0012501F0C046C1F3834747EA7F
:102E80005666A9191CB9354D4D4305600BE0304D10
:102E90006D6805F400351DB1304D4D43056002E00D
:102EA0002C4D4D4305602A4D6D6805F000452DB948
:102EB0002B4E0568B54201D93546056002E0254D27
:102EC000056000BF00BF224D6D68C5F30212204DA2
:102ED0006D6805F0800515B1224DAD5C00E0002560
:102EE0002B460568DD404560194D6D68C5F301222C
:102EF000174D6D6805F4806515B11A4DAD5C00E0A5
:102F000000252B464568DD408560114D6D68C5F391
:102F1000C1220F4D6D6805F4005515B1114DAD5C22
:102F200000E000252B464568DD40C560084D6D6812
:102F3000C5F38132064D6D6805F080550DB142F044
:102F40000402094DAB5CC568B5FBF3F50561F0BD46
:102F50000010024000127A0000003C6000093D00B1
:102F600000A24A04F8220308002303081149096853
:102F700021F480310F4A11601146096821F4802143
:102F80001160B0F5803F03D0B0F5802F0ED106E080
:102F90000849096841F48031064A116007E0054993
:102FA000096841F4A021034A116000E000BF00BF9E
:102FB0007047000000100240012806D10649496D03
:102FC00041F03001044A516505E00349496D21F0A3
:102FD0003001014A51657047001002402DE9F04769
:102FE00000250026A846FEF721FAFDF731FF8146AD
:102FF000484602F0E1FAFEF7B9F9002411E0184959
:10300000A01C31F81000454004F1220031F81000F6
:10301000464004F1420031F8100080EA0808601CC4
:1030200084B2062CEBDB002415E025B90C49A01C6A
:1030300031F810700BE02EB9094904F1220031F883
:10304000107004E0064904F1420031F8107005499F
:103050000F55601C84B2062CE7DBBDE8F08700004A
:10306000984E00200210002010B5FEF705F802F07F
:10307000A9FB00200249087000F080FA10BD000092
:103080000210002008B54FF44070ADF80000012098
:103090008DF8020014208DF8030069460148FEF700
:1030A0003FFA08BD000C014038B50446204600F048
:1030B00041F9684600F004FA05460121002000F0BD
:1030C0003FF938BD10B54420FFF7EEFF10BD30B515
:1030D00002460B46FF20002113E0555C684008249F
:1030E0000BE000F0800525B1312585EA4005E8B206
:1030F00001E04506280E651EECB2002CF1DC4D1CEB
:10310000E9B29942E9DB30BD00EE900AF8EE600AC0
:103110009FED1A1A60EE810A9FED191AC0EE811A0E
:10312000B0EE610A174989780A290BDB15498978BD
:103130000A3900EE901AF8EEE00A70EE800AB0EE5E
:10314000600A19E00F49897800EE901AF8EE600ADB
:10315000F4EEC00AF1EE10FA04DBDFED0B0AB0EE7C
:10316000600A09E00749897800EE901AF8EE600AD3
:1031700070EE600AB0EE600A704700000000C842BE
:1031800000FF7F470C1000200000000000EE900AB6
:10319000F8EE600A9FED1C1A60EE810ADFED1B1A43
:1031A00080EEA11ADFED1A0A71EE600AB0EE600A35
:1031B0001849C9780A290BDB1649C9780A3900EE83
:1031C000901AF8EEE00A70EE800AB0EE600A19E09C
:1031D0001049C97800EE901AF8EE600AF4EEC00AC1
:1031E000F1EE10FA04DBDFED0C0AB0EE600A09E044
:1031F0000849C97800EE901AF8EE600A70EE600A8D
:10320000B0EE600A7047000000002F4300FF7F47C8
:10321000000034420C100020000000002DE9F041B5
:1032200005460E46144631462846FFF750FF07462E
:10323000A74202D00220BDE8F0810020FBE72DE983
:10324000FC4105460E4617463A46002101A8FEF706
:10325000CFFC044634B9002211460DF10500FEF7FB
:10326000C7FC04462CB9002231466846FEF7C0FC74
:10327000044634B99DF80020022101A8FFF7CEFFD3
:1032800004469DF805009DF8041040EA01202880BE
:103290002046BDE8FC8100007CB5044600F0F6F84D
:1032A000054625B94FF4604000F0FEF8054615B913
:1032B00000F0DCF805462DB90022114601A8FFF701
:1032C000BEFF05462DB9002201216846FFF7B7FF72
:1032D00005460DBBBDF80400FFF758FF84ED000A5A
:1032E000BDF80000FFF710FF84ED010AA0898028D7
:1032F00001DB0020A081BDF80410A28904F10E00BA
:1033000020F81210BDF80010A28904F5877020F88B
:103310001210A089401CA081FEF7EAFC0448807AC4
:10332000012802D0012000F0B9F928467CBD000038
:10333000F60F00200149087070470000800100204E
:1033400070B506460D4600F0A1F80446002C72D177
:10335000002E57D0012E2BD0022E7FD1052D22D248
:10336000DFE805F003090F151B0042F22F0000F003
:103370009BF804431AE042F22D1000F095F8044344
:1033800014E042F22B2000F08FF804430EE042F2EA
:10339000293000F089F8044308E042F22A7000F076
:1033A00083F8044302E044F0800400BF00BF58E00B
:1033B000052D22D2DFE805F003090F151B0042F2AC
:1033C000240000F071F804431AE042F2261000F0E5
:1033D0006BF8044314E042F2202000F065F8044347
:1033E0000EE042F2223000F05FF8044308E042F2BF
:1033F000217000F059F8044302E044F0800400BF5B
:1034000000BF2EE0052D24D2DFE805F003090F17D9
:103410001D0042F2320000F047F804431CE042F283
:10342000301000F041F8044316E042F2362000F07C
:103430003BF8044310E015E010E042F2343000F0B5
:1034400033F8044308E042F2377000F02DF80443EB
:1034500002E044F0800400BF00BF02E044F08004BA
:1034600000BF00BFFEF744FC204670BD10B5FEF75C
:103470001BFC05490978012202EB4101C8B2FEF7A5
:103480005BFC0446204610BD8001002010B5FEF70D
:103490000BFC044909784906080EFEF74DFC04466A
:1034A000204610BD8001002070B504462012FEF7B2
:1034B00043FC0546E0B2FEF73FFC0543284670BDDD
:1034C00070B50546FFF7E2FF0446204670BD0000D8
:1034D00008B501210D20FFF77FFC6846FEF771FB60
:1034E0004FF4C850ADF8000002208DF802001820FB
:1034F0008DF8030069461948FEF712F8C220ADF8AE
:10350000000069461648FEF70BF801211548FEF742
:1035100093F801211448FEF78FF802201349086040
:1035200000BF1248001D006800F001000028F8D11B
:103530000F480E49091F08600E480C498839C1F828
:10354000840000BF09480830006800F080000028AF
:10355000F8D106491031086008BD0000000801409C
:10356000000C014000002040000400408820024080
:1035700023016745AB89EFCD704700002DE9F0418D
:103580000026FDF72DFC00240EE02648055D6E4068
:103590002549A01C21F81050203021F8105020306F
:1035A00021F81050601C84B2052CEEDB1E48C68149
:1035B000A0F84E60A0F88E60FDF74AFC074638463A
:1035C00001F0FAFF00241DE01749A01C31F810108B
:1035D000164A32F81000814211D1134904F1220039
:1035E00031F8101032F81000814208D10E4904F170
:1035F000420031F8101032F81000814200D003E090
:10360000601C84B2062CDFDB00BF062C07DA0748FB
:103610000088401C04490880384601F0E3FFBDE8FB
:10362000F08100000210002098500020984E0020E9
:103630001848C27B417C4079012805D100221648F8
:103640000078082800D101221248807901281DD174
:10365000002111480078102801D1102116E00E48F1
:103660000078022801D1202110E00B4800780128C1
:1036700001D180210AE008480078202801D14021AA
:1036800004E005480078042800D1042102EB012061
:1036900080B270474E11002026010020174949785A
:1036A000022903D10321154A517002E00121134A76
:1036B00051700121114A91700021114A517011700D
:1036C000D17091700F494A784978491C0D4B597057
:1036D000052A02DB00211A46517000F07F01074ADB
:1036E000117108494A78891C885407490A680549B4
:1036F0004B78143141F823207047000090110020CE
:10370000BC13002064110020884E002010B500F08A
:1037100001F810BD1CB500200190009035480068EC
:1037200040F480303349086000BF3248006800F43C
:10373000003000900198401C0190009818B9019841
:10374000B0F5405FF1D12B48006800F4003010B1B3
:103750000120009001E0002000900098012847D14E
:1037600024484068234948600846406820F4605077
:1037700048600846406840F4005048600846406889
:1037800020F4E06048600846406840F4806048608B
:10379000084640681849084016494860084640688D
:1037A00016490843134948600846006840F0807095
:1037B000086000BF0F48006800F000700028F9D0D2
:1037C0000120FFF7F9FB0B48406820F0030009498E
:1037D00048600846406840F00200486000BF054865
:1037E000406800F00C000828F9D10020FFF7E4FB46
:1037F0001CBD000000100240FFFFC01F000021A000
:103800003EB5184805790020029010240A2095FB47
:10381000F0F100FB11503030C0B202901248007835
:10382000A04204D0E0B2FEF77DFE0F490C700F49B4
:10383000C878FFF710FA0E480E49097830F81100E1
:103840000D490C4A127831F81210CDE900109DF89C
:1038500008200523DC21482000F0B2FD02200249A7
:1038600048703EBD0C100020310100209C1100204A
:103870001400002010000020340000203EB52A482B
:103880008578002002900A2D03DA2D208DF809009A
:1038900002E02B208DF809000A2095FBF0F100FBD7
:1038A00011503030C0B28DF8080000241E48007955
:1038B00008B9062400E00E241C480078A04204D079
:1038C000E0B2FEF72FFE19490C701949C878FFF7CE
:1038D000C2F918481849097830F811001749164AF2
:1038E000127831F81210CDE900109DF80820052358
:1038F000DC21482000F064FD0E480F49097830F8BB
:1039000011000E490C4A127831F81210CDE900105E
:103910009DF8092005233C21482000F051FD02209C
:10392000024948703EBD00000C100020310100200B
:103930009C11002014000020100000203400002002
:103940003EB529484578002002900A2095FBF0F00A
:103950003030C0B28DF809000A2095FBF0F100FB71
:1039600011503030C0B28DF8080000241E48007994
:1039700008B9032400E00B241C480078A04204D0BE
:10398000E0B2FEF7CFFD19490C701949C878FFF76E
:1039900062F918481849097830F811001749164A91
:1039A000127831F81210CDE900109DF80820052397
:1039B000DC21482000F004FD0E480F49097830F85A
:1039C00011000E490C4A127831F81210CDE900109E
:1039D0009DF8092005233C21482000F0F1FC02203D
:1039E000024948703EBD00000C100020310100204B
:1039F0009C11002014000020100000203400002042
:103A00003EB52A48C578002002900A2D03DA2D2001
:103A10008DF8090002E02B208DF809000A2095FBA3
:103A2000F0F100FB11503030C0B28DF808000024D6
:103A30001E48007908B9072400E00F241C480078CC
:103A4000A04204D0E0B2FEF76DFD19490C7019498F
:103A5000C878FFF700F918481849097830F81100BC
:103A60001749164A127831F81210CDE900109DF866
:103A700008200523DC21482000F0A2FC0E480F4955
:103A8000097830F811000E490C4A127831F81210FA
:103A9000CDE900109DF8092005233C21482000F0C5
:103AA0008FFC0220024948703EBD00000C1000202F
:103AB000310100209C110020140000201000002083
:103AC0003400002005480079012803D10020034973
:103AD000087102E001200149087170472C010020A3
:103AE00010B51A48006840F470001849086018487A
:103AF000006840F001001649086008464068154912
:103B000008401349486008460068134908401049B6
:103B100008600846006820F4802008600846406875
:103B20000E4908400A4948600846006B0C490840A5
:103B3000074908634FF41F008860FFF7E7FD4FF067
:103B4000006002498039086010BD000088ED00E087
:103B5000001002400C00FFE8FFFFF6FEFFFF001719
:103B600000FFFEFE10B5012027494872FEF7C0FC99
:103B700000F006FF0020254908800920FFF78EFD90
:103B8000FEF7C2FB46F2A810FDF79BF98021204802
:103B9000FEF715F84FF47A70FDF793F980211C4871
:103BA000FEF70BF820211B48FEF709F84FF47A7056
:103BB000FDF787F920211748FDF7FFFF1021154871
:103BC000FDF7FDFF4FF47A70FDF77BF910211148E6
:103BD000FDF7F3FF08210E48FDF7F1FF4FF47A706F
:103BE000FDF76FF908210A48FDF7E7FF00200649B5
:103BF000C8714872084908704FF47A700749888084
:103C0000FDF73AFA10BD0000F60F00201200002068
:103C10000008014000100140360D0020884E0020B1
:103C20002DE9F74F82B03848007818B3BDF80A0084
:103C300035498989084485B2BDF80A003249898925
:103C40000844BDF80E10084486B2BDF80870BDF8EF
:103C50000800BDF80C1008441FFA80F8BDF80CA04D
:103C6000701E83B2A8F1010081B22A46384600F0E6
:103C7000F7FD1BE0BDF80850BDF80800BDF80C10BA
:103C8000084486B2BDF80A70BDF80A00BDF80E10EF
:103C900008441FFA80F8BDF80CA0A8F1010083B217
:103CA000701E81B23A46284600F0DAFD049800F111
:103CB000036000904FF000091FE009FB0AF001903B
:103CC000002413E0204604EBD0714910A4EB41011D
:103CD00021B901982044009951F810B01FFA8BF0D7
:103CE00000F048FE4FEA1B4B601C84B2701BA042E0
:103CF000E8DC09F101001FFA80F9A8EB070048454C
:103D0000DBDC05B0BDE8F08F7A4E00202DE9F84FDE
:103D100005460E4690461F462A4800782A4901EB80
:103D2000C000406800F103600090B54201DAB84578
:103D300001DBBDE8F88F2548007840B1701E83B2E2
:103D4000781E81B22A46404600F08AFD07E0781EC0
:103D500083B2701E81B24246284600F081FDC14602
:103D60002CE000BFC9EB091005EB001B00241EE08E
:103D70001748007890B9204604EBD0714910A4EBA5
:103D8000410121B90BEB0400009951F810A01FFA72
:103D90008AF000F0EFFD4FEA1A4A06E00D490C4A9E
:103DA000127831F8120000F0E5FD601C84B2701B3F
:103DB000A042DDDC09F101001FFA80F9B945D0DB32
:103DC00000BFB6E790110020C05900087A4E0020CD
:103DD000100000201400002010B54FF48051FE4860
:103DE000FDF7EDFE0A20FDF76CF84FF48051FA481C
:103DF000FDF7E3FE6420FDF764F84FF48051F648C8
:103E0000FDF7DDFE4FF4FA70FDF75BF8F3484089EB
:103E100047F2937188427CD1012000F0A7FD4FF456
:103E2000807000F0A7FDFEF7CDF9902000F09EFD18
:103E30004FF4004000F09EFD4FF4806000F096FDCE
:103E40004FF4C44000F096FD40F2014000F08EFDBA
:103E5000002000F08FFD40F2044000F087FD0020BC
:103E600000F088FDFF2000F081FD012000F082FDC0
:103E70004FF4817000F07AFD4FF4D87000F07AFDB5
:103E80004FF4E26000F072FD102000F073FD40F28C
:103E9000127000F06BFD0F2000F06CFD40F25270CC
:103EA00000F064FD2F2000F065FD0220FDF709F809
:103EB0004FF4607000F05AFD40F2031000F05AFD1C
:103EC00040F2813000F052FD45F61B4000F052FDFB
:103ED00040F2823000F04AFD40F6013000F04AFD29
:103EE00040F2833000F042FD40F2156000F042FDE8
:103EF0004FF4617000F03AFD40F2111000F03AFD0D
:103F000040F2853000F032FD40F2031000F032FD47
:103F100000E045E040F2863000F028FD49F6174009
:103F200000F028FD40F2873000F020FD40F20760ED
:103F300000F020FD4FF4627000F018FD40F21460B4
:103F400000F018FD40F2893000F010FD40F2111031
:103F500000F010FD40F2027000F008FD572000F064
:103F600009FDFF2000F002FD002000F003FD072006
:103F700000F0FCFC4FF4807000F0FCFC0620FCF725
:103F8000A0FF4FF4007000F0F1FC002000F0F2FC04
:103F900040F2012000F0EAFC002000F0EBFC0DE212
:103FA0008E48408949F2263188427CD140F2027025
:103FB00000F0DCFC43F2080000F0DCFC40F205708D
:103FC00000F0D4FC362000F0D5FC40F20B7000F07D
:103FD000CDFC41F2132000F0CDFC012000F0C6FC26
:103FE0004FF4807000F0C6FC022000F0BFFC4FF4DC
:103FF000807000F0BFFCFEF7E5F8902000F0B6FC02
:104000004FF4004000F0B6FC082000F0AFFC40F296
:10401000022000F0AFFC092000F0A8FC002000F016
:10402000A9FC0C2000F0A2FC002000F0A3FC0F2053
:1040300000F09CFC002000F09DFC4FF4807000F02C
:1040400095FC002000F096FC4FF4817000F08EFC8F
:10405000002000F08FFC40F2031000F087FC0020ED
:1040600000F088FC1420FCF72CFF4FF4807000F067
:104070007DFC41F2901000F07DFC40F2011000F058
:1040800075FC40F2272000F075FC0520FCF719FFB5
:104090004FF4817000F06AFC9F2000F06BFC05205B
:1040A000FCF70FFF00E0C9E040F2031000F05EFCF7
:1040B0004FF4345000F05EFC40F2812000F056FCDA
:1040C0000E2000F057FC0520FCF7FBFE4FF40070BB
:1040D00000F04CFC002000F04DFC40F2012000F00C
:1040E00045FC002000F046FC4FF4407000F03EFC20
:1040F000002000F03FFC40F2013000F037FC40F2BD
:10410000077000F037FC40F2023000F02FFC40F264
:10411000066000F02FFC40F2053000F027FC002084
:1041200000F028FC40F2063000F020FC4FF4506014
:1041300000F020FC40F2073000F018FC40F206705E
:1041400000F018FC4FF4427000F010FC052000F065
:1041500011FC40F2093000F009FC072000F00AFCD5
:104160004FF4437000F002FC002000F003FC40F22A
:104170000D3000F0FBFB0A2000F0FCFB4FF48060E8
:1041800000F0F4FB4FF4445000F0F4FB40F2014027
:1041900000F0ECFB012000F0EDFB40F2044000F0E9
:1041A000E5FB002000F0E6FB4FF4A06000F0DEFB32
:1041B000002000F0DFFB40F2015000F0D7FB0020B0
:1041C00000F0D8FB40F2025000F0D0FB002000F0DD
:1041D000D1FB40F2035003E0000C0140901100209D
:1041E00000F0C4FB002000F0C5FB40F2045000F0DA
:1041F000BDFB002000F0BEFB40F2055000F0B6FB16
:10420000002000F0B7FB102000F0B0FB102000F001
:10421000B1FB112000F0AAFB4FF4C06000F0AAFB34
:10422000202000F0A3FB022000F0A4FB072000F0F8
:104230009DFB40F2731000F09DFBBFE0112000F0E9
:1042400095FB7820FCF73DFE362000F08FFBC02068
:1042500000F090FB3A2000F089FB552000F08AFB2B
:10426000B22000F083FB0C2000F084FB0C2000F057
:1042700081FB002000F07EFB332000F07BFB33202D
:1042800000F078FBB72000F071FB462000F072FBD5
:10429000BB2000F06BFB1B2000F06CFBC02000F08B
:1042A00065FB2C2000F066FBC22000F05FFB0120C4
:1042B00000F060FBC32000F059FB0F2000F05AFB18
:1042C000C42000F053FB202000F054FBC62000F077
:1042D0004DFB0F2000F04EFBD02000F047FBA42048
:1042E00000F048FBA12000F045FBD62000F03EFB8B
:1042F000A12000F03FFBE02000F038FBF02000F0B0
:1043000039FB002000F036FB062000F033FB0420D0
:1043100000F030FB052000F02DFB052000F02AFB0B
:10432000312000F027FB442000F024FB482000F05F
:1043300021FB362000F01EFB122000F01BFB122098
:1043400000F018FB2B2000F015FB342000F012FBCE
:10435000E12000F00BFBF02000F00CFB0B2000F044
:1043600009FB0F2000F006FB0F2000F003FB0D20DF
:1043700000F000FB262000F0FDFA312000F0FAFAF0
:10438000432000F0F7FA472000F0F4FA382000F05C
:10439000F1FA142000F0EEFA142000F0EBFA2C20D1
:1043A00000F0E8FA322000F0E5FA212000F0DEFA11
:1043B000292000F0DBFA2C2000F0D8FA10BD000014
:1043C0002DE9FF4F89B0894614469B460020029094
:1043D00084480078844901EBC000406800F1036024
:1043E0000090824800EBCB00407806907F4800EBBD
:1043F000CB0040680490202C00DA2024A4F1200097
:10440000C4B2BBF1080F37D2DFE80BF0050C131A6A
:104410000421282F00BF764810F8345000EBC40068
:10442000466830E0734810F8345000EBC40046682A
:1044300029E0714810F8345000EBC400466822E0CF
:104440006E4810F8345000EBC40046681BE06C481E
:1044500010F8345000EBC400466814E0694810F8C6
:10446000345000EBC40046680DE0674810F8345043
:1044700000EBC400466806E05D4810F8345000EBDD
:10448000C400466800BF00BF0698C11700EB517119
:10449000C1F3CF0805FB08F080B20790049806FB33
:1044A00008000490002712E097FBF5F005FB107060
:1044B00000FB088197FBF5F0401C081A80B20390BE
:1044C0000498C15D514A03981154781C87B207982B
:1044D0008742E9DB06990998084480B2059009EB08
:1044E00005001FFA80FA4A480078E0B14848808900
:1044F00000F5A0700599884205DC4548808900F5E3
:10450000A07080B20590BAF1F00F01DB4FF0F00A15
:104510000598401E83B2AAF1010081B24846099A6B
:1045200000F09EF913E00598F02801DBF0200590DB
:10453000BAF5A07F01DB4FF4A07AAAF1010083B2A3
:104540000598401E81B24A46099800F089F900207A
:1045500008903EE0089800FB08F080B203900898AD
:104560004844C0EB0011099800EB011600272AE02F
:10457000039838442549085C0290002007901DE00C
:1045800007990298084100F0010018B1169800F050
:10459000F1F90EE01F48007818B1179800F0EAF919
:1045A00007E0009850F816100191019988B200F0C8
:1045B000E1F9761C0798401C80B2079007980828FC
:1045C000DEDB781C87B24745D2DB0898401C80B2FE
:1045D0000890AAEB090108988142BBDC28460DB07F
:1045E000BDE8F08F90110020C0590008A4500108C8
:1045F00074070108542C0108C4340108AC4D0108AB
:1046000034D0000848F80008B8590008A00100207C
:104610007A4E0020100000202DE9FF4F87B00E4693
:104620006B4800786B4901EBC000406800F1036003
:10463000009069490A9831F830900A9801EBC0005F
:10464000408804900A9801EBC000406803900498E9
:10465000C11700EB51714FEAE10A09FB0AF085B27C
:10466000099A517810782A46FCF712FF03990844FA
:104670000390039800F10360039000241FE0E1170A
:1046800004EB91718910A4EB810111B903980059D1
:10469000019094FBF9F009FB104000FB0AA194FB88
:1046A000F9F0401C081A80B206900198C1B24B4A3A
:1046B000069811540198000A0190601C84B2AC4223
:1046C000DDDB0499079808441FFA80FB06EB09001C
:1046D00087B243480078C0B14148808900F5A07096
:1046E000584505DC3E48808900F5A0701FFA80FB24
:1046F000F02F00DBF027ABF1010083B2781E81B20E
:104700003046079A00F0ACF812E0BBF1F00F01DB85
:104710004FF0F00BB7F5A07F01DB4FF4A077781EC8
:1047200083B2ABF1010081B23246079800F098F8ED
:104730004FF0000845E008FB0AF080B2069006EB57
:104740000800C0EB0011079800EB01100290002454
:1047500031E0069820442149085C0590002526E0B8
:104760000598284100F0010018B1149800F002F9F2
:1047700015E01C48007818B1159800F0FBF80EE021
:104780000099029851F81000019005F0010010B155
:104790000198000C0190019988B200F0EBF805F047
:1047A000010010B10298401C0290681C85B2082DCF
:1047B000D6DB601C84B25445CBDB08F101001FFA44
:1047C00080F8B81B4045B6DC48460BB0BDE8F08F1A
:1047D00090110020C0590008245B0008A0010020AF
:1047E0007A4E0020100000202DE9FE4F06460F46AD
:1047F00014469846DDE90D9A3D4602964FF0000BAF
:1048000027E0207800B926E0207880280DDACDE96D
:10481000009A227829460C9B0298FFF7D1FD284484
:1048200085B2B5F5A07F0FDB15E0CDE9009A2246F1
:1048300029460C9B0298FFF7EFFE284485B2B5F598
:10484000A07F00DB07E0641C641C0BF101001FFA71
:1048500080FBC345D5DB00BF2846BDE8FE8F0000C6
:1048600030B505460C463F48408949F2263188421A
:1048700005D03C48408947F2937188422ED14FF4CD
:10488000047000F073F8284600F074F840F211202C
:1048900000F06CF8204600F06DF840F2122000F0B5
:1048A00065F8104600F066F840F2132000F05EF85C
:1048B000184600F05FF84FF4007000F057F8002041
:1048C00000F058F840F2012000F050F8002000F00D
:1048D00051F840F2022000F049F842E02248007806
:1048E000F0B12A2000F042F8101200F043F8D0B2E4
:1048F00000F040F8181200F03DF8D8B200F03AF895
:104900002B2000F033F8281200F034F8E8B200F061
:1049100031F8201200F02EF8E0B200F02BF81DE084
:104920002A2000F023F8281200F024F8E8B200F062
:1049300021F8201200F01EF8E0B200F01BF82B2046
:1049400000F014F8101200F015F8D0B200F012F8D0
:10495000181200F00FF8D8B200F00CF82C2000F07C
:1049600005F830BD901100207A4E00204FF0C04174
:10497000088070470149088070470000000002600D
:1049800010B53220FCF79DFAFFF726FA0020FCF75D
:1049900053FBA020FCF795FA4FF400510148FDF7B6
:1049A0000CF910BD000C014008B54FF40050ADF8F3
:1049B000000010208DF8030002208DF802006946E7
:1049C0003348FCF7ADFD4FF68070ADF800001820BD
:1049D0008DF8030002208DF8020069462D48FCF78F
:1049E0009FFD4CF20370ADF8000018208DF8030015
:1049F00002208DF8020069462748FCF791FD4FF42C
:104A00008050ADF8000010208DF8030002208DF8D2
:104A1000020069461E48FCF783FD4FF40060ADF8C4
:104A2000000018208DF8030002208DF8020069466E
:104A30001948FCF775FD8020ADF8000018208DF8AE
:104A4000030002208DF8020069461348FCF768FD58
:104A50002020ADF8000018208DF8030002208DF80A
:104A6000020069460C48FCF75BFD1020ADF8000021
:104A700018208DF8030002208DF8020069460648D0
:104A8000FCF74EFD4FF400510148FDF798F808BDC2
:104A9000000C014000180140001401401FB51248ED
:104AA00000681249B0FBF1F0401E84B2684600F085
:104AB00073F94FF47A700290ADF800400020ADF821
:104AC0000C00019069460A4800F038F901210848B5
:104AD00000F00AF901221146054800F025F90121EC
:104AE000034800F004F91FBD8C01002040420F0074
:104AF0000004004008B51D208DF8000001208DF84D
:104B0000010000208DF8020001208DF803006846A6
:104B1000FDF766FD08BD000010B50121654800F0F5
:104B2000F2F800287ED00121624800F0DDF86248EA
:104B30000068401C6049086008468068401C886026
:104B400008468068B0F57A7F0DD35C4880780128EC
:104B500002D15B48FEF7A0FB002057498860084659
:104B60008089401C8881544880893C2804DB0020CF
:104B7000514988810120C881524890F83300A8B17A
:104B8000504890F8341190F83401401E4D4A82F894
:104B9000340159B90120114681F83501FCF776F945
:104BA0000020484981F8350181F833004648407BB0
:104BB000A8B14548407B401E43494873434840786C
:104BC000022816D00846407B052190FBF1F201FB3C
:104BD000120070B901203C490871487109E03B4856
:104BE0004078022805D01F203749487301200871FA
:104BF0008871FDF767FA3648C08820B13448C0880C
:104C0000401E3349C8803348408920B1314840892B
:104C1000401E304948813048C08830B12E48C08895
:104C2000401E00E045E02C49C88023498888411E89
:104C3000214A918018BB4FF47A7011468880202158
:104C40002648FCF7BAFF80212548FCF7B6FF08216B
:104C50002348FCF7B2FF10212048FCF7AEFF1D48A7
:104C6000C07920B11B48C079401E1A49C871194843
:104C7000808920B117488089401E164988811048D4
:104C8000D0ED010A17484078C01C00EE100AB8EEBB
:104C9000C00AF4EEC00AF1EE10FA04DB10210F484E
:104CA000FCF78DFF03E010210C48FCF786FFFBF7B3
:104CB00003FE10BD00040040884E0020310100209A
:104CC000AC110020161000204E1100209011002081
:104CD0001E0100209C110020BC1300200010014088
:104CE0000008014002100020CA430282704721B12F
:104CF000028842F00102028004E002884FF6FE734F
:104D00001A400280704730B502460020002300247C
:104D1000158A05EA0103958905EA010413B10CB16E
:104D2000012000E0002030BD1AB183890B4383814C
:104D300002E083898B438381704700000022028850
:104D4000104B98420ED0B0F1804F0BD00E4B9842D2
:104D500008D00E4B984205D00D4B984202D00D4B17
:104D6000984205D14FF68F731A408B8813439AB23D
:104D700002808B68C3620B8803858B7B03860123CB
:104D800083827047002C0140003401400004004041
:104D900000080040000C00404FF6FF7181600021C8
:104DA000018081814160817370474FF47A72B0FB5A
:104DB000F2F302FB13026423B2FBF3F230320A7007
:104DC0006422B0FBF2F302FB13020A23B2FBF3F2FC
:104DD00030324A700A22B0FBF2F302FB1302303287
:104DE000CA702E228A70704710B500F0FBF800F0F0
:104DF00069F810BD10B540F225511D4800F0A3F828
:104E000018B31B4800F08CF9C4B240F22551184881
:104E100000F042F8174890F83300FF281CDC1548D2
:104E200090F83501012817D0124890F8331090F807
:104E30003300401C0F4A82F8330002F1340044541E
:104E40000420114681F8340106E00A48B0F8360122
:104E5000401C0849A1F8360140F22771044800F0CF
:104E600072F820B140F22771014800F015F810BD2A
:104E7000003801401610002008B525208DF80000EC
:104E800000208DF801008DF8020001208DF803004C
:104E90006846FDF7A5FB08BD01F40072B2F5007F7E
:104EA00000D100BFCA430280704721B1828942F419
:104EB0000052828104E082894DF6FF731A4082819C
:104EC000704700001FB501210420FDF785FF012177
:104ED0008803FDF781FF684600F07EF94FF4164025
:104EE00000904FF48050ADF804000020ADF80600AB
:104EF000ADF80800ADF80C000C20ADF80A006946CA
:104F0000094800F0A1F8012240F22551064800F0BE
:104F100044F8002240F22771034800F03EF80121D6
:104F20000148FFF7C2FF1FBD0038014002460020C4
:104F3000B1F5007F00D100BF13880B400BB10120F9
:104F400000E00020704770B50246002400230025D1
:104F5000002040F66A16B14200D100BFC1F34215ED
:104F600001F01F03012606FA03F3012D02D19689F1
:104F7000334006E0022D02D1168A334001E0968AC2
:104F800033400C12012606FA04F41688344013B19B
:104F90000CB1012000E0002070BDF0B503460024F4
:104FA00000260025002040F66A17B94200D100BF54
:104FB0001846C1F3421401F01F06012707FA06F54F
:104FC000012C01D10C3004E0022C01D1103000E0A2
:104FD00014301AB107682F43076002E00768AF4337
:104FE0000760F0BD08B54FF40070ADF80000022076
:104FF0008DF8020010208DF8030069461048FCF778
:105000008FFA4FF40070ADF8000002208DF8020016
:1050100018208DF8030069460A48FCF781FA4FF41E
:105020008060ADF8000004208DF803006946054853
:10503000FCF776FA4FF400710148FCF7BEFD08BD9D
:1050400000100140000801402DE9F04786B00546F8
:105050000E460024A24600BFA1460027B08900B139
:1050600000BF2F462C8A4CF6FF700440F0880443A2
:105070002C82AC894EF6F3100440B0883189084385
:10508000718908430443AC81AC8A4FF6FF40044069
:10509000B0890443AC8201A8FDF7C4FE1F488742D3
:1050A00002D1DDF810A001E0DDF80CA0A88900F421
:1050B000004040B10AEBCA0000EB0A103168490019
:1050C000B0FBF1F807E00AEBCA0000EB0A10316808
:1050D0008900B0FBF1F86420B8FBF0F0040120096E
:1050E000642101FB1089A88900F4004040B13220FE
:1050F00000EBC900B0FBF1F000F00700044308E04A
:10510000322000EB09106421B0FBF1F000F00F0039
:1051100004432C8106B0BDE8F08700000038014050
:1051200001468888C0F30800704700002DE9F0416F
:1051300005460E46174625B94FF400710A48FCF79C
:105140003EFD002405E0315D284600F00FF8601CAC
:10515000C4B2BC42F7DB25B94FF400710248FCF73A
:105160002CFDBDE8F08100000010014070B5044640
:105170000D465CB92946134800F02AF800BF4021CB
:105180001048FFF7D3FE0028F9D01AE0012C0BD10C
:1051900029460D4800F01CF800BF40210A48FFF7DF
:1051A000C5FE0028F9D00CE0022C0AD12946074898
:1051B00000F00EF800BF40210448FFF7B7FE0028BA
:1051C000F9D070BD00380140004400400048004064
:1051D000C1F30802828070474FF41651016000212C
:1051E0008180C18001810C21418100218181704732
:1051F00000BFFEE751B18200A2F1C042126842F046
:1052000001038200A2F1C042136009E08200A2F112
:10521000C0421268034B1A408300A3F1C0431A60D6
:1052200070470000FEFF0F00D0E901121143C26871
:105230001143026911434269114382691143C269F2
:105240001143026A1143426A1143826A1143C26ADE
:105250001143026B114302689200A2F1C042116037
:10526000816808290BD101688900A1F1C041096852
:1052700041F0400201688900A1F1C0410A60416B20
:105280000968426B526841EA0211426B926841EA36
:105290000221426B928941EA0241426B128A41EA41
:1052A0000251426B127D41EA0261426B92691143E5
:1052B0000268521C9200A2F1C0421160C16AB1F5AD
:1052C000804F1BD1816B0968826B526841EA0211E1
:1052D000826B926841EA0221826B128A41EA025192
:1052E000826B127D41EA0261826B9269114302680E
:1052F0009200A2F1C042C2F8041107E06FF07042C0
:1053000001688900A1F1C041C1F80421704700B5CE
:105310009DB001210802FDF73FFD02200090002012
:1053200001901E20029000200390049005900690AA
:1053300002200790002008900320099000200A9086
:105340000B900C900D900E901020119000200F905B
:10535000109013901290159018904FF48050179061
:10536000800019900020169014901A9007A81C90A5
:10537000CDF86CD00EA8FFF757FF01210020FFF7F2
:1053800039FF1DB000BD02E008C8121F08C1002A85
:10539000FAD170477047002001E001C1121F002AB6
:1053A000FBD1704710B519480078012816D118486C
:1053B0004078C01C00EE100AB8EEC00A1548D0EDC7
:1053C000000AB4EEE00AF1EE10FA07D2802112488A
:1053D000FCF7F5FB00200D49087015E00C484078FB
:1053E000401C00EE100AB8EEC00A0A48D0ED000AD0
:1053F000B4EEE00AF1EE10FA06DD80210648FCF773
:10540000DCFB01200149087010BD0000870100206D
:10541000021000200C000020000801402DE9F84394
:105420000746884600260F25B8F1000F17D13548EA
:105430003549098820F8117033480088401C1E2126
:1054400090FBF1F201FB12002F4908802F48006801
:105450001E2804DA2D480068401C2C4908602A48A0
:105460000688002447E0294800681E2816DA2548E7
:1054700030F8140026494978884202DC4FF4FC6970
:1054800001E04FF6E0791F48CDF8009030F8143075
:1054900005221721284600F065F824E0194830F865
:1054A00016001B494978884202DC4FF4FC6901E090
:1054B0004FF6E079A81D83B22A4654211720FEF743
:1054C00025FC1048CDF8009030F816300522172141
:1054D000284600F047F8701C86B21E2096FBF0F1BB
:1054E00000FB116086B2B5F5967F02DA05F109007E
:1054F00085B2601CC4B2054800688442B3DBBDE8D5
:10550000F8830000BA0900201801002014010020CF
:105510000210002010B511480078012806D002289A
:1055200008D0032810D0042812D109E001200C492A
:10553000487011E001200A494870FFF733FF0BE083
:1055400000200749487007E001200549487003E042
:1055500000200349487000BF00BF10BD8601002035
:105560001C0100202DE9F04305460E4617461C4657
:10557000DDF81C904FF000081E2C00DD1E24E819F9
:1055800083B206EB440081B22A463046FFF768F941
:105590004FF0000806E04846FFF7ECF908F101007B
:1055A0001FFA80F8012000EB4400791C4843404575
:1055B000F1DCBDE8F083000070B5054607482E1801
:1055C000002408E03046FBF72DFF054921F81400C0
:1055D000B61C601C84B2FF2CF4DD70BD00F803081B
:1055E000984E002070B505460B482E18FBF71EFF9D
:1055F0003046FBF72DFE002408E0084830F8141070
:105600003046FBF7BDFEB61C601C84B2FF2CF4DDF7
:10561000FBF7ACFE70BD000000F8030898500020B6
:1056200010B50446012C04D140210448FCF7C5FA0A
:1056300003E040210148FCF7C2FA10BD0008014018
:1056400038B500245020FCF7E1FC14B9FCF7E4FC69
:1056500004462CB9002201216846FCF7ABFC044645
:10566000BDF80000001238BD10B50446082C60D209
:10567000DFE804F05F04111E2B3845522021344826
:10568000FCF79BFA10213248FCF797FA8021314849
:10569000FCF795FA5AE080212E48FCF78EFA10218B
:1056A0002B48FCF78AFA20212948FCF788FA4DE0BC
:1056B00080212848FCF781FA20212548FCF77DFA53
:1056C00010212348FCF77BFA40E010212048FCF72A
:1056D00074FA80211F48FCF772FA20211C48FCF75D
:1056E0006EFA33E020211A48FCF767FA8021194846
:1056F000FCF765FA10211648FCF761FA26E08021D4
:105700001448FCF75AFA20211148FCF758FA1021E6
:105710000F48FCF754FA19E080210E48FCF74FFAC5
:1057200020210B48FCF74BFA10210948FCF747FAF7
:105730000CE080210748FCF740FA20210448FCF7E0
:105740003CFA10210248FCF738FA00BF00BF10BD38
:105750000010014000080140FAF7B2FEFEF702FA1D
:10576000FDF7B0FC0120064988700020C870FCF7E6
:10577000CBFD03E0FCF7C8FDFFF7CCFEFAE7000025
:105780003101002010B50446012C04D11021044839
:10579000FCF713FA03E010210148FCF710FA10BDE2
:1057A0000008014010B50446012C04D12021044812
:1057B000FCF703FA03E020210148FCF700FA10BDD2
:1057C000000801400021234A1170D170224A117053
:1057D000204A51709170214A117291711D4A1171C4
:1057E00000202FE00022C0EBC00101EB810319492A
:1057F000891D01EB83018A71C0EBC00101EB8103BC
:105800001449891D01EB83018A80C0EBC00101EBC3
:1058100081031149891D01EB83018A71C0EBC0012D
:1058200001EB81030C49891D01EB83018A80C0EBE8
:10583000C00101EB81030849891D01EB8301CA7195
:10584000411CC8B20228CDDB0021054A5170034A31
:10585000D1717047160B0020F8090020F60F0020C8
:105860009C110020C50098006B003E0011007201E1
:105870002C01E600A0005A00C50098006B003E0015
:1058800011004F010901C3007D0037000C000C001E
:10589000E1000C004001F000E100F0000000B01059
:1058A0000000EF0000008F010000010098100000D0
:1058B000EF0000008F0100000001B0100000EF00B9
:1058C00000008F010000010198100000EF000000AF
:1058D0008F0100000002B0100000EF0000008F01F7
:1058E0000000010298100000EF0000008F0100008E
:1058F000000048000000EF0000008F0100000100E0
:10590000E8002000AF010000EF0020000001480087
:105910000000EF0000008F0100000101E8002000FE
:10592000AF010000EF002000000248000000EF007F
:1059300000008F0100000102E8002000AF0100001C
:10594000EF002000FFFFDBDEB6B592946D6B494A95
:105950002421000002040801020408108601C3008B
:105960008601C300A60089006C00A60089006C00B7
:1059700097007A005D0097007A005D002301060120
:10598000E90023010601E900640147012A01A100A1
:1059900084006700650048002B00BF00A20085005E
:1059A00000000000000000000000000000000000F7
:1059B00000000000000000000000000000000000E7
:1059C000F000400100001000F00040010000130052
:1059D000F000400100001600F00040010000190036
:1059E0002D00250000001C002D00250000101C00CB
:1059F000F000400100001D00F00040010000200008
:105A0000F000400100002300F000400100002600EB
:105A1000F000400100002900F000400100002C00CF
:105A20002D00250000002F002D00250000102F0064
:105A3000F000400100003000F000400100003300A1
:105A4000F0004001000036002F00240000625100E9
:105A50002F002400008451002F00240000A65100D4
:105A60002F00240000C851002F00240000EA51003C
:105A70002F002400000C52002F002400002E5200A2
:105A80002F002400005052002F002400007252000A
:105A90002F002400009452002F00240000B6520072
:105AA0002F00240000D852002F00240000FA5200DA
:105AB0002F002400001C53002F002400003E530040
:105AC0002F002400006053002F00240000825300A8
:105AD0002F00240000A453002F00240000C6530010
