:020000040800F2
:10000000F856002059010008D5260008F51A000806
:10001000D1260008FD0400088952000800000000F5
:100020000000000000000000000000006136000831
:10003000750D0008000000003D2D0008AD3B0008D4
:1000400073010008730100087301000873010008C0
:100050007301000873010008CD0F00087301000848
:1000600073010008730100087301000873010008A0
:100070007301000873010008730100087301000890
:100080007301000873010008730100087301000880
:100090007301000873010008730100087301000870
:1000A0007301000873010008730100087301000860
:1000B00073010008E54B0008730100087301000894
:1000C0007301000873010008730100087301000840
:1000D000730100088D4E00087301000873010008C9
:1000E0007301000873010008730100087301000820
:1000F0007301000873010008730100087301000810
:1001000073010008730100087301000873010008FF
:1001100073010008730100087301000873010008EF
:1001200073010008730100087301000873010008DF
:1001300073010008730100087301000873010008CF
:10014000DFF810D000F01AF800480047F158000816
:10015000AFF30080F8560020064880470648004765
:10016000FEE7FEE7FEE7FEE7FEE7FEE7FEE7FEE767
:10017000FEE7FEE7C93B000841010008064C074DB9
:1001800006E0E06840F0010394E807009847103467
:10019000AC42F6D3FFF7D8FFA0240308C02403081D
:1001A00070B58C1810F8015B15F0070301D110F839
:1001B000013B2A1106D110F8012B03E010F8016B66
:1001C00001F8016B5B1EF9D12B0705D40023521EE9
:1001D0000DD401F8013BFAE710F8013BCB1A921C51
:1001E00003E013F8015B01F8015B521EF9D5A1424F
:1001F000D8D3002070BD000070B50E4805780E48B9
:10020000057003200C4948700020887003210A48BB
:1002100000F076F904460849CC70201208710520D8
:1002200081F83200084690F83220002004F0CAFF1E
:1002300070BD0000FA0F00200E1000202DE9F05FC5
:100240002C4807782C4890ED010AF2EE040A20EEC3
:10025000200ABCEEC00A10EE100A84B22046E11754
:1002600004EB1161C1F30728E11704EB11610912D6
:10027000A4EB012101F0FF091F4890ED000AF2EE06
:10028000040A20EE200ABCEEC00A10EE100A85B265
:100290002846E91705EB1161C1F3072AE91705EBB9
:1002A00011610912A5EB012101F0FF0B1348077042
:1002B00003201249487004208870084680F80380A3
:1002C00080F8049080F805A080F806B0072100F0BF
:1002D00017F906460949CE7130120872092081F8D3
:1002E0003200084690F83220002004F06BFFBDE891
:1002F000F09F0000FA0F0020A41100200E10002033
:1003000010B5044890F8332000F13401002004F0C7
:1003100059FF10BD0E1000202DE9F0418046B8F1C4
:10032000000F05D14FF6FF7542F2041637460DE077
:10033000B8F1010F05D142F204154FF6FF762F46B2
:1003400004E042F204152E464FF6FF774FF49B73FC
:10035000E0223C21084604F0E9FA002404E02846A3
:1003600004F06EFB601CC4B2552CF8DBE0231A4687
:1003700094213C2004F0DAFA002404E0284604F03A
:100380005FFB601CC4B2582CF8DB4FF49B73E02277
:100390009421084604F0CAFA002404E0284604F038
:1003A0004FFB601CC4B2552CF8DB4FF49B731A460C
:1003B00094213C2004F0BAFA002404E0284604F01A
:1003C0003FFB601CC4B2582CF8DBCC2375223C21C7
:1003D000084604F0ABFA002404E0304604F030FB99
:1003E000601CC4B2572CF8DB75231A4694213C20BC
:1003F00004F09CFA002404E0304604F021FB601C69
:10040000C4B2582CF8DBCC2375229421084604F0A2
:100410008DFA002404E0304604F012FB601CC4B2E4
:10042000572CF8DBCC231A4694213C2004F07EFAAA
:10043000002404E0304604F003FB601CC4B2582CD6
:10044000F8DB61230A223C21084604F06FFA0024FD
:1004500004E0384604F0F4FA601CC4B2572CF8DB10
:100460000A231A4694213C2004F060FA002404E098
:10047000384604F0E5FA601CC4B2582CF8DB61235E
:100480000A229421084604F051FA002404E0384678
:1004900004F0D6FA601CC4B2572CF8DB61231A466C
:1004A00094213C2004F042FA002404E0384604F091
:1004B000C7FA601CC4B2582CF8DBBDE8F081704765
:1004C00010B502F00DFD04F0D5FA02F049F8FFF77F
:1004D000F6FF01F063FE04F066FF03F06DF802F032
:1004E00045FE04F0CDFC04F03FFB02F0F4F800F010
:1004F00045FD01F0D5FD02F0CDF810BD00BFFEE7CF
:1005000070B502460C46FF25FF2309E012F8010BE7
:1005100080EA03010648405C80EA05030548455C23
:10052000201EA4F10106B4B2F0D143EA052070BD4B
:10053000862203088623030810B501460F4BD8789E
:100540001A7941B1431CDBB218460D4CA45CA3429E
:100550000ADB002008E0031EA0F10104E0B203D191
:10056000074B9B5C5B1ED8B2044BD8700A23034C2C
:10057000E3710123034C637010BD0000941100204F
:10058000812203088811002070B505460D480479C2
:10059000601CC0B20446052800DB002401200A4983
:1005A0000870084804710A200649C8710749085DA7
:1005B00003F0E8F80120064988700020054988709A
:1005C00070BD000094110020270100207C22030848
:1005D00088110020310100202DE9F14F86B0B1488B
:1005E0000079B14911F80090A9F10400052878D2EA
:1005F000DFE800F0035678A0C9000925AB48007871
:1006000006460290642096FBF0F0C0B28DF806001A
:10061000642096FBF0F100FB1160C0B20646039027
:100620000A2096FBF0F0C0B28DF805000A2096FB78
:10063000F0F100FB1160C0B2064604908DF8046032
:100640009848C078022802DD02209649C870954873
:10065000C078022804D102250398C830029013E024
:100660009DF8060002280FDB8E48C078012804D1CF
:1006700004250498F030029006E09DF80500042857
:1006800002DB0725F72002904FF0000B0298F728B5
:1006900001DD681EC5B28348C07801A947188FE004
:1006A000092582484478A04644460A2098FBF0F188
:1006B00000FB1140C0B28DF804000A2098FBF0F056
:1006C000C0B28DF805007748C078012802DD01200E
:1006D0007449C8704FF0000B7248C07801A94718E0
:1006E0006EE06CE0092571488478A04644460A20F3
:1006F00098FBF0F100FB1140C0B28DF804000A2015
:1007000098FBF0F0C0B28DF805006648C07801286B
:1007100002DD01206349C8706248C078012800D119
:1007200001254FF0000B5F48C07801A9471804F07D
:100730009BFE45E009255D48C47805940A20059C88
:1007400094FBF0F100FB1140C0B28DF804000A20C8
:10075000059C94FBF0F0C0B28DF805005148C078BC
:10076000012802DD01204F49C8704E48C078012899
:1007700000D101254FF0000B4A48C07801A9471865
:1007800004F072FE1CE001254848047905940079C4
:100790008DF804004348C078012802DD012041495A
:1007A000C8704048C078012800D101254FF0000BE7
:1007B0003C48C07801A9471804F056FE00E000BF8D
:1007C00000BF97F800A0069820B10AF1010000F0E0
:1007D000FF0A03E0AAF1010000F0FF0AAA4505DDC7
:1007E000069810B14FF0000A00E0AA4687F800A072
:1007F000B9F1040F13D19DF80600642110FB01F03C
:100800009DF8051001EB810100EB41009DF80410FB
:100810000844C6B2F72E00DDF72624480670B9F169
:10082000050F12D12148407800EE100AB8EE400AB8
:100830001F4880ED000A9DF804009DF8051001EBAB
:10084000810100EB410019494870B9F1060F09D147
:100850009DF804009DF8051001EB810100EB4100BB
:1008600012498870B9F1070F09D19DF804009DF86D
:10087000051001EB810100EB41000C49C870B9F192
:10088000080F03D19DF804000849087100200549AC
:1008900088700A20C87101200649487007B0BDE879
:1008A000F08F0000941100207C2203080410002027
:1008B0003C0100208811002010B52DED028BE3488B
:1008C0000068401CE1490860E1480068401CE049BC
:1008D0000860E0480088401CDE490880084600881F
:1008E00040F6B831884207DD01F0CEF8DA4880EDF5
:1008F000000A0020D7490880D848407800EE100A46
:10090000B8EE400AD448D0ED000A30EEC08A01F0BB
:10091000F3F8D3480078082871D2DFE800F0042308
:1009200071FD9BFCFBFACA480068CE49884209D891
:10093000012004F017FF002005F000F8002004F06B
:10094000EDFF0EE0002004F00DFF002004F0F6FFA4
:10095000002004F0E3FF0020BD4908600120C049E9
:1009600008706FE1002004F0FDFE002004F0E6FFB7
:10097000002004F0D3FFB648006847F230518842A7
:100980003CD3B3EE040AB4EEC08AF1EE10FA03DDF4
:100990000420B34908702EE0B1EE040AB4EEC08A18
:1009A000F1EE10FA03DB0220AD49087023E0B7EE48
:1009B000000AB4EEC08AF1EE10FA03DB0520A84964
:1009C000087018E0BFEE000AB4EEC08AF1EE10FA2B
:1009D00003DD0120A24908700DE0BAEE000AB4EE72
:1009E000C08AF1EE10FA03DB06209D49087002E090
:1009F00003209B49087000209549086022E11AE114
:100A0000012004F0AFFE002004F098FF002004F065
:100A100085FFB7EE000AB4EEC08AF1EE10FA06D2F6
:100A200001208F49087000208949086011E0B0EE6C
:100A3000000AB4EEC08AF1EE10FA0ADD84480068BC
:100A40008949884205D904208549087000208049D9
:100A50000860F7E07E4800688449884209D2002097
:100A600004F080FE002004F069FF012004F056FF2E
:100A70007CE0774800687E49884209D2002004F073
:100A800071FE012004F05AFF012004F047FF6DE0E1
:100A90006F4800687749884209D2002004F062FE5E
:100AA000012004F04BFF002004F038FF5EE06848AE
:100AB00000687149884209D2002004F053FE0020EA
:100AC00004F03CFF002004F029FF4FE0B1EE040ADF
:100AD000B4EEC08AF1EE10FA37DD684890ED010AF5
:100AE000674880ED010A5D48407800EE100AB8EED4
:100AF000400A634880ED020A604890ED010A6048B0
:100B000080ED000A90ED010AD0ED020A30EE600A95
:100B100003E033E063E02AE045E0F7EE000A20EE70
:100B2000200ADFED580A80EE201A80ED031A01201A
:100B300053490882002048828882C8820120524995
:100B400008800220464908700DE0B7EE000AB4EEB6
:100B5000C08AF1EE10FA03DD05204149087002E079
:100B600007203F4908700020394908606AE00220E8
:100B70003B49087000203649086063E0002004F01B
:100B8000F1FD002004F0DAFE002004F0C7FE30483A
:100B900000683749884205D9012031490870002092
:100BA0002B4908604EE0002004F0DCFD002004F03A
:100BB000C5FE012004F0B2FEBAEE000AB4EEC08A0F
:100BC000F1EE10FA04DC224800682A49884205D96F
:100BD00007202349087000201D49086032E01C48A6
:100BE00000682A49884209D2002004F0BBFD002099
:100BF00004F0A4FE012004F091FE1BE014480068FC
:100C00002349884209D2012004F0ACFD002004F001
:100C100095FE012004F082FE0CE0BFEE000AB4EE67
:100C2000C08AF1EE10FA02DD07200D49087000209D
:100C30000749086006E001200949087000200449BE
:100C4000086000BF00BFBDEC028B10BD6401002036
:100C500068010020700100206C010020FA0F0020C4
:100C60007C01002020BF0200804F1200C0D4010090
:100C7000C0270900A0BB0D00E0391300A41100201B
:100C8000804E00200000164472010020E093040012
:100C900000530700002019E01649095C164A125C4F
:100CA000914203DD1549095C124A11541149095C4E
:100CB000124A125C914203DA1049095C0D4A115440
:100CC0000C49095C0E4A1154411CC8B20528E3DBEB
:100CD0000849497901F00F01072905DD05494979DE
:100CE00001F0F001034A517102494979044A5171F6
:100CF00070470000FA0F0020862403088B240308A5
:100D00000410002070B5002413E04FF6FF7000EAD5
:100D100044260A49701800F0DFFA054642F22830EE
:100D2000854203DB4FF6FF70854200D103E0601C73
:100D300084B20A2CE9DB00BF304670BD00F803081E
:100D400010B509480078012803D00848C07A012866
:100D500000D110BD064890F83300062800DAF8E705
:100D600000F022F800BFF4E7270100204611002020
:100D70000E100020704700B5034603E04FF47A7070
:100D800000F005F8181EA3F10103F7D100BD07E03C
:100D9000002101E04A1C91B21529FBDB421E90B2F2
:100DA0000028F5DC7047000070B54B4804784B48CC
:100DB00090F83300801E81B248483430FFF7A0FB22
:100DC0000646464890F83300801E444934310D5C95
:100DD000424890F83300401E085C05EB002085B2C5
:100DE0003E4890F8340050BB3C4890F83500062847
:100DF00025D13A4890F83300082820D1374890F898
:100E0000370010B902F0A4F965E0344890F83700D3
:100E1000012860D13248007A02285CD00120304994
:100E200008722E4890F839002E49087001202C498C
:100E300088722D490871042002F0A4FC4BE0274879
:100E400090F83400A04246D1F4B3244890F835001D
:100E5000032802D006283ED112E0204890F838003E
:100E600030B91E4890F83900012801D1FFF7C4F9C4
:100E70001A4890F839000E2801D1FFF7DFF900BFBA
:100E8000164890F83700C12825D1FFF739FA1348E2
:100E900090F8391090F8380001EB002000EE100AAD
:100EA000B8EEC00AF2EE040A80EE201ABCEEC10AC7
:100EB00010EE100A0B4948700846407863280ADA99
:100EC00008464078044900E005E0487002F0CAFB9B
:100ED000052002F057FC70BDFA0F00200E10002014
:100EE000EE0F0020041000203101002070B50646EE
:100EF0000D48808900F23F1083B20B488289EF21B0
:100F0000002003F013FD00240AE0002504E0304631
:100F100003F096FD681C85B2F02DF8DB601C84B2EE
:100F2000B4F5A07FF1DB70BD724E002010B500203B
:100F30000849C87208490870C87048708870054927
:100F4000C87108720449087102F01CFC01F04EFBE4
:100F500010BD0000461100202701002008B5062022
:100F60008DF8000000208DF801008DF802000120AE
:100F70008DF80300684601F0BBFB08BD0EB50120EB
:100F8000ADF8080002208DF80A0028208DF80B002B
:100F900002A90D4800F01EFA0121084601F090FF59
:100FA0000021084600F0F6F90120009000208DF89D
:100FB000040010208DF8050001208DF80600684619
:100FC00000F02EF80EBD00000008014010B5012011
:100FD00000F012F830B1012000F008F804F0FCFB3A
:100FE0000149087010BD0000260100200149086079
:100FF0007047000014040140014600200022074B06
:101000001B6803EA0102054B14331B680B4013B144
:101010000AB1012000E000207047000000040140F8
:10102000002123498279002A3AD00A4612680368CF
:101030009A430B461A600A1D126803689A430B1DF7
:101040001A60027911440A6803681A430A60184A50
:101050000832126803689A43154B08331A601A1D48
:10106000126803689A43124B0C331A604279102AB3
:101070000ED11A1F126803681A430D4B08331A6009
:101080001A1D126803681A43094B0C331A600DE0ED
:101090000749427911440A6803681A430A6005E067
:1010A000027911440A6803689A430A607047000095
:1010B0000004014010B501200D498870C87000205F
:1010C0000871FFF733FF00200A4988720A48C07987
:1010D00000B910BD002405E00848005D0849085526
:1010E000601CC4B2052CF7DB02F0BCFA00BFF0E7CD
:1010F00031010020EE0F0020941100200410002088
:10110000FA0F002030B504460425B4F1046F24D34F
:10111000681F00F004F90546042D1CD1244800681E
:1011200040F0020022499039C1F890000846C0F80A
:101130009440D0F8900040F040001D490860681FBE
:1011400000F0EDF805461A489038D0F8900020F0ED
:10115000020017490860284630BD164800684FF065
:10116000006101EB8020401EA0421FD3480000F028
:10117000C3F80546042D19D10D489038006940F098
:1011800002000B499039086108464461006940F04B
:1011900040000861C80300F0AFF8054604489038E5
:1011A000006920F002000249903908612846D3E71F
:1011B00090200240E0F7FF1F04200B49C96801F0AE
:1011C000010109B101200EE00749C96801F00401DD
:1011D00009B1022007E00449C96801F0100109B112
:1011E000032000E0042070470020024004200B4947
:1011F000096801F0010109B101200EE00749096801
:1012000001F0040109B1022007E00449096801F076
:10121000100109B1032000E0042070478C20024037
:101220000348006940F080000149086170470000F0
:101230000020024070B504460D460426B4F1046F48
:101240001ED34FF4704000F06AF80646042E15D104
:101250001F48006840F001001D49086025804FF4D8
:10126000704000F05CF8064619489038D0F89000BD
:1012700020F0010016499039C1F89000304670BD49
:10128000144800684FF0006101EB8020401EA0422E
:101290001CD34FF4704000F02FF80646042E15D1F1
:1012A0000B489038006940F0010009499039086105
:1012B00025804FF4704000F01FF80646044890382F
:1012C000006920F001000249903908613046D6E7F4
:1012D00090200240E0F7FF1F014608887047000099
:1012E0000248034948600348486070472301674546
:1012F00000200240AB89EFCD00B502460423FFF782
:101300005BFF034603E0FFF757FF0346521E012B26
:1013100001D1002AF7D102B90523184600BD00B556
:1013200002460423FFF762FF034603E0FFF75EFF78
:101330000346521E012B01D1002AF7D102B9052321
:10134000184600BD30B50346A12921DBA12B0DDBDA
:10135000A92B0BDCA1F1A100A3F1A104C4EB04159E
:1013600005EB441400EB4400504330BDB02B0FDBC1
:10137000F72B0DDCA1F1A100A3F1B004C4EB04151F
:1013800005EB441400EB440000F24E305043ECE710
:101390000020EAE730B500228B071C0F0F2303FA69
:1013A00004F20B4B8C1053F824309343084C8D10EF
:1013B00044F8253023468C1053F824308C07240F32
:1013C00000FA04F42343024C8D1044F8253030BD5C
:1013D000080001402DE9F0410246002500260020CA
:1013E00000230024002791F803C00CF00F0591F8AA
:1013F00003C00CF0100CBCF1000F03D091F802C038
:101400004CEA050591F800C0BCF1000F31D014681A
:1014100000202BE04FF0010C0CFA00F3B1F800C0F3
:101420000CEA03069E4220D183004FF00F0C0CFA09
:1014300003F7BC4305FA03FC4CEA040491F803C02B
:10144000BCF1280F06D14FF0010C0CFA00FCC2F8D9
:1014500014C00AE091F803C0BCF1480F05D14FF069
:10146000010C0CFA00FCC2F810C0401C0828D1D3B3
:101470001460B1F800C0BCF1FF0F34DD54680020E7
:101480002EE000F1080C4FF0010808FA0CF3B1F857
:1014900000C00CEA03069E4221D183004FF00F0CDE
:1014A0000CFA03F7BC4305FA03FC4CEA040491F878
:1014B00003C0BCF1280F05D100F1080C08FA0CF8A4
:1014C000C2F8148091F803C0BCF1480F07D100F1B5
:1014D000080C4FF0010808FA0CF8C2F81080401C04
:1014E0000828CED35460BDE8F0810000F0B5034673
:1014F000B3F1004F71D90025002223F00044E50923
:1015000004F07F04220904F00F04970004FA07F6A0
:10151000062D15D2DFE805F00305080B0E11F8487B
:101520000FE0F748001D0CE0F548083009E0F448EA
:101530000C3006E0F248103003E0F148143000E0CF
:1015400000BF00BF22B9076827F00F0707603DE022
:10155000012A12D1012D0BD1042C04D9076827F0E0
:10156000C007076032E0076827F0300707602DE00A
:10157000076827F0F007076028E0022A04D107680F
:1015800027F47067076021E0032A04D1076827F475
:10159000704707601AE0042A04D1076827F470270F
:1015A000076013E0052A04D1076827F47007076075
:1015B0000CE0062A04D1076827F07067076005E091
:1015C000072A03D1076827F070470760012902D175
:1015D0000768374307603EE2FFE7B3F5802F6FD01F
:1015E00037DCB3F5007F6CD015DC102B6AD008DC3B
:1015F000012B68D0022B7BD0042B7AD0082B72D120
:101600007CE0302B70D0402B6FD0C02B6ED0B3F568
:10161000807FF4D1E4E0B3F5804F68D00CDCB3F503
:10162000407F7CD0B3F5006F7AD0B3F5406F78D0AF
:10163000B3F5805FE3D162E0B3F5C04F72D0B3F58C
:10164000004F57D0B3F5803F55D0B3F5003FD6D10A
:1016500052E0B3F1005F76D01DDCB3F5000F73D01C
:101660000CDCB3F5002F4BD0B3F5801F49D0B3F598
:10167000001F6AD0B3F5800FC1D18FE1B3F1807F35
:1016800074D0B3F1007F72D0B3F1806F70D0B3F13A
:10169000805FB4D166E19B4A981A934269D014DC0A
:1016A000B3F1804F76D0A3F180402038002872D06B
:1016B000B0F5787F70D0944A104400289FD18BE118
:1016C0001BE09DE042E02EE012E0B0F5802F74D0E8
:1016D000B0F5402F72D0B0F5A01F70D0B0F5E01F6C
:1016E0008DD17BE105E0B4E144E056E068E0C7E07D
:1016F00000BF00BF00BF00BF00BF00BF00BF00BFF2
:1017000000BF7F482038406898437D4A203A5060A7
:10171000012903D110464068184350609AE17FE0E8
:101720008EE09DE0BCE0764820384068774A104063
:10173000734A203A5060012904D11046406840F0B5
:101740000100506086E1FFE01AE135E16C48203885
:10175000406820F030006A4A203A5060012904D1E4
:101760001046406840F01000506073E1A8E0B7E018
:10177000CEE032E162482038406820F03000604A14
:10178000203A5060012904D11046406840F03000F2
:1017900050605FE1CAE01DE11DE159482038406812
:1017A00020F0C000564A203A5060012904D110466A
:1017B000406840F0400050604CE120E12DE13AE10A
:1017C0004F482038406820F0C0004D4A203A506011
:1017D000012904D11046406840F0C000506039E152
:1017E00047482038406820F44070454A203A50600D
:1017F000012904D11046406840F48070506029E10E
:101800003F482038406820F440703D4A203A5060FC
:10181000012904D11046406840F40070506019E17D
:1018200037482038406820F44070354A203A5060EC
:10183000012904D11046406840F44070506009E12D
:101840002F482038406820F440602D4A203A5060EC
:10185000012904D11046406840F400605060F9E06E
:1018600027482038406820F44060254A203A5060DC
:10187000012904D11046406840F440605060E9E01E
:101880001F482038406820F4C0401D4A203A50606C
:10189000012904D11046406840F480405060D9E0EE
:1018A00017482038406820F4C040154A203A50605C
:1018B000012904D11046406840F4C0405060C9E09E
:1018C0000F482038406820F0E0600D4A203A506010
:1018D000012904D11046406840F080705060B9E0A2
:1018E00007482038406820F0E060054A203A506000
:1018F000012904D11046406840F000705060A9E012
:1019000020000140000004402000FEFFFEFFFF7F9A
:101910005148406820F0E0604F4A5060012904D1EE
:101920001046406840F08060506093E04A4840684C
:1019300020F08040484A5060012904D11046406898
:1019400040F08040506085E04348406820F00050FF
:10195000414A5060012904D11046406840F00050CF
:10196000506077E03C48406820F080503A4A506030
:10197000012904D11046406840F08050506069E071
:101980003548406820F40000334A5060012904D1F2
:101990001046406840F4000050605BE02E4840680C
:1019A00020F480002C4A5060012904D11046406880
:1019B00040F4800050604DE02748406820F400105B
:1019C000254A5060012904D11046406840F40010B7
:1019D00050603FE000BF00BF00BF00BF1E48C069AD
:1019E000C3F3150290431C4AD061012906D1104669
:1019F000C069C3F315021043174AD0612AE01648A4
:101A0000C06920F4C010144AD061012904D11046E5
:101A1000C06940F40020D0611CE00F48C06920F488
:101A2000C0100D4AD061012904D11046C06940F4AC
:101A30008010D0610EE00848C06920F4C010064A4A
:101A4000D061012904D11046C06940F4C010D061B2
:101A500000E000BF00BFF0BD0000014002460020D2
:101A600093680B400BB1012000E0002070474161FA
:101A70007047016170474FF6FF710180022181704C
:101A80000421C17070470000164890ED010A164805
:101A9000164991F9001000EB810080ED000A13480F
:101AA0000078401C40B211490870084690F90000C7
:101AB0000A2801DB00200870DFED0D0A00200AE093
:101AC000094901EB800191ED000A30EE200AF0EEA9
:101AD000400A411C48B20A28F2DBB2EE041A80EE3A
:101AE000810A7047A4110020D04E0020750100200B
:101AF0000000000000BFFEE700B57A48408A401CA5
:101B0000784948820846408AB0F57A7F00DA00BDFD
:101B10000020744948820846C08A4FF6FF71884207
:101B200004DA7048C08A401C6E49C8826E4800784A
:101B300008287CD2DFE800F0AE045AAE1846500EFA
:101B40006A4890ED010A6A4880ED000A0020694960
:101B50000880A6E0654890ED010A654880ED000A1E
:101B60000020644908809CE06248008830B95F48E2
:101B700090ED010A5E4880ED000A22E0594890EDA0
:101B8000000A5A48D0ED010AB4EEE00AF1EE10FA6C
:101B90000ED2544890ED000AD0ED030A30EE200A30
:101BA00080ED000A90ED000A514880ED000A08E03F
:101BB0000020504908804D4890ED010A4C4880EDC6
:101BC000000A6EE0494890ED010A494880ED000A9C
:101BD00000204849088064E0444890ED010A4448E8
:101BE00080ED000A0020434908805AE041480088FF
:101BF000012848D13B4890ED001A3F48407800EE5C
:101C0000900AF8EE600AB4EEE01AF1EE10FA08DD80
:101C10003448D0ED000A90ED031A70EEC10AC0ED11
:101C2000000A324890ED011AD0ED010A00E031E0DF
:101C3000FDEEE00AF8EEE00A71EE600AB2EE041A78
:101C400060EE810AFDEEE00AF8EEE00AB2EE041A58
:101C500080EE810A2348D0ED000A70EEC00A2448C5
:101C6000C0ED000A1F48D0ED000A204890ED011A8F
:101C7000F4EEC10AF1EE10FA04DDD0ED010A1C48C1
:101C8000C0ED000A05E0194890ED010A184880ED02
:101C9000000A06E0154890ED010A154880ED000A9B
:101CA00000BF00BF1148D0ED010AB0EE600A03F09A
:101CB000C5FB03F091FCF0EE404AB0EE640A03F07D
:101CC00061FD03460B48008850B1022B08D100206B
:101CD000084908800120044908700020074908606D
:101CE00000BF14E7804E00207C010020A4110020DA
:101CF0000C00002072010020FA0F00206801002073
:101D00002DE9F04104460E4617464FF0000800202A
:101D100020704FF480712748FFF7ABFE80251FE04D
:101D20004FF400712348FFF7A4FE0120FFF72FF8BE
:101D30003846FFF72CF80320FFF729F84FF480719D
:101D40001C48FFF78BFE10B12078284320704FF419
:101D500000711848FFF78BFE0120FFF718F86D108F
:101D6000002DDDDC2EB94FF480711248FFF77FFEA5
:101D700004E04FF480710F48FFF77BFE0120FFF76E
:101D800006F84FF400710B48FFF773FE0520FEF7CD
:101D9000FEFF4FF400710748FFF769FE4FF48071B2
:101DA0000448FFF766FE1420FEF7F1FF4046BDE849
:101DB000F0810000000C014010B54FF480710F4815
:101DC000FFF757FE0120FEF7E2FF4FF400710B48CA
:101DD000FFF74FFE0120FEF7DAFF4FF4807107484E
:101DE000FFF745FE0A20FEF7D2FF4FF400710348CB
:101DF000FFF73DFE0A20FEF7CAFF10BD000C0140B0
:101E000010B54FF400710F48FFF731FE0120FEF7C7
:101E1000BEFF4FF480710B48FFF729FE0120FEF74B
:101E2000B6FF4FF400710748FFF723FE0A20FEF7C4
:101E3000AEFF4FF480710348FFF71BFE0A20FEF748
:101E4000A6FF10BD000C014070B505460026802499
:101E500021E004EA050028B94FF480711E48FFF71D
:101E600006FE04E04FF480711B48FFF702FE0120DC
:101E7000FEF78DFF4FF400711748FFF7FAFD0520BC
:101E8000FEF785FF4FF400711348FFF7F0FD0120C6
:101E9000FEF77DFF6410002CDBDC4FF480710E48F0
:101EA000FFF7E7FD4FF400710B48FFF7E2FD01205B
:101EB000FEF76DFF4FF480710748FFF7CFFD00B1CB
:101EC00001264FF400710448FFF7D1FD1420FEF7FE
:101ED0005EFF304670BD0000000C01402DE9F0416E
:101EE00004460E4617464FF00008002020700221DD
:101EF0002248FFF7BEFD80251CE004211F48FFF7A4
:101F0000B8FD0120FEF743FF3846FEF740FF0320EF
:101F1000FEF73DFF02211948FFF7A0FD10B1207820
:101F20002843207004211548FFF7A1FD0120FEF78A
:101F30002EFF6D10002DE0DC26B902210F48FFF7BF
:101F400096FD03E002210D48FFF793FD0120FEF707
:101F50001EFF04210948FFF78CFD0520FEF717FF3F
:101F600004210648FFF783FD02210448FFF781FDA5
:101F70001420FEF70CFF4046BDE8F0810008014048
:101F800010B502210D48FFF774FD0120FEF7FFFE9A
:101F900004210A48FFF76DFD0120FEF7F8FE02213B
:101FA0000648FFF764FD0A20FEF7F1FE042103480E
:101FB000FFF75DFD0A20FEF7EAFE10BD00080140B4
:101FC00070B50546002680241DE004EA050020B90E
:101FD00002211B48FFF74BFD03E002211848FFF7E1
:101FE00048FD0120FEF7D3FE04211548FFF741FD0F
:101FF0000520FEF7CCFE04211148FFF738FD012033
:10200000FEF7C5FE6410002CDFDC02210C48FFF750
:1020100030FD04210A48FFF72CFD0120FEF7B7FE32
:1020200002210748FFF71AFD00B1012604210448E8
:10203000FFF71DFD1420FEF7AAFE304670BD00001C
:102040000008014030B502460B46FF20002113E096
:10205000555C684008240BE000F0800525B131256F
:1020600085EA4005E8B201E04506280E651EECB29F
:10207000002CF1DC4D1CE9B29942E9DB30BD2DE9C1
:10208000F04105460E46144631462846FFF7DAFF72
:102090000746A74202D00220BDE8F0810020FBE7FE
:1020A00008B50620ADF8000001208DF802001420CC
:1020B0008DF8030069460248FFF78CF908BD00005F
:1020C000000801402DE9FC4105460E4617463A46F8
:1020D000002101A8FFF702FF044634B9002211468F
:1020E0000DF10500FFF7FAFE04462CB90022314637
:1020F0006846FFF7F3FE044634B99DF8002002213C
:1021000001A8FFF7BCFF04469DF805009DF80410E8
:1021100040EA012028802046BDE8FC810149087082
:10212000704700007901002010B5FFF729FF05492D
:102130000978012202EB4101C8B2FFF741FF0446D2
:10214000204610BD7901002010B50446202C10D087
:1021500006DC012C19D0042C1AD0102C1BD104E061
:10216000402C0ED0802C16D107E00120FEF70CFA8F
:1021700012E00020FEF730FA0EE00120FEF72CFA04
:102180000AE00120FEF7D8F906E0FEF793FF03E02E
:1021900000F05EFE00BF00BF00BF10BD7047000032
:1021A00010B504460848007A012808D1074800788D
:1021B0000749087001F056FA0220034908722046C8
:1021C000FFF7C2FF10BD0000EE0F0020041000203A
:1021D000FA0F002070B53C48407A012800D170BD4C
:1021E0003A48007900B9FAE700203849087101F04F
:1021F00093FA04462046E11704EB1161C1F3072569
:10220000E6B23148407A022837D030488079012838
:1022100033D12E48407CA8422DD125BB2B48407895
:1022200001281AD12948007C18B92848007C0128C7
:1022300013D02648007C102807D1012024490871BA
:102240002249087CFFF7ACFF07E02148007901280C
:1022500003D11E49087CFFF7A3FF00201B494870EB
:102260000846057407E01948407820B9012017494D
:10227000487008460574154845741348407A032889
:102280001BD012484079012817D11048C07BB042BA
:1022900011D11EB900200D4908700CE00B480078E0
:1022A00048B90B480079012805D13046FFF778FF7F
:1022B0000120064908700548C6730020034948718B
:1022C000887100BF8BE70000EE0F00204611002050
:1022D0003101002000B54B48037A052B00DB0523B4
:1022E0004948408949F22631884205D0464840890C
:1022F00047F2937188423DD1C3EBC300434901EBE0
:1023000040021078424908705078487050884880E0
:1023100090888880D088C880108908815089488139
:1023200090898881032002F087FB3949488802F0B0
:1023300087FB4FF4047002F07FFB3549888802F078
:102340007FFB40F2112002F077FB3149C88802F090
:1023500077FB40F2122002F06FFB2D49088902F052
:102360006FFB40F2132002F067FB2949488902F015
:1023700067FB46E0C3EBC300264901EB400210783F
:102380002349087050784870508848809088888029
:10239000D088C880108908815089488190898881B7
:1023A000362002F049FB1A49488802F049FB2A20EE
:1023B00002F042FB16498988081202F041FB1449D9
:1023C000087902F03DFB1249C988081202F038FB77
:1023D0000F49887902F034FB2B2002F02DFB0C49C9
:1023E0000989081202F02CFB0949087A02F028FB3F
:1023F00007494989081202F023FB0549887A02F04F
:102400001FFB00BDFA0F002088110020345A00087D
:10241000724E0020885A000810B549484078C0B96B
:102420004848C07928B948480078012801D1FEF70A
:1024300041FE4448407860B14248808948B9002054
:10244000404948704148407840490870012001F0F7
:1024500099F93B48407800B910BD002201213C4861
:1024600002F0AEFC022036494870084600794871F7
:1024700001221146364802F0A3FC3148007920B110
:102480004FF400513348FFF7F2FA334804682C4800
:1024900040790A281BD2DFE800F01A081A1A0B0E3E
:1024A0001114170500F098FB14E000F0E1F911E0B9
:1024B00000F060F90EE001F0B7FA0BE001F052FA1B
:1024C00008E001F011FB05E001F00EFA02E000F077
:1024D000CFF900BF00BF20480068001B18490881E1
:1024E00008464078022812D1002048708870C870D1
:1024F0001A484078062802DB002018494870104826
:10250000018916484278083020F8121016E0134866
:10251000407818B906201149487006E00F48407805
:10252000062802DB01200D494870054802890B4846
:102530004078401E0949083121F8102000BF8BE780
:102540008811002094110020270100201E01002086
:1025500000040040000C0140984E00205C11002057
:1025600008B58020ADF8000002208DF80200102090
:102570008DF8030069461A48FEF72CFF2020ADF8BD
:10258000000069461748FEF725FF1020ADF800004F
:1025900069461448FEF71EFF2020ADF8000069468A
:1025A0001148FEF717FF0820ADF8000069460C48F7
:1025B000FEF710FF80210A48FFF759FA2021094849
:1025C000FFF755FA10210748FFF751FA2021064876
:1025D000FFF74FFA08210248FFF749FA08BD00004B
:1025E00000080140001001400018014010B5002013
:1025F0000249087003F004F910BD00001E0100201C
:1026000010B500F05FFD0948007858B9002405E0D6
:102610000748005D05490855601CC4B2052CF7DB6E
:1026200001F020F8FEF736FB10BD0000FA0F002085
:102630008B24030838B50446102C00DD0024104814
:10264000807801281AD10F48007868B90C480470C6
:1026500000780D4901EBC0050C4800680090D5E9F1
:10266000001201F043FB09E006480478102C00DD5D
:102670000024074931F81400FEF738FC38BD00008B
:102680008811002010000020585B0008985C0008AA
:102690001400002008B57020ADF8000001208DF86E
:1026A000020010208DF8030069460848FEF792FEEC
:1026B00040210648FFF7DDF920210448FFF7D9F94A
:1026C00010210248FFF7D5F908BD000000080140BD
:1026D00000BFFEE7704710B54FF4A06000F040F86F
:1026E00002F06EFAFEF73AFC02F012FC10BD000098
:1026F00070B5002100230F22C47804B3154C246860
:1027000004F4E064C4F5E064210AC1F10403CA40A2
:10271000447804FA03F184781440214309010E4CF3
:102720000678A155047804F01F050124AC40057813
:102730006D11AD0005F1E025C5F8004109E0047810
:1027400004F01F050124AC40044D0678761145F8CD
:10275000264070BD0CED00E000E400E080E100E008
:1027600002490143024A1160704700000000FA0567
:102770000CED00E03EB538480478002002900025BA
:102780000A2094FBF0F100FB11403030C0B28DF80C
:102790000800642094FBF0F100FB11400A2190FB3B
:1027A000F1F03030C0B28DF80900642094FBF0F0F5
:1027B0003030C0B28DF80A002748007908B90225E8
:1027C00000E00A2525480078A84204D0E8B2FFF7C7
:1027D00031FF22490D702249C878FDF79DFD21483F
:1027E0002149097830F8110020491F4A127831F840
:1027F0001210CDE900109DF808200523F321482090
:1028000001F044FE17481849097830F811001749BB
:10281000154A127831F81210CDE900109DF8092000
:1028200005238921482001F031FE0E480E49097820
:1028300030F811000D490C4A127831F81210CDE928
:1028400000109DF80A2005231E21482001F01EFEDD
:102850000220024948703EBD0410002031010020D2
:1028600094110020140000201000002034000020EB
:1028700070B52DED028B86B00020059004900024E9
:102880009FED770AB0EE408A002500260390754838
:1028900090ED000AB0EE408AB2EE040A28EE000A7B
:1028A000BCEEC00A10EE104A6F4890ED000AF2EE3E
:1028B000040A20EE200ABCEEC00A10EE105ABCEE4C
:1028C000C80A10EE100A86B2684840780A2190FBC8
:1028D000F1F03030C0B28DF80C006448407890FBC5
:1028E000F1F201FB12003030C0B28DF80D0000F0A3
:1028F000C9F804A9204602F0A4FA05A9284602F066
:10290000A0FA9DF8100030282CD15948594909786F
:1029100030F811005849574A127831F81210CDE9B1
:1029200000109DF81120052384215C2001F0AEFDEC
:1029300084235C22AC21104601F04EFA4C484D49EC
:10294000097830F811004C494A4A127831F81210CF
:10295000CDE900109DF813200523B6215C2001F07D
:1029600095FD29E09DF8100030B3414841490978B0
:1029700030F8110040493F4A127831F81210052210
:102980000223CDE90021029004AA5C21084601F04F
:1029900091FF37483749097830F811003649354AF0
:1029A000127831F81210CDE900109DF8132005239C
:1029B000B6215C2001F06AFD4FF6FF70032306226A
:1029C00068210090A82002F06FFE29482949097863
:1029D00030F811002849274A127831F812100022E5
:1029E0000423CDE90021029005AA0A21B42001F0B8
:1029F00061FF1F481F49097830F811004FF44071FA
:102A0000CDE900109DF80C2003230E21762001F063
:102A10003DFD17481749097830F811004FF440710F
:102A2000CDE900109DF80D2003231E21762001F032
:102A30002DFD1248C089012803D01148C078012813
:102A400009D10F48C178304602F04AFD00200B49F9
:102A5000C8810B49C87006B0BDEC028B70BD000088
:102A6000000000000C000020A4110020FA0F00203C
:102A7000140000201000002034000020984E002098
:102A80003101002038B500244A484078401C00EE4F
:102A9000100AB8EEC00A4848D0ED000AB4EEE00AC9
:102AA000F1EE10FA03DB01204449087011E04148BF
:102AB0004078401C00EE100AB8EEC00A3E48D0ED47
:102AC000000AB4EEE00AF1EE10FA02D200203B490F
:102AD00008703B48007898B13848007880B9394888
:102AE000007908B9002400E00824E0B2FFF7A2FD55
:102AF0000121002002F0F4FC00203149087022E09E
:102B00002F48007801281ED02C48007801281AD1BF
:102B10002D48807A012806D120212C48FEF7A9FFF4
:102B20000020294988722748007908B9012400E06B
:102B30000924E0B2FFF77EFD0121002002F0D0FC65
:102B400001201F4908701D484078012817D11C48F2
:102B50004078012813D01B48007908B9052400E00B
:102B60000D241B4800EBC4031A4840680090D3E9C9
:102B7000001201F0BBF801201149487018E00F481D
:102B80004078A8B90E48407890B10E48007908B94D
:102B9000042400E00C240E4800EBC4030D484068F8
:102BA0000090D3E9001201F0A1F800200449487018
:102BB00038BD0000FA0F00200C0000201C0100208E
:102BC0003101002004100020A41100200010014059
:102BD000585B0008985C00082DE9FE414A480088CF
:102BE000FEF784F9494890F80080012047490870B1
:102BF0004748408947F29371884228D14548007878
:102C000020B191245A25C4261E2703E07824AA2542
:102C100055266E273C4800884FF6FF710122062397
:102C2000CDE9002102903CA22946204601F042FE57
:102C3000354800884DF6DB6100221E23CDE90021D6
:102C4000029039A23946304601F034FE56E0304851
:102C5000408949F22631884228D12E48007820B197
:102C600091245A25C4261E2703E07824AA25552638
:102C70006E27254800884FF6FF7101220623CDE913
:102C80000021029024A22946204601F013FE1E488E
:102C900000884DF6DB6100221E23CDE90021029061
:102CA00021A23946304601F005FE27E01948007898
:102CB00020B1EB245A25C8261E2703E07824AA2534
:102CC00055266E27104800884FF6FF710122062313
:102CD000CDE90021029010A22946204601F0EAFD2C
:102CE000094800884DF6DB6100221E23CDE9002152
:102CF00002900DA23946304601F0DCFD034880F811
:102D00000080BDE8FE8100001200002010000020BD
:102D100088110020724E002048535F436162696E43
:102D2000657420202020200056312E3030202020B5
:102D300020323032332D30352D3038007047F0B529
:102D4000074627B94FF6FF7542F2041603E042F238
:102D500004154FF6FF7640F22B13B4222C210846BF
:102D600001F0E4FD002404E0284601F069FE601C47
:102D7000C4B2782CF8DBB4231A46A4212D2001F02C
:102D8000D5FD002404E0284601F05AFE601CC4B2C0
:102D9000762CF8DB40F22B13B422A421084601F074
:102DA000C5FD002404E0284601F04AFE601CC4B2C0
:102DB000782CF8DB40F22B131A46A4212D2001F0C9
:102DC000B5FD002404E0284601F03AFE601CC4B2C0
:102DD000762CF8DB8B2314222C21084601F0A6FD6B
:102DE000002404E0304601F02BFE601CC4B2782CB5
:102DF000F8DB14231A46A4212D2001F097FD0024AE
:102E000004E0304601F01CFE601CC4B2762CF8DBF6
:102E10008B231422A421084601F088FD002404E03D
:102E2000304601F00DFE601CC4B2782CF8DB8B2319
:102E30001A46A4212D2001F079FD002404E030463B
:102E400001F0FEFD601CC4B2762CF8DBF0BD000082
:102E500010B5012007498870C87000200871FEF77E
:102E600065F80020044988720448C07900B910BD93
:102E700000BFFCE731010020EE0F0020941100207C
:102E800029B1064A52690243044B5A6104E0034ADD
:102E900052698243014B5A617047000000100240A2
:102EA00029B1064AD2690243044BDA6104E0034ABD
:102EB000D2698243014BDA61704700000010024082
:102EC00029B1064A92690243044B9A6104E0034A1D
:102ED00092698243014B9A617047000000100240E2
:102EE00010B54FF4803000F0B5F801210802FFF76B
:102EF000C7FF01210448FFF7D3FF012144F67D00FD
:102F0000FFF7DEFF10BD000003000018F0B500223F
:102F1000002100240023484D6D6805F00C0222B109
:102F2000042A05D0082A3ED105E0444D05603DE065
:102F3000424D05603AE0404D6D6805F480343E4DE9
:102F40006D683F4E05EA060101F0C04535B901F450
:102F50007015B5F5701F01D0022500E0012501F0C4
:102F6000C046C1F3834747EA5666A9191CB9354DD7
:102F70004D4305600BE0304D6D6805F400351DB123
:102F8000304D4D43056002E02C4D4D4305602A4D08
:102F90006D6805F000452DB92B4E0568B54201D985
:102FA0003546056002E0254D056000BF00BF224D9B
:102FB0006D68C5F30212204D6D6805F0800515B1EE
:102FC000224DAD5C00E000252B460568DD404560E4
:102FD000194D6D68C5F30122174D6D6805F48065C4
:102FE00015B11A4DAD5C00E000252B464568DD406B
:102FF0008560114D6D68C5F3C1220F4D6D6805F4F4
:10300000005515B1114DAD5C00E000252B4645681B
:10301000DD40C560084D6D68C5F38132064D6D68B1
:1030200005F080550DB142F00402094DAB5CC56856
:10303000B5FBF3F50561F0BD0010024000127A0007
:1030400000003C6000093D0000A24A0490240308EF
:10305000982403081149096821F480310F4A11604E
:103060001146096821F480211160B0F5803F03D03A
:10307000B0F5802F0ED106E00849096841F480318F
:10308000064A116007E00549096841F4A021034A96
:10309000116000E000BF00BF704700000010024058
:1030A000012806D10649496D41F03001044A5165B5
:1030B00005E00349496D21F03001014A516570472F
:1030C000001002402DE9F04700250026A846FEF733
:1030D00007F9FDF717FE8146484602F00FFBFEF7A1
:1030E0009FF8002411E01849A01C31F81000454059
:1030F00004F1220031F81000464004F1420031F89A
:10310000100080EA0808601C84B2062CEBDB002467
:1031100015E025B90C49A01C31F810700BE02EB950
:10312000094904F1220031F8107004E0064904F165
:10313000420031F8107005490F55601C84B2062C0E
:10314000E7DBBDE8F0870000F84E0020FA0F002012
:1031500010B5FDF7EBFE02F001FC002002490870FB
:1031600000F080FA10BD0000FA0F002008B54FF4FF
:103170004070ADF8000001208DF8020014208DF899
:10318000030069460148FEF725F908BD000C01401F
:1031900038B50446204600F041F9684600F004FACC
:1031A00005460121002000F03FF938BD10B544204C
:1031B000FFF7EEFF10BD30B502460B46FF200021A1
:1031C00013E0555C684008240BE000F0800525B151
:1031D000312585EA4005E8B201E04506280E651E66
:1031E000ECB2002CF1DC4D1CE9B29942E9DB30BDB8
:1031F00000EE900AF8EE600A9FED1A1A60EE810A5E
:103200009FED191AC0EE811AB0EE610A174989784C
:103210000A290BDB154989780A3900EE901AF8EE75
:10322000E00A70EE800AB0EE600A19E00F49897872
:1032300000EE901AF8EE600AF4EEC00AF1EE10FA11
:1032400004DBDFED0B0AB0EE600A09E0074989787C
:1032500000EE901AF8EE600A70EE600AB0EE600AB6
:10326000704700000000C84200FF7F4704100020A4
:103270000000000000EE900AF8EE600A9FED1C1AB4
:1032800060EE810ADFED1B1A80EEA11ADFED1A0A4B
:1032900071EE600AB0EE600A1849C9780A290BDBA2
:1032A0001649C9780A3900EE901AF8EEE00A70EE75
:1032B000800AB0EE600A19E01049C97800EE901A51
:1032C000F8EE600AF4EEC00AF1EE10FA04DBDFED6E
:1032D0000C0AB0EE600A09E00849C97800EE901ABD
:1032E000F8EE600A70EE600AB0EE600A7047000007
:1032F00000002F4300FF7F470000344204100020ED
:10330000000000002DE9F04105460E461446314606
:103310002846FFF750FF0746A74202D00220BDE82B
:10332000F0810020FBE72DE9FC4105460E461746DB
:103330003A46002101A8FEF7E3FC044634B9002216
:1033400011460DF10500FEF7DBFC04462CB9002206
:1033500031466846FEF7D4FC044634B99DF8002097
:10336000022101A8FFF7CEFF04469DF805009DF855
:10337000041040EA012028802046BDE8FC810000BE
:103380007CB5044600F0F6F8054625B94FF46040D8
:1033900000F0FEF8054615B900F0DCF805462DB939
:1033A0000022114601A8FFF7BEFF05462DB90022F5
:1033B00001216846FFF7B7FF05460DBBBDF80400C5
:1033C000FFF758FF84ED000ABDF80000FFF710FF7B
:1033D00084ED010AA089802801DB0020A081BDF8CE
:1033E0000410A28904F10E0020F81210BDF800109C
:1033F000A28904F5877020F81210A089401CA081D2
:10340000FEF7FEFC0448807A012802D0012000F07B
:10341000B9F928467CBD0000EE0F00200149087074
:10342000704700007601002070B506460D4600F09A
:10343000A1F80446002C72D1002E57D0012E2BD0BB
:10344000022E7FD1052D22D2DFE805F003090F15EA
:103450001B0042F22F0000F09BF804431AE042F2F6
:103460002D1000F095F8044314E042F22B2000F0F8
:103470008FF804430EE042F2293000F089F804434B
:1034800008E042F22A7000F083F8044302E044F0BE
:10349000800400BF00BF58E0052D22D2DFE805F010
:1034A00003090F151B0042F2240000F071F80443D9
:1034B0001AE042F2261000F06BF8044314E042F2E6
:1034C000202000F065F804430EE042F2223000F0C4
:1034D0005FF8044308E042F2217000F059F8044319
:1034E00002E044F0800400BF00BF2EE0052D24D28E
:1034F000DFE805F003090F171D0042F2320000F06B
:1035000047F804431CE042F2301000F041F8044355
:1035100016E042F2362000F03BF8044310E015E0DC
:1035200010E042F2343000F033F8044308E042F295
:10353000377000F02DF8044302E044F0800400BF2F
:1035400000BF02E044F0800400BF00BFFEF758FC5B
:10355000204670BD10B5FEF72FFC05490978012201
:1035600002EB4101C8B2FEF76FFC0446204610BDD5
:103570007601002010B5FEF71FFC044909784906C2
:10358000080EFEF761FC0446204610BD76010020BF
:1035900070B504462012FEF757FC0546E0B2FEF770
:1035A00053FC0543284670BD70B50546FFF7E2FFA2
:1035B0000446204670BD000008B501210D20FFF72C
:1035C0007FFC6846FEF757FA4FF4C850ADF800008C
:1035D00002208DF8020018208DF803006946194872
:1035E000FDF7F8FEC220ADF8000069461648FDF769
:1035F000F1FE01211548FDF779FF01211448FDF77F
:1036000075FF02201349086000BF1248001D0068C2
:1036100000F001000028F8D10F480E49091F08608A
:103620000E480C498839C1F8840000BF09480830A9
:10363000006800F080000028F8D1064910310860C9
:1036400008BD000000080140000C014000002040BF
:10365000000400408820024023016745AB89EFCD7C
:10366000704700002DE9F0410026FDF713FB002410
:103670000EE02648055D6E402549A01C21F810503B
:10368000203021F81050203021F81050601C84B2F6
:10369000052CEEDB1E48C681A0F84E60A0F88E60B7
:1036A000FDF730FB0746384602F028F800241DE0FD
:1036B0001749A01C31F81010164A32F81000814248
:1036C00011D1134904F1220031F8101032F8100022
:1036D000814208D10E4904F1420031F8101032F84D
:1036E0001000814200D003E0601C84B2062CDFDBB6
:1036F00000BF062C07DA07480088401C04490880F0
:10370000384602F011F8BDE8F0810000FA0F002001
:10371000F8500020F84E00201848C27B417C4079C8
:10372000012805D1002216480078082800D101227E
:103730001248807901281DD10021114800781028F5
:1037400001D1102116E00E480078022801D1202175
:1037500010E00B480078012801D180210AE00848D8
:103760000078202801D1402104E005480078042891
:1037700000D1042102EB012080B2704746110020E5
:103780002601002017494978022903D10321154A4F
:10379000517002E00121134A51700121114A9170C8
:1037A0000021114A51701170D17091700F494A78FF
:1037B0004978491C0D4B5970052A02DB00211A4635
:1037C000517000F07F01074A117108494A78891C3D
:1037D000885407490A6805494B78143141F8232079
:1037E0007047000088110020B41300205C110020F5
:1037F000984E002010B500F001F810BD1CB5002057
:10380000019000903548006840F4803033490860EA
:1038100000BF3248006800F4003000900198401C5E
:103820000190009818B90198B0F5405FF1D12B488C
:10383000006800F4003010B10120009001E0002089
:1038400000900098012847D12448406823494860E7
:103850000846406820F4605048600846406840F4DC
:10386000005048600846406820F4E0604860084620
:10387000406840F480604860084640681849084045
:10388000164948600846406816490843134948608D
:103890000846006840F08070086000BF0F4800686C
:1038A00000F000700028F9D00120FFF7F9FB0B4869
:1038B000406820F00300094948600846406840F02D
:1038C0000200486000BF0548406800F00C0008286E
:1038D000F9D10020FFF7E4FB1CBD000000100240FE
:1038E000FFFFC01F000021A03EB518480579002049
:1038F000029010240A2095FBF0F100FB11503030AB
:10390000C0B2029012480078A04204D0E0B2FEF7A4
:1039100091FE0F490C700F49C878FFF710FA0E4856
:103920000E49097830F811000D490C4A127831F827
:103930001210CDE900109DF808200523DC21482055
:1039400000F0A4FD0220024948703EBD0410002092
:1039500031010020941100201400002010000020EC
:10396000340000203EB52A488578002002900A2DB8
:1039700003DA2D208DF8090002E02B208DF80900D4
:103980000A2095FBF0F100FB11503030C0B28DF8E9
:10399000080000241E48007908B9062400E00E241F
:1039A0001C480078A04204D0E0B2FEF743FE19495B
:1039B0000C701949C878FFF7C2F9184818490978F6
:1039C00030F811001749164A127831F81210CDE973
:1039D00000109DF808200523DC21482000F056FD4A
:1039E0000E480F49097830F811000E490C4A127838
:1039F00031F81210CDE900109DF8092005233C2173
:103A0000482000F043FD0220024948703EBD0000FE
:103A10000410002031010020941100201400002027
:103A200010000020340000203EB5294845780020D1
:103A300002900A2095FBF0F03030C0B28DF80900FA
:103A40000A2095FBF0F100FB11503030C0B28DF828
:103A5000080000241E48007908B9032400E00B2464
:103A60001C480078A04204D0E0B2FEF7E3FD1949FB
:103A70000C701949C878FFF762F918481849097895
:103A800030F811001749164A127831F81210CDE9B2
:103A900000109DF808200523DC21482000F0F6FCEA
:103AA0000E480F49097830F811000E490C4A127877
:103AB00031F81210CDE900109DF8092005233C21B2
:103AC000482000F0E3FC0220024948703EBD00009F
:103AD0000410002031010020941100201400002067
:103AE00010000020340000203EB52A48C578002090
:103AF00002900A2D03DA2D208DF8090002E02B2018
:103B00008DF809000A2095FBF0F100FB11503030D0
:103B1000C0B28DF8080000241E48007908B90724B7
:103B200000E00F241C480078A04204D0E0B2FEF769
:103B300081FD19490C701949C878FFF700F9184838
:103B40001849097830F811001749164A127831F8E7
:103B50001210CDE900109DF808200523DC21482033
:103B600000F094FC0E480F49097830F811000E4916
:103B70000C4A127831F81210CDE900109DF8092096
:103B800005233C21482000F081FC022002494870B6
:103B90003EBD0000041000203101002094110020DF
:103BA0001400002010000020340000200548007997
:103BB000012803D100200349087102E001200149D6
:103BC000087170472C01002010B51A48006840F4B5
:103BD0007000184908601848006840F00100164954
:103BE000086008464068154908401349486008467F
:103BF000006813490840104908600846006820F42E
:103C000080200860084640680E4908400A4948601C
:103C10000846006B0C490840074908634FF41F0031
:103C20008860FFF7E7FD4FF00060024980390860C7
:103C300010BD000088ED00E0001002400C00FFE81D
:103C4000FFFFF6FEFFFF001700FFFEFE10B501208C
:103C500021494872FEF7D4FC00F0F8FE80211F488D
:103C6000FDF707FF4FF47A70FDF785F880211B48B8
:103C7000FDF7FDFE20211A48FDF7FBFE4FF47A7098
:103C8000FDF779F820211648FDF7F1FE10211448C0
:103C9000FDF7EFFE4FF47A70FDF76DF81021104834
:103CA000FDF7E5FE08210D48FDF7E3FE4FF47A70BD
:103CB000FDF761F808210948FDF7D9FE0020064903
:103CC000C8714872074908704FF47A7006498880B5
:103CD000FDF72CF910BD0000EE0F00200008014098
:103CE000001001402E0D0020984E00202DE9F74FC6
:103CF00082B03848007818B3BDF80A003549898980
:103D0000084485B2BDF80A00324989890844BDF8E3
:103D10000E10084486B2BDF80870BDF80800BDF862
:103D20000C1008441FFA80F8BDF80CA0701E83B276
:103D3000A8F1010081B22A46384600F0F7FD1BE0E9
:103D4000BDF80850BDF80800BDF80C10084486B254
:103D5000BDF80A70BDF80A00BDF80E1008441FFA3D
:103D600080F8BDF80CA0A8F1010083B2701E81B2EA
:103D70003A46284600F0DAFD049800F1036000900E
:103D80004FF000091FE009FB0AF00190002413E046
:103D9000204604EBD0714910A4EB410121B90198F0
:103DA0002044009951F810B01FFA8BF000F048FE43
:103DB0004FEA1B4B601C84B2701BA042E8DC09F187
:103DC00001001FFA80F9A8EB07004845DBDC05B0CD
:103DD000BDE8F08F724E00202DE9F84F05460E46E3
:103DE00090461F462A4800782A4901EBC0004068E7
:103DF00000F103600090B54201DAB84501DBBDE88F
:103E0000F88F2548007840B1701E83B2781E81B2C9
:103E10002A46404600F08AFD07E0781E83B2701EF5
:103E200081B24246284600F081FDC1462CE000BF29
:103E3000C9EB091005EB001B00241EE017480078B1
:103E400090B9204604EBD0714910A4EB410121B98F
:103E50000BEB0400009951F810A01FFA8AF000F053
:103E6000EFFD4FEA1A4A06E00D490C4A127831F884
:103E7000120000F0E5FD601C84B2701BA042DDDC86
:103E800009F101001FFA80F9B945D0DB00BFB6E7A0
:103E900088110020585B0008724E0020100000209E
:103EA0001400002010B54FF48051FE48FDF7E1FDED
:103EB0000A20FCF760FF4FF48051FA48FDF7D7FD68
:103EC0006420FCF758FF4FF48051F648FDF7D1FD10
:103ED0004FF4FA70FCF74FFFF348408947F29371B3
:103EE00088427CD1012000F0A7FD4FF4807000F0E3
:103EF000A7FDFEF7EFF9902000F09EFD4FF4004083
:103F000000F09EFD4FF4806000F096FD4FF4C44039
:103F100000F096FD40F2014000F08EFD002000F020
:103F20008FFD40F2044000F087FD002000F088FD86
:103F3000FF2000F081FD012000F082FD4FF4817030
:103F400000F07AFD4FF4D87000F07AFD4FF4E26093
:103F500000F072FD102000F073FD40F2127000F0CE
:103F60006BFD0F2000F06CFD40F2527000F064FD1C
:103F70002F2000F065FD0220FCF7FDFE4FF460707D
:103F800000F05AFD40F2031000F05AFD40F281307B
:103F900000F052FD45F61B4000F052FD40F2823029
:103FA00000F04AFD40F6013000F04AFD40F2833057
:103FB00000F042FD40F2156000F042FD4FF46170E8
:103FC00000F03AFD40F2111000F03AFD40F2853069
:103FD00000F032FD40F2031000F032FD00E045E059
:103FE00040F2863000F028FD49F6174000F028FD29
:103FF00040F2873000F020FD40F2076000F020FD25
:104000004FF4627000F018FD40F2146000F018FDEB
:1040100040F2893000F010FD40F2111000F010FD68
:1040200040F2027000F008FD572000F009FDFF206B
:1040300000F002FD002000F003FD072000F0FCFC72
:104040004FF4807000F0FCFC0620FCF794FE4FF467
:10405000007000F0F1FC002000F0F2FC40F20120C2
:1040600000F0EAFC002000F0EBFC0DE28E484089F5
:1040700049F2263188427CD140F2027000F0DCFC2B
:1040800043F2080000F0DCFC40F2057000F0D4FCC4
:10409000362000F0D5FC40F20B7000F0CDFC41F270
:1040A000132000F0CDFC012000F0C6FC4FF480701E
:1040B00000F0C6FC022000F0BFFC4FF4807000F05E
:1040C000BFFCFEF707F9902000F0B6FC4FF400406B
:1040D00000F0B6FC082000F0AFFC40F2022000F037
:1040E000AFFC092000F0A8FC002000F0A9FC0C2087
:1040F00000F0A2FC002000F0A3FC0F2000F09CFCCC
:10410000002000F09DFC4FF4807000F095FC002032
:1041100000F096FC4FF4817000F08EFC002000F05F
:104120008FFC40F2031000F087FC002000F088FCB8
:104130001420FCF720FE4FF4807000F07DFC41F26B
:10414000901000F07DFC40F2011000F075FC40F290
:10415000272000F075FC0520FCF70DFE4FF4817060
:1041600000F06AFC9F2000F06BFC0520FCF703FECA
:1041700000E0C9E040F2031000F05EFC4FF4345060
:1041800000F05EFC40F2812000F056FC0E2000F0B2
:1041900057FC0520FCF7EFFD4FF4007000F04CFCDD
:1041A000002000F04DFC40F2012000F045FC002012
:1041B00000F046FC4FF4407000F03EFC002000F0A0
:1041C0003FFC40F2013000F037FC40F2077000F095
:1041D00037FC40F2023000F02FFC40F2066000F0A5
:1041E0002FFC40F2053000F027FC002000F028FCF6
:1041F00040F2063000F020FC4FF4506000F020FC4C
:1042000040F2073000F018FC40F2067000F018FC95
:104210004FF4427000F010FC052000F011FC40F259
:10422000093000F009FC072000F00AFC4FF443704D
:1042300000F002FC002000F003FC40F20D3000F022
:10424000FBFB0A2000F0FCFB4FF4806000F0F4FB65
:104250004FF4445000F0F4FB40F2014000F0ECFB5E
:10426000012000F0EDFB40F2044000F0E5FB0020EF
:1042700000F0E6FB4FF4A06000F0DEFB002000F051
:10428000DFFB40F2015000F0D7FB002000F0D8FB2C
:1042900040F2025000F0D0FB002000F0D1FB40F2D1
:1042A000035003E0000C01408811002000F0C4FB23
:1042B000002000F0C5FB40F2045000F0BDFB0020E0
:1042C00000F0BEFB40F2055000F0B6FB002000F00D
:1042D000B7FB102000F0B0FB102000F0B1FB112064
:1042E00000F0AAFB4FF4C06000F0AAFB202000F011
:1042F000A3FB022000F0A4FB072000F09DFB40F28E
:10430000731000F09DFBBFE0112000F095FB7820BA
:10431000FCF731FD362000F08FFBC02000F090FB51
:104320003A2000F089FB552000F08AFBB22000F013
:1043300083FB0C2000F084FB0C2000F081FB0020AC
:1043400000F07EFB332000F07BFB332000F078FB95
:10435000B72000F071FB462000F072FBBB2000F09C
:104360006BFB1B2000F06CFBC02000F065FB2C20D9
:1043700000F066FBC22000F05FFB012000F060FB54
:10438000C32000F059FB0F2000F05AFBC42000F0BE
:1043900053FB202000F054FBC62000F04DFB0F2003
:1043A00000F04EFBD02000F047FBA42000F048FBBB
:1043B000A12000F045FBD62000F03EFBA12000F03C
:1043C0003FFBE02000F038FBF02000F039FB00203C
:1043D00000F036FB062000F033FB042000F030FB39
:1043E000052000F02DFB052000F02AFB312000F015
:1043F00027FB442000F024FB482000F021FB36205E
:1044000000F01EFB122000F01BFB122000F018FB36
:104410002B2000F015FB342000F012FBE12000F00F
:104420000BFBF02000F00CFB0B2000F009FB0F2031
:1044300000F006FB0F2000F003FB0D2000F000FB56
:10444000262000F0FDFA312000F0FAFA432000F0B7
:10445000F7FA472000F0F4FA382000F0F1FA1420BF
:1044600000F0EEFA142000F0EBFA2C2000F0E8FA4D
:10447000322000F0E5FA212000F0DEFA292000F0D9
:10448000DBFA2C2000F0D8FA10BD00002DE9FF4F18
:1044900089B0894614469B460020029084480078E3
:1044A000844901EBC000406800F10360009082483D
:1044B00000EBCB00407806907F4800EBCB004068D3
:1044C0000490202C00DA2024A4F12000C4B2BBF117
:1044D000080F37D2DFE80BF0050C131A0421282F40
:1044E00000BF764810F8345000EBC400466830E056
:1044F000734810F8345000EBC400466829E0714856
:1045000010F8345000EBC400466822E06E4810F802
:10451000345000EBC40046681BE06C4810F834507F
:1045200000EBC400466814E0694810F8345000EB12
:10453000C40046680DE0674810F8345000EBC40032
:10454000466806E05D4810F8345000EBC400466849
:1045500000BF00BF0698C11700EB5171C1F3CF082F
:1045600005FB08F080B20790049806FB0800049051
:10457000002712E097FBF5F005FB107000FB0881A7
:1045800097FBF5F0401C081A80B203900498C15DB7
:10459000514A03981154781C87B207988742E9DB87
:1045A00006990998084480B2059009EB05001FFAA6
:1045B00080FA4A480078E0B14848808900F5A07048
:1045C0000599884205DC4548808900F5A07080B2D5
:1045D0000590BAF1F00F01DB4FF0F00A0598401E8C
:1045E00083B2AAF1010081B24846099A00F09EF90F
:1045F00013E00598F02801DBF0200590BAF5A07FC4
:1046000001DB4FF4A07AAAF1010083B20598401EA5
:1046100081B24A46099800F089F9002008903EE0EE
:10462000089800FB08F080B2039008984844C0EB5B
:104630000011099800EB011600272AE0039838447E
:104640002549085C0290002007901DE00799029818
:10465000084100F0010018B1169800F0F1F90EE0E1
:104660001F48007818B1179800F0EAF907E00098A1
:1046700050F816100191019988B200F0E1F9761C0A
:104680000798401C80B2079007980828DEDB781C4A
:1046900087B24745D2DB0898401C80B20890AAEB4D
:1046A000090108988142BBDC28460DB0BDE8F08FB7
:1046B00088110020585B00083C5201080C090108D1
:1046C000EC2D01085C360108444F0108CCD10008EC
:1046D000E0F90008505B000898010020724E0020AD
:1046E000100000202DE9FF4F87B00E466B48007880
:1046F0006B4901EBC000406800F10360009069491C
:104700000A9831F830900A9801EBC0004088049074
:104710000A9801EBC000406803900498C11700EBB1
:1047200051714FEAE10A09FB0AF085B2099A517802
:1047300010782A46FCF706FE039908440390039874
:1047400000F10360039000241FE0E11704EB917176
:104750008910A4EB810111B903980059019094FBD1
:10476000F9F009FB104000FB0AA194FBF9F0401C92
:10477000081A80B206900198C1B24B4A06981154AB
:104780000198000A0190601C84B2AC42DDDB049900
:10479000079808441FFA80FB06EB090087B24348DC
:1047A0000078C0B14148808900F5A070584505DC0B
:1047B0003E48808900F5A0701FFA80FBF02F00DBD7
:1047C000F027ABF1010083B2781E81B23046079A20
:1047D00000F0ACF812E0BBF1F00F01DB4FF0F00B92
:1047E000B7F5A07F01DB4FF4A077781E83B2ABF161
:1047F000010081B23246079800F098F84FF00008A7
:1048000045E008FB0AF080B2069006EB0800C0EB1A
:104810000011079800EB01100290002431E0069887
:1048200020442149085C0590002526E00598284190
:1048300000F0010018B1149800F002F915E01C48CE
:10484000007818B1159800F0FBF80EE00099029876
:1048500051F81000019005F0010010B10198000C12
:104860000190019988B200F0EBF805F0010010B159
:104870000298401C0290681C85B2082DD6DB601C93
:1048800084B25445CBDB08F101001FFA80F8B81B55
:104890004045B6DC48460BB0BDE8F08F88110020DB
:1048A000585B0008BC5C000898010020724E002094
:1048B000100000202DE9FE4F06460F46144698468C
:1048C000DDE90D9A3D4602964FF0000B27E0207877
:1048D00000B926E0207880280DDACDE9009A227808
:1048E00029460C9B0298FFF7D1FD284485B2B5F507
:1048F000A07F0FDB15E0CDE9009A224629460C9BEC
:104900000298FFF7EFFE284485B2B5F5A07F00DBE3
:1049100007E0641C641C0BF101001FFA80FBC34517
:10492000D5DB00BF2846BDE8FE8F000030B5054648
:104930000C463F48408949F22631884205D03C4820
:10494000408947F2937188422ED14FF4047000F0F1
:1049500073F8284600F074F840F2112000F06CF86B
:10496000204600F06DF840F2122000F065F8104685
:1049700000F066F840F2132000F05EF8184600F0F0
:104980005FF84FF4007000F057F8002000F058F87E
:1049900040F2012000F050F8002000F051F840F201
:1049A000022000F049F842E022480078F0B12A20C5
:1049B00000F042F8101200F043F8D0B200F040F8D6
:1049C000181200F03DF8D8B200F03AF82B2000F0B1
:1049D00033F8281200F034F8E8B200F031F8201271
:1049E00000F02EF8E0B200F02BF81DE02A2000F0D5
:1049F00023F8281200F024F8E8B200F021F8201281
:104A000000F01EF8E0B200F01BF82B2000F014F8C4
:104A1000101200F015F8D0B200F012F8181200F0E1
:104A20000FF8D8B200F00CF82C2000F005F830BDDB
:104A300088110020724E00204FF0C041088070475E
:104A400001490880704700000000026010B5322064
:104A5000FCF791F9FFF726FA0020FCF747FAA020AF
:104A6000FCF789F94FF400510148FDF700F810BD3B
:104A7000000C014008B54FF40050ADF800001020C4
:104A80008DF8030002208DF8020069463348FCF7D8
:104A9000A1FC4FF68070ADF8000018208DF80300DF
:104AA00002208DF8020069462D48FCF793FC4CF279
:104AB0000370ADF8000018208DF8030002208DF877
:104AC000020069462748FCF785FC4FF48050ADF89A
:104AD000000010208DF8030002208DF802006946C6
:104AE0001E48FCF777FC4FF40060ADF8000018207A
:104AF0008DF8030002208DF8020069461948FCF782
:104B000069FC8020ADF8000018208DF80300022019
:104B10008DF8020069461348FCF75CFC2020ADF8D4
:104B2000000018208DF8030002208DF8020069466D
:104B30000C48FCF74FFC1020ADF8000018208DF851
:104B4000030002208DF8020069460648FCF742FC8B
:104B50004FF400510148FCF78CFF08BD000C0140E8
:104B600000180140001401401FB5124800681249A6
:104B7000B0FBF1F0401E84B2684600F059F94FF4E2
:104B80007A700290ADF800400020ADF80C00019062
:104B900069460A4800F01EF90121084800F0F0F8C3
:104BA00001221146054800F00BF90121034800F0ED
:104BB000EAF81FBD8401002040420F0000040040BD
:104BC00008B51D208DF8000001208DF8010000209F
:104BD0008DF8020001208DF803006846FDF788FD7E
:104BE00008BD000010B50121594800F0D8F8002890
:104BF0007ED00121564800F0C3F856480068401C9A
:104C00005449086008468068401C886008468068EF
:104C1000B0F57A7F0DD350488078012802D14F48F3
:104C2000FEF7AEFB00204B49886008468089401C97
:104C30008881484880893C2804DB002045498881D8
:104C40000120C881464890F83300A8B1444890F844
:104C5000341190F83401401E414A82F8340159B9A8
:104C60000120114681F83501FCF76AF800203C4923
:104C700081F8350181F833003A48407BA8B13948C2
:104C8000407B401E3749487337484078022816D089
:104C90000846407B052190FBF1F201FB120070B940
:104CA000012030490871487109E02F4840780228F6
:104CB00005D01F202B494873012008718871FDF72A
:104CC00089FA2A48C08820B12848C088401E274950
:104CD000C8802748408920B125484089401E244982
:104CE00048812448C08830B12248C088401E00E076
:104CF0002DE02049C88017498888411E154A9180B7
:104D000018BB4FF47A701146888020211A48FCF7AE
:104D1000AEFE80211948FCF7AAFE08211748FCF7CF
:104D2000A6FE10211448FCF7A2FE1148C07920B15C
:104D30000F48C079401E0E49C8710D48808920B1C6
:104D40000B488089401E0A498881FBF7B5FD10BDDC
:104D500000040040984E002031010020A4110020E2
:104D60000E10002046110020881100201E01002096
:104D700094110020B41300200010014000080140ED
:104D8000CA430282704721B1028842F001020280C8
:104D900004E002884FF6FE731A400280704730B577
:104DA0000246002000230024158A05EA01039589A4
:104DB00005EA010413B10CB1012000E0002030BD70
:104DC0001AB183890B43838102E083898B438381FA
:104DD0007047000000220288104B98420ED0B0F1BC
:104DE000804F0BD00E4B984208D00E4B984205D006
:104DF0000D4B984202D00D4B984205D14FF68F7360
:104E00001A408B8813439AB202808B68C3620B8866
:104E100003858B7B0386012383827047002C01402E
:104E2000003401400004004000080040000C004035
:104E30004FF6FF71816000210180818141608173A3
:104E400070474FF47A72B0FBF2F302FB1302642353
:104E5000B2FBF3F230320A706422B0FBF2F302FBD1
:104E600013020A23B2FBF3F230324A700A22B0FB7B
:104E7000F2F302FB13023032CA702E228A7070479E
:104E800010B500F0FBF800F069F810BD10B540F265
:104E900025511D4800F0A3F818B31B4800F08CF909
:104EA000C4B240F22551184800F042F8174890F873
:104EB0003300FF281CDC154890F83501012817D075
:104EC000124890F8331090F83300401C0F4A82F8D3
:104ED000330002F1340044540420114681F83401B7
:104EE00006E00A48B0F83601401C0849A1F836012E
:104EF00040F22771044800F072F820B140F22771A7
:104F0000014800F015F810BD003801400E100020D7
:104F100008B525208DF8000000208DF801008DF8DF
:104F2000020001208DF803006846FDF7E1FB08BD93
:104F300001F40072B2F5007F00D100BFCA430280C5
:104F4000704721B1828942F40052828104E0828953
:104F50004DF6FF731A408281704700001FB5012192
:104F60000420FDF7ADFF01218803FDF7A9FF684686
:104F700000F07EF94FF4164000904FF48050ADF8E9
:104F800004000020ADF80600ADF80800ADF80C00F4
:104F90000C20ADF80A006946094800F0A1F801228A
:104FA00040F22551064800F044F8002240F22771F3
:104FB000034800F03EF801210148FFF7C2FF1FBD82
:104FC0000038014002460020B1F5007F00D100BF4B
:104FD00013880B400BB1012000E00020704770B532
:104FE0000246002400230025002040F66A16B14244
:104FF00000D100BFC1F3421501F01F03012606FADC
:1050000003F3012D02D19689334006E0022D02D12F
:10501000168A334001E0968A33400C12012606FAC4
:1050200004F41688344013B10CB1012000E00020D4
:1050300070BDF0B50346002400260025002040F690
:105040006A17B94200D100BF1846C1F3421401F0FB
:105050001F06012707FA06F5012C01D10C3004E0E8
:10506000022C01D1103000E014301AB107682F4330
:10507000076002E00768AF430760F0BD08B54FF472
:105080000070ADF8000002208DF8020010208DF8AD
:10509000030069461048FCF79DF94FF40070ADF825
:1050A000000002208DF8020018208DF803006946E8
:1050B0000A48FCF78FF94FF48060ADF80000042037
:1050C0008DF8030069460548FCF784F94FF4007138
:1050D0000148FCF7CCFC08BD00100140000801406D
:1050E0002DE9F04786B005460E460024A24600BFD3
:1050F000A1460027B08900B100BF2F462C8A4CF68C
:10510000FF700440F08804432C82AC894EF6F31003
:105110000440B08831890843718908430443AC8155
:10512000AC8A4FF6FF400440B0890443AC8201A82A
:10513000FDF7ECFE1F48874202D1DDF810A001E028
:10514000DDF80CA0A88900F4004040B10AEBCA00C9
:1051500000EB0A1031684900B0FBF1F807E00AEBF8
:10516000CA0000EB0A1031688900B0FBF1F8642036
:10517000B8FBF0F004012009642101FB1089A88923
:1051800000F4004040B1322000EBC900B0FBF1F068
:1051900000F00700044308E0322000EB091064210E
:1051A000B0FBF1F000F00F0004432C8106B0BDE825
:1051B000F08700000038014001468888C0F30800ED
:1051C000704700002DE9F04105460E46174625B907
:1051D0004FF400710A48FCF74CFC002405E0315DF7
:1051E000284600F00FF8601CC4B2BC42F7DB25B9BA
:1051F0004FF400710248FCF73AFCBDE8F081000072
:105200000010014070B504460D465CB929461348AC
:1052100000F02AF800BF40211048FFF7D3FE002815
:10522000F9D01AE0012C0BD129460D4800F01CF8EA
:1052300000BF40210A48FFF7C5FE0028F9D00CE066
:10524000022C0AD12946074800F00EF800BF402181
:105250000448FFF7B7FE0028F9D070BD00380140C0
:105260000044004000480040C1F3080282807047BB
:105270004FF41651016000218180C18001810C2111
:10528000418100218181704700BFFEE751B182005A
:10529000A2F1C042126842F001038200A2F1C042B2
:1052A000136009E08200A2F1C0421268034B1A4069
:1052B0008300A3F1C0431A6070470000FEFF0F0097
:1052C000D0E901121143C2681143026911434269D6
:1052D000114382691143C2691143026A1143426A50
:1052E0001143826A1143C26A1143026B114302687F
:1052F0009200A2F1C0421160816808290BD10168B7
:105300008900A1F1C041096841F0400201688900AB
:10531000A1F1C0410A60416B0968426B526841EAE1
:105320000211426B926841EA0221426B928941EA82
:105330000241426B128A41EA0251426B127D41EAFC
:105340000261426B926911430268521C9200A2F101
:10535000C0421160C16AB1F5804F1BD1816B0968F1
:10536000826B526841EA0211826B926841EA022123
:10537000826B128A41EA0251826B127D41EA02611C
:10538000826B9269114302689200A2F1C042C2F896
:10539000041107E06FF0704201688900A1F1C0417B
:1053A000C1F80421704700B59DB001210802FDF746
:1053B00067FD02200090002001901E200290002036
:1053C000039004900590069002200790002008901A
:1053D0000320099000200A900B900C900D900E90E5
:1053E0001020119000200F901090139012901590A3
:1053F00018904FF48050179080001990002016905C
:1054000014901A9007A81C90CDF86CD00EA8FFF746
:1054100057FF01210020FFF739FF1DB000BD02E05A
:1054200008C8121F08C1002AFAD17047704700202F
:1054300001E001C1121F002AFBD170470848094949
:10544000097800EB810080ED000A06480078401CD6
:105450000A2190FBF1F201FB12000249087070472B
:10546000A84E00207401002010B5194800780128CA
:1054700016D118484078C01C00EE100AB8EEC00AD9
:105480001548D0ED000AB4EEE00AF1EE10FA07D2AA
:1054900080211248FCF7EDFA00200D49087015E054
:1054A0000C484078401C00EE100AB8EEC00A0A48CA
:1054B000D0ED000AB4EEE00AF1EE10FA06DD80212C
:1054C0000648FCF7D4FA01200149087010BD00001D
:1054D0007D010020FA0F00200C0000200008014090
:1054E0002DE9F8430746884600260F25B8F1000F3E
:1054F00017D135483549098820F81170334800889C
:10550000401C1E2190FBF1F201FB12002F49088084
:105510002F4800681E2804DA2D480068401C2C49DA
:1055200008602A480688002447E0294800681E28A9
:1055300016DA254830F8140026494978884202DCFA
:105540004FF4FC6901E04FF6E0791F48CDF8009078
:1055500030F8143005221721284600F0A5F824E081
:10556000194830F816001B494978884202DC4FF48C
:10557000FC6901E04FF6E079A81D83B22A46542168
:105580001720FEF729FC1048CDF8009030F81630AF
:1055900005221721284600F087F8701C86B21E20CD
:1055A00096FBF0F100FB116086B2B5F5967F02DA4A
:1055B00005F1090085B2601CC4B205480068844248
:1055C000B3DBBDE8F8830000B20900201801002019
:1055D00014010020FA0F00209FED280AF0EE400A87
:1055E0009FED260AF0EE401A9FED240AB0EE402A05
:1055F0009FED220AB0EE403A002021E004EE100AAE
:10560000B8EEC44AB0EE440A1D4901EB800191EDA9
:10561000004AF0EE443A30EE804AF0EE440A31EEB1
:10562000A34AF0EE441AB0EE424A00EE234AB0EE2E
:10563000442AB0EE434A00EE004AB0EE443A401C21
:105640000A28DBDBB2EE040A23EE000AB0EE401AB1
:1056500000EEE01AB5EEC01AF1EE10FA02D19FED9D
:10566000070A7047B2EE040A22EE000A00EEE10AD1
:10567000C0EE012AB0EE620AF3E70000000000006D
:10568000A84E002006480078012802D1054948703C
:1056900003E000200349487000BF00BF70470000CE
:1056A0007C0100201C0100202DE9F04305460E4638
:1056B00017461C46DDF81C904FF000081E2C00DD3C
:1056C0001E24E81983B206EB440081B22A46304614
:1056D000FFF72CF94FF0000806E04846FFF7B0F955
:1056E00008F101001FFA80F8012000EB4400791C4A
:1056F00048434045F1DCBDE8F083000070B5054645
:1057000007482E18002408E03046FBF7E5FD054960
:1057100021F81400B61C601C84B2FF2CF4DD70BDAF
:1057200000F80308F84E002070B505460B482E1807
:10573000FBF7D6FD3046FBF7E5FC002408E00848FF
:1057400030F814103046FBF775FDB61C601C84B2AF
:10575000FF2CF4DDFBF764FD70BD000000F80308CA
:10576000F850002010B50446012C04D14021044813
:10577000FCF77DF903E040210148FCF77AF910BD00
:1057800000080140FEEE000AB4EEE00AF1EE10FA65
:1057900001D800207047DFED0E0AB4EEE00AF1EE0A
:1057A00010FA01D80120F5E7F6EE000AB4EEE00A9F
:1057B000F1EE10FA01DB0220ECE7DFED060AB4EEB1
:1057C000E00AF1EE10FA01DB0320E3E70420E1E751
:1057D000CDCCCCBDCDCCCC3D38B500245020FCF791
:1057E0009DFC14B9FCF7A0FC04462CB90022012151
:1057F0006846FCF767FC0446BDF80000001238BD9F
:1058000010B50446082C60D2DFE804F05F04111ED6
:105810002B38455220213448FCF729F91021324811
:10582000FCF725F980213148FCF723F95AE0802163
:105830002E48FCF71CF910212B48FCF718F9202101
:105840002948FCF716F94DE080212848FCF70FF9AC
:1058500020212548FCF70BF910212348FCF709F912
:1058600040E010212048FCF702F980211F48FCF796
:1058700000F920211C48FCF7FCF833E020211A48ED
:10588000FCF7F5F880211948FCF7F3F810211648C9
:10589000FCF7EFF826E080211448FCF7E8F8202117
:1058A0001148FCF7E6F810210F48FCF7E2F819E080
:1058B00080210E48FCF7DDF820210B48FCF7D9F8D1
:1058C00010210948FCF7D5F80CE080210748FCF7C7
:1058D000CEF820210448FCF7CAF810210248FCF752
:1058E000C6F800BF00BF10BD001001400008014015
:1058F000FAF7E6FDFEF7AAF9FDF758FC0120064984
:1059000088700020C870FCF787FD03E0FCF784FD79
:10591000FFF7B8FEFAE700003101002010B5044699
:10592000012C04D110210448FCF7A1F803E0102158
:105930000148FCF79EF810BD0008014010B5044670
:10594000012C04D120210448FCF791F803E0202128
:105950000148FCF78EF810BD000801400021234AE1
:105960001170D170224A1170204A51709170214AF1
:10597000117291711D4A117100202FE00022C0EBBD
:10598000C00101EB81031949891D01EB83018A7173
:10599000C0EBC00101EB81031449891D01EB8301B8
:1059A0008A80C0EBC00101EB81031149891D01EB25
:1059B00083018A71C0EBC00101EB81030C49891D91
:1059C00001EB83018A80C0EBC00101EB8103084930
:1059D000891D01EB8301CA71411CC8B20228CDDBCD
:1059E0000021054A5170034AD17170470E0B002007
:1059F000F0090020EE0F002094110020C50098004F
:105A00006B003E00110072012C01E600A0005A005C
:105A1000C50098006B003E0011004F010901C30052
:105A20007D0037000C000C00E1000C004001F0008C
:105A3000E100F0000000B0100000EF0000008F0156
:105A40000000010098100000EF0000008F0100002E
:105A50000001B0100000EF0000008F010000010104
:105A600098100000EF0000008F0100000002B0104D
:105A70000000EF0000008F010000010298100000FC
:105A8000EF0000008F010000000048000000EF0060
:105A900000008F0100000100E8002000AF010000BD
:105AA000EF002000000148000000EF0000008F011F
:105AB00000000101E8002000AF010000EF0020001D
:105AC000000248000000EF0000008F01000001020A
:105AD000E8002000AF010000EF002000FFFFDBDE48
