:020000040800F2
:100000006854002059010008DD1E0008031500088F
:10001000D91E0008FD040008794D0008000000000A
:10002000000000000000000000000000692E000831
:100030008109000800000000FD240008B933000811
:1000400073010008730100087301000873010008C0
:100050007301000873010008D90B00087301000840
:1000600073010008730100087301000873010008A0
:100070007301000873010008730100087301000890
:100080007301000873010008730100087301000880
:100090007301000873010008730100087301000870
:1000A0007301000873010008730100087301000860
:1000B00073010008F1430008730100087301000890
:1000C0007301000873010008730100087301000840
:1000D000730100087D4900087301000873010008DE
:1000E0007301000873010008730100087301000820
:1000F0007301000873010008730100087301000810
:1001000073010008730100087301000873010008FF
:1001100073010008730100087301000873010008EF
:1001200073010008730100087301000873010008DF
:1001300073010008730100087301000873010008CF
:10014000DFF810D000F01AF80048004741530008CB
:10015000AFF30080685400200648804706480047F7
:10016000FEE7FEE7FEE7FEE7FEE7FEE7FEE7FEE767
:10017000FEE7FEE7D533000841010008064C074DB5
:1001800006E0E06840F0010394E807009847103467
:10019000AC42F6D3FFF7D8FFF81E0308181F030878
:1001A00070B58C1810F8015B15F0070301D110F839
:1001B000013B2A1106D110F8012B03E010F8016B66
:1001C00001F8016B5B1EF9D12B0705D40023521EE9
:1001D0000DD401F8013BFAE710F8013BCB1A921C51
:1001E00003E013F8015B01F8015B521EF9D5A1424F
:1001F000D8D3002070BD000070B50E4805780E48B9
:10020000057003200C4948700020887003210A48BB
:1002100000F076F904460849CC70201208710520D8
:1002200081F83200084690F83220002004F042FDA8
:1002300070BD0000D60F0020EA0F00202DE9F05F0E
:100240002C4807782C4890ED010AF2EE040A20EEC3
:10025000200ABCEEC00A10EE100A84B22046E11754
:1002600004EB1161C1F30728E11704EB11610912D6
:10027000A4EB012101F0FF091F4890ED000AF2EE06
:10028000040A20EE200ABCEEC00A10EE100A85B265
:100290002846E91705EB1161C1F3072AE91705EBB9
:1002A00011610912A5EB012101F0FF0B1348077042
:1002B00003201249487004208870084680F80380A3
:1002C00080F8049080F805A080F806B0072100F0BF
:1002D00017F906460949CE7130120872092081F8D3
:1002E0003200084690F83220002004F0E3FCBDE81C
:1002F000F09F0000D60F002080110020EA0F0020A0
:1003000010B5044890F8332000F13401002004F0C7
:10031000D1FC10BDEA0F00202DE9F0418046B8F174
:10032000000F05D14FF6FF7542F2041637460DE077
:10033000B8F1010F05D142F204154FF6FF762F46B2
:1003400004E042F204152E464FF6FF774FF49B73FC
:10035000E0223C21084603F0EFFE002404E028469A
:1003600003F074FF601CC4B2552CF8DBE0231A467E
:1003700094213C2003F0E0FE002404E0284603F032
:1003800065FF601CC4B2582CF8DB4FF49B73E0226D
:100390009421084603F0D0FE002404E0284603F030
:1003A00055FF601CC4B2552CF8DB4FF49B731A4602
:1003B00094213C2003F0C0FE002404E0284603F012
:1003C00045FF601CC4B2582CF8DBCC2375223C21BD
:1003D000084603F0B1FE002404E0304603F036FF87
:1003E000601CC4B2572CF8DB75231A4694213C20BC
:1003F00003F0A2FE002404E0304603F027FF601C57
:10040000C4B2582CF8DBCC2375229421084603F0A3
:1004100093FE002404E0304603F018FF601CC4B2D1
:10042000572CF8DBCC231A4694213C2003F084FEA1
:10043000002404E0304603F009FF601CC4B2582CCD
:10044000F8DB61230A223C21084603F075FE0024F4
:1004500004E0384603F0FAFE601CC4B2572CF8DB07
:100460000A231A4694213C2003F066FE002404E08F
:10047000384603F0EBFE601CC4B2582CF8DB612355
:100480000A229421084603F057FE002404E038466F
:1004900003F0DCFE601CC4B2572CF8DB61231A4663
:1004A00094213C2003F048FE002404E0384603F089
:1004B000CDFE601CC4B2582CF8DBBDE8F08170475B
:1004C00010B502F0EDF803F0DBFE01F04DFCFFF794
:1004D000F6FF01F067FA04F0E4FC02F071FC02F0B0
:1004E00013FA04F045FA03F045FF01F0F8FC00F0C0
:1004F0004BFB01F0D9F901F0D1FC10BD00BFFEE7C4
:1005000070B502460C46FF25FF2309E012F8010BE7
:1005100080EA03010648405C80EA05030548455C23
:10052000201EA4F10106B4B2F0D143EA052070BD4B
:10053000DE1C0308DE1D030810B501460F4BD878FA
:100540001A7941B1431CDBB218460D4CA45CA3429E
:100550000ADB002008E0031EA0F10104E0B203D191
:10056000074B9B5C5B1ED8B2044BD8700A23034C2C
:10057000E3710123034C637010BD00007011002073
:10058000D91C03086411002070B505460D48047994
:10059000601CC0B20446052800DB002401200A4983
:1005A0000870084804710A200649C8710749085DA7
:1005B00002F0ECFC01200649887000200549887093
:1005C00070BD0000701100201B010020D41C030826
:1005D00064110020250100202DE9F14F86B0AC48C0
:1005E0000079AC4911F80090A9F10400052878D2EF
:1005F000DFE800F0035678A0C9000925A648007876
:1006000006460290642096FBF0F0C0B28DF806001A
:10061000642096FBF0F100FB1160C0B20646039027
:100620000A2096FBF0F0C0B28DF805000A2096FB78
:10063000F0F100FB1160C0B2064604908DF8046032
:100640009348C078022802DD02209149C870904882
:10065000C078022804D102250398C830029013E024
:100660009DF8060002280FDB8948C078012804D1D4
:1006700004250498F030029006E09DF80500042857
:1006800002DB0725F72002904FF0000B0298F728B5
:1006900001DD681EC5B27E48C07801A947188FE009
:1006A00009257D484478A04644460A2098FBF0F18D
:1006B00000FB1140C0B28DF804000A2098FBF0F056
:1006C000C0B28DF805007248C078012802DD012013
:1006D0006F49C8704FF0000B6D48C07801A94718EA
:1006E0006EE06CE009256C488478A04644460A20F8
:1006F00098FBF0F100FB1140C0B28DF804000A2015
:1007000098FBF0F0C0B28DF805006148C078012870
:1007100002DD01205E49C8705D48C078012800D123
:1007200001254FF0000B5A48C07801A9471804F082
:1007300003FC45E009255848C47805940A20059C27
:1007400094FBF0F100FB1140C0B28DF804000A20C8
:10075000059C94FBF0F0C0B28DF805004C48C078C1
:10076000012802DD01204A49C8704948C0780128A3
:1007700000D101254FF0000B4548C07801A947186A
:1007800004F0DAFB1CE00125434804790594007964
:100790008DF804003E48C078012802DD01203C4964
:1007A000C8703B48C078012800D101254FF0000BEC
:1007B0003748C07801A9471804F0BEFB00E000BF2D
:1007C00000BF97F800A0069820B10AF1010000F0E0
:1007D000FF0A03E0AAF1010000F0FF0AAA4505DDC7
:1007E000069810B14FF0000A00E0AA4687F800A072
:1007F000B9F1040F13D19DF80600642110FB01F03C
:100800009DF8051001EB810100EB41009DF80410FB
:100810000844C6B2F72E00DDF7261F480670B9F16E
:10082000050F09D19DF804009DF8051001EB810129
:1008300000EB410018494870B9F1060F09D19DF845
:1008400004009DF8051001EB810100EB4100124905
:100850008870B9F1070F09D19DF804009DF80510C3
:1008600001EB810100EB41000B49C870B9F1080FA1
:1008700003D19DF8040008490871002004498870DC
:100880000A20C87101200549487007B0BDE8F08F03
:1008900070110020D41C0308E00F00206411002018
:1008A000002019E01649095C164A125C914203DDEA
:1008B0001549095C124A11541149095C124A125C2B
:1008C000914203DA1049095C0D4A11540C49095C44
:1008D0000E4A1154411CC8B20528E3DB0849497986
:1008E00001F00F01072905DD0549497901F0F00103
:1008F000034A517102494979044A51717047000015
:10090000D60F0020DE1E0308E31E0308E00F0020C0
:1009100070B5002413E04FF6FF7000EA44260A4940
:10092000701800F0DFFA054642F22830854203DBFA
:100930004FF6FF70854200D103E0601C84B20A2CA0
:10094000E9DB00BF304670BD00F8030810B5094868
:100950000078012803D00848C07A012800D110BDD2
:10096000064890F83300062800DAF8E700F022F88D
:1009700000BFF4E71B01002022110020EA0F002035
:10098000704700B5034603E04FF47A7000F005F8B5
:10099000181EA3F10103F7D100BD07E0002101E01B
:1009A0004A1C91B21529FBDB421E90B20028F5DCEF
:1009B0007047000070B54B4804784B4890F83300FE
:1009C000801E81B248483430FFF79AFD06464648FB
:1009D00090F83300801E444934310D5C424890F851
:1009E0003300401E085C05EB002085B23E4890F8BD
:1009F000340050BB3C4890F83500062825D13A48D1
:100A000090F83300082820D1374890F8370010B903
:100A100001F06CFF65E0344890F83700012860D1A0
:100A20003248007A02285CD00120304908722E48F2
:100A300090F839002E49087001202C4988722D4900
:100A40000871042002F0A2FA4BE0274890F8340025
:100A5000A04246D1F4B3244890F83500032802D0D0
:100A600006283ED112E0204890F8380030B91E48E0
:100A700090F83900012801D1FFF7BEFB1A4890F821
:100A800039000E2801D1FFF7D9FB00BF164890F8B6
:100A90003700C12825D1FFF733FC134890F83910EF
:100AA00090F8380001EB002000EE100AB8EEC00A02
:100AB000F2EE040A80EE201ABCEEC10A10EE100A13
:100AC0000B4948700846407863280ADA084640789F
:100AD000044900E005E0487002F0C8F9052002F082
:100AE00055FA70BDD60F0020EA0F0020CA0F002073
:100AF000E00F00202501002070B506460D488089D2
:100B000000F23F1083B20B488289EF21002003F0EE
:100B100013FB00240AE0002504E0304603F096FBB6
:100B2000681C85B2F02DF8DB601C84B2B4F5A07FA0
:100B3000F1DB70BD4A4C002010B500200849C87296
:100B400008490870C870487088700549C8710872F3
:100B50000449087102F01AFA01F04CF910BD0000C6
:100B6000221100201B01002008B506208DF800008E
:100B700000208DF801008DF8020001208DF803009F
:100B8000684601F0B9F908BD0EB50120ADF80800BE
:100B900002208DF80A0028208DF80B0002A90D48CC
:100BA00000F01EFA0121084601F06AFD0021084606
:100BB00000F0F6F90120009000208DF804001020CC
:100BC0008DF8050001208DF80600684600F02EF82B
:100BD0000EBD00000008014010B5012000F012F821
:100BE00030B1012000F008F804F01EFB0149087044
:100BF00010BD00001A010020014908607047000084
:100C000014040140014600200022074B1B6803EA40
:100C10000102054B14331B680B4013B10AB10120CC
:100C200000E000207047000000040140002123493B
:100C30008279002A3AD00A46126803689A430B4622
:100C40001A600A1D126803689A430B1D1A60027924
:100C500011440A6803681A430A60184A0832126885
:100C600003689A43154B08331A601A1D126803680B
:100C70009A43124B0C331A604279102A0ED11A1F74
:100C8000126803681A430D4B08331A601A1D126864
:100C900003681A43094B0C331A600DE00749427987
:100CA00011440A6803681A430A6005E00279114496
:100CB0000A6803689A430A60704700000004014014
:100CC00010B501200D498870C87000200871FFF729
:100CD00033FF00200A4988720A48C07900B910BD64
:100CE000002405E00848005D08490855601CC4B2AE
:100CF000052CF7DB02F0BAF800BFF0E72501002071
:100D0000CA0F002070110020E00F0020D60F002035
:100D100030B504460425B4F1046F24D3681F00F0F5
:100D200004F90546042D1CD12448006840F0020057
:100D300022499039C1F890000846C0F89440D0F894
:100D4000900040F040001D490860681F00F0EDF879
:100D500005461A489038D0F8900020F00200174954
:100D60000860284630BD164800684FF0006101EB6E
:100D70008020401EA0421FD3480000F0C3F8054663
:100D8000042D19D10D489038006940F002000B493C
:100D90009039086108464461006940F040000861EC
:100DA000C80300F0AFF8054604489038006920F009
:100DB00002000249903908612846D3E7902002409A
:100DC000E0F7FF1F04200B49C96801F0010109B1D8
:100DD00001200EE00749C96801F0040109B10220B1
:100DE00007E00449C96801F0100109B1032000E0DF
:100DF000042070470020024004200B49096801F0DC
:100E0000010109B101200EE00749096801F0040160
:100E100009B1022007E00449096801F0100109B195
:100E2000032000E0042070478C2002400348006942
:100E300040F0800001490861704700000020024036
:100E400070B504460D460426B4F1046F1ED34FF46A
:100E5000704000F06AF80646042E15D11F4800685D
:100E600040F001001D49086025804FF4704000F0FB
:100E70005CF8064619489038D0F8900020F0010040
:100E800016499039C1F89000304670BD144800688A
:100E90004FF0006101EB8020401EA0421CD34FF4B4
:100EA000704000F02FF80646042E15D10B489038FC
:100EB000006940F0010009499039086125804FF42C
:100EC000704000F01FF8064604489038006920F092
:100ED00001000249903908613046D6E7902002406F
:100EE000E0F7FF1F014608887047000002480349E9
:100EF000486003484860704723016745002002406E
:100F0000AB89EFCD00B502460423FFF75BFF034634
:100F100003E0FFF757FF0346521E012B01D1002AC1
:100F2000F7D102B90523184600BD00B502460423D7
:100F3000FFF762FF034603E0FFF75EFF0346521E22
:100F4000012B01D1002AF7D102B90523184600BDB3
:100F500030B50346A12921DBA12B0DDBA92B0BDC2E
:100F6000A1F1A100A3F1A104C4EB041505EB441405
:100F700000EB4400504330BDB02B0FDBF72B0DDCF2
:100F8000A1F1A100A3F1B004C4EB041505EB4414D6
:100F900000EB440000F24E305043ECE70020EAE75B
:100FA00030B500228B071C0F0F2303FA04F20B4B02
:100FB0008C1053F824309343084C8D1044F825309E
:100FC00023468C1053F824308C07240F00FA04F4C5
:100FD0002343024C8D1044F8253030BD08000140F9
:100FE0002DE9F041024600250026002000230024C0
:100FF000002791F803C00CF00F0591F803C00CF026
:10100000100CBCF1000F03D091F802C04CEA0505AA
:1010100091F800C0BCF1000F31D0146800202BE023
:101020004FF0010C0CFA00F3B1F800C00CEA030613
:101030009E4220D183004FF00F0C0CFA03F7BC4303
:1010400005FA03FC4CEA040491F803C0BCF1280F34
:1010500006D14FF0010C0CFA00FCC2F814C00AE0F3
:1010600091F803C0BCF1480F05D14FF0010C0CFA08
:1010700000FCC2F810C0401C0828D1D31460B1F89D
:1010800000C0BCF1FF0F34DD546800202EE000F1F9
:10109000080C4FF0010808FA0CF3B1F800C00CEA94
:1010A00003069E4221D183004FF00F0C0CFA03F788
:1010B000BC4305FA03FC4CEA040491F803C0BCF1FC
:1010C000280F05D100F1080C08FA0CF8C2F81480BA
:1010D00091F803C0BCF1480F07D100F1080C4FF0A4
:1010E000010808FA0CF8C2F81080401C0828CED37A
:1010F0005460BDE8F081000010B5B0F5003F7AD033
:1011000037DCB0F5807F77D015DC082875D009DC96
:10111000B0F1004F72D0012871D0022875D0042898
:101120006FD173E010286DD030286CD040286BD080
:10113000C028F5D1D5E0B0F5805F6DD00CDCB0F5FE
:10114000007F77D0B0F5407F75D0B0F5006F73D0D9
:10115000B0F5406FE4D10AE1B0F5804F6DD0B0F545
:10116000C04F6BD0B0F5004F51D0B0F5803FD7D114
:101170004EE0D44BC21A98426FD01DDCB0F1007F14
:101180006CD00CDCB0F5802F44D0B0F5002F44D0EB
:10119000B0F5801F42D0B0F1807FC1D111E1B0F134
:1011A000806F78D06FF080420244002A74D01F2AEA
:1011B00073D03F2AB4D12FE1C34C131BA2426DD090
:1011C0000CDC802A6BD0B2F5C07F69D0B2F5607FAD
:1011D00067D0BE4B1A44002AA2D133E1B3F5802F69
:1011E0007CD0B3F5402F7AD0B3F5A01F78D0B3F5FB
:1011F000E01F95D128E10CE081E00CE02FE01EE03B
:1012000003E05CE139E04DE05AE000BF00BF00BF01
:1012100000BF00BF00BF00BF00BF00BFAC4A5268A4
:101220008243AB4B5A60012903D11A4652680243EC
:101230005A6045E171E07EE08BE0A6E0B3E0A44AAD
:101240005268A44B1A40A24B5A60012904D11A4695
:10125000526842F001025A6032E1DEE0BFE09C4A8F
:1012600052689C4B1A409A4B5A60012904D11A4685
:10127000526842F000425A6022E1954A526822F0D8
:101280003002934B5A60012904D11A46526842F049
:1012900010025A6014E1B0E0BDE0D1E0D3E0BDE05F
:1012A000BDE0CEE08A4A526822F03002884B5A6094
:1012B000012904D11A46526842F030025A60FFE018
:1012C000834A526822F0C002814B5A60012904D13E
:1012D0001A46526842F040025A60F1E0C5E0D2E09E
:1012E000DFE07B4A526822F0C002794B5A60012944
:1012F00004D11A46526842F0C0025A60E0E0744AD3
:10130000526822F44072724B5A60012904D11A4685
:10131000526842F480725A60D2E06D4A526822F4F8
:1013200040726B4B5A60012904D11A46526842F44C
:1013300000725A60C4E0664A526822F44072644BFC
:101340005A60012904D11A46526842F440725A6028
:10135000B6E05F4A526822F440625D4B5A60012950
:1013600004D11A46526842F400625A60A8E0584A12
:10137000526822F44062564B5A60012904D11A4641
:10138000526842F440625A609AE0514A526822F42C
:10139000C0424F4B5A60012904D11A46526842F4A8
:1013A00080425A608CE04A4A526822F4C042484B5C
:1013B0005A60012904D11A46526842F4C0425A6068
:1013C0007EE0434A526822F0E062414B5A600129B4
:1013D00004D11A46526842F080725A6070E03C4A6A
:1013E000526822F0E0623A4B5A60012904D11A4651
:1013F000526842F000725A6062E0354A526822F048
:10140000E062334B5A60012904D11A46526842F017
:1014100080625A6054E000BF00BF00BF00BF2C4A8A
:10142000D269C0F315039A43294BDA61012906D129
:101430001A46D269C0F315031A43254BDA613FE01F
:1014400000BF00BF00BF00BF214AD269C0F315032F
:101450009A431F4BDA61012906D11A46D269C0F3BB
:1014600015031A431A4BDA612AE0194AD26922F4A9
:10147000C012174BDA61012904D11A46D26942F42D
:101480000022DA611CE0124AD26922F4C012104B29
:10149000DA61012904D11A46D26942F48012DA6174
:1014A0000EE00B4AD26922F4C012094BDA6101291D
:1014B00004D11A46D26942F4C012DA6100E000BFDA
:1014C00000BF10BD8000004080FF03008000FEFFD1
:1014D00000000140FEFFFF7F0246002093680B40A2
:1014E0000BB1012000E000207047416170470161AD
:1014F00070474FF6FF710180022181700421C17095
:10150000704700BFFEE700002DE9F04104460E469B
:1015100017464FF00008002020704FF480712748D4
:10152000FFF7E5FF80251FE04FF400712348FFF728
:10153000DEFF0120FFF731FA3846FFF72EFA0320CD
:10154000FFF72BFA4FF480711C48FFF7C5FF10B16D
:101550002078284320704FF400711848FFF7C5FF2A
:101560000120FFF71AFA6D10002DDDDC2EB94FF4C3
:1015700080711248FFF7B9FF04E04FF480710F4803
:10158000FFF7B5FF0120FFF708FA4FF400710B4891
:10159000FFF7ADFF0520FFF700FA4FF40071074891
:1015A000FFF7A3FF4FF480710448FFF7A0FF14205A
:1015B000FFF7F3F94046BDE8F0810000000C014060
:1015C00010B54FF480710F48FFF791FF0120FFF72E
:1015D000E4F94FF400710B48FFF789FF0120FFF792
:1015E000DCF94FF480710748FFF77FFF0A20FFF70F
:1015F000D4F94FF400710348FFF777FF0A20FFF793
:10160000CCF910BD000C014010B54FF400710F482B
:10161000FFF76BFF0120FFF7C0F94FF480710B4813
:10162000FFF763FF0120FFF7B8F94FF40071074897
:10163000FFF75DFF0A20FFF7B0F94FF48071034810
:10164000FFF755FF0A20FFF7A8F910BD000C014075
:1016500070B505460026802421E004EA050028B97B
:101660004FF480711E48FFF740FF04E04FF4807193
:101670001B48FFF73CFF0120FFF78FF94FF4007183
:101680001748FFF734FF0520FFF787F94FF4007183
:101690001348FFF72AFF0120FFF77FF96410002CA1
:1016A000DBDC4FF480710E48FFF721FF4FF400712F
:1016B0000B48FFF71CFF0120FFF76FF94FF4807113
:1016C0000748FFF709FF00B101264FF400710448F5
:1016D000FFF70BFF1420FFF760F9304670BD0000E4
:1016E000000C01402DE9F04104460E4617464FF02C
:1016F00000080020207002212248FFF7F8FE802514
:101700001CE004211F48FFF7F2FE0120FFF745F916
:101710003846FFF742F90320FFF73FF90221194845
:10172000FFF7DAFE10B12078284320700421154815
:10173000FFF7DBFE0120FFF730F96D10002DE0DC34
:1017400026B902210F48FFF7D0FE03E002210D4821
:10175000FFF7CDFE0120FFF720F904210948FFF72C
:10176000C6FE0520FFF719F904210648FFF7BDFE64
:1017700002210448FFF7BBFE1420FFF70EF9404694
:10178000BDE8F0810008014010B502210D48FFF7C7
:10179000AEFE0120FFF701F904210A48FFF7A7FE7A
:1017A0000120FFF7FAF802210648FFF79EFE0A2003
:1017B000FFF7F3F804210348FFF797FE0A20FFF72D
:1017C000ECF810BD0008014070B5054600268024E5
:1017D0001DE004EA050020B902211B48FFF785FE41
:1017E00003E002211848FFF782FE0120FFF7D5F839
:1017F00004211548FFF77BFE0520FFF7CEF80421F2
:101800001148FFF772FE0120FFF7C7F86410002CA3
:10181000DFDC02210C48FFF76AFE04210A48FFF7CB
:1018200066FE0120FFF7B9F802210748FFF754FED2
:1018300000B1012604210448FFF757FE1420FFF7EA
:10184000ACF8304670BD00000008014030B50246DB
:101850000B46FF20002113E0555C684008240BE094
:1018600000F0800525B1312585EA4005E8B201E0A8
:101870004506280E651EECB2002CF1DC4D1CE9B2C9
:101880009942E9DB30BD2DE9F04105460E4614468C
:1018900031462846FFF7DAFF0746A74202D002206A
:1018A000BDE8F0810020FBE708B50620ADF8000098
:1018B00001208DF8020014208DF8030069460248CB
:1018C000FFF78EFB08BD0000000801402DE9FC4138
:1018D00005460E4617463A46002101A8FFF702FFCB
:1018E000044634B9002211460DF10500FFF7FAFE57
:1018F00004462CB9002231466846FFF7F3FE044641
:1019000034B99DF80020022101A8FFF7BCFF04466E
:101910009DF805009DF8041040EA0120288020462B
:10192000BDE8FC81014908707047000052010020A9
:1019300010B5FFF729FF05490978012202EB4101A3
:10194000C8B2FFF741FF0446204610BD52010020F7
:1019500010B50446202C10D006DC012C19D0042C24
:101960001AD0102C1BD104E0402C0ED0802C16D1A4
:1019700007E00120FEF708FE12E00020FEF72CFE33
:101980000EE00120FEF728FE0AE00120FEF7D4FD5C
:1019900006E0FFF795F903E000F03AFE00BF00BF54
:1019A00000BF10BD7047000010B504460848007A1B
:1019B000012808D1074800780749087001F056FA55
:1019C0000220034908722046FFF7C2FF10BD000045
:1019D000CA0F0020E00F0020D60F002070B53C4851
:1019E000407A012800D170BD3A48007900B9FAE781
:1019F00000203849087101F093FA04462046E117A7
:101A000004EB1161C1F30725E6B23148407A0228A0
:101A100037D030488079012833D12E48407CA84205
:101A20002DD125BB2B48407801281AD12948007CAC
:101A300018B92848007C012813D02648007C1028BB
:101A400007D10120244908712249087CFFF7ACFF27
:101A500007E021480079012803D11E49087CFFF7DF
:101A6000A3FF00201B4948700846057407E0194889
:101A7000407820B901201749487008460574154878
:101A800045741348407A03281BD012484079012836
:101A900017D11048C07BB04211D11EB900200D49AA
:101AA00008700CE00B48007848B90B480079012811
:101AB00005D13046FFF778FF012006490870054838
:101AC000C673002003494871887100BF8BE700008E
:101AD000CA0F0020221100202501002000B54B482C
:101AE000037A052B00DB05234948408949F226315A
:101AF000884205D04648408947F2937188423DD1DB
:101B0000C3EBC300434901EB40021078424908701F
:101B1000507848705088488090888880D088C880E5
:101B2000108908815089488190898881032002F0BA
:101B300089FB3949488802F089FB4FF4047002F0B0
:101B400081FB3549888802F081FB40F2112002F0C8
:101B500079FB3149C88802F079FB40F2122002F08B
:101B600071FB2D49088902F071FB40F2132002F04D
:101B700069FB2949488902F069FB46E0C3EBC300D1
:101B8000264901EB400210782349087050784870CC
:101B90005088488090888880D088C88010890881C3
:101BA0005089488190898881362002F04BFB1A4980
:101BB000488802F04BFB2A2002F044FB1649898832
:101BC000081202F043FB1449087902F03FFB124966
:101BD000C988081202F03AFB0F49887902F036FBF7
:101BE0002B2002F02FFB0C490989081202F02EFB72
:101BF0000949087A02F02AFB07494989081202F0CC
:101C000025FB0549887A02F021FB00BDD60F002094
:101C1000641100208C5400084A4C0020E054000855
:101C200010B549484078C0B94848C07928B94848F3
:101C30000078012801D1FFF743F84448407860B1AB
:101C40004248808948B9002040494870414840785E
:101C500040490870012001F099F93B48407800B9EB
:101C600010BD002201213C4802F004FE022036494A
:101C7000487008460079487101221146364802F042
:101C8000F9FD3148007920B14FF400513348FFF796
:101C90002CFC334804682C4840790A281BD2DFE822
:101CA00000F01A081A1A0B0E1114170500F074FB35
:101CB00014E000F0E1F911E000F060F90EE001F04D
:101CC000B9FA0BE001F054FA08E001F013FB05E06B
:101CD00001F010FA02E000F0CFF900BF00BF204889
:101CE0000068001B1849088108464078022812D174
:101CF000002048708870C8701A484078062802DBB7
:101D00000020184948701048018916484278083068
:101D100020F8121016E01348407818B9062011492F
:101D2000487006E00F484078062802DB01200D4984
:101D30004870054802890B484078401E094908311F
:101D400021F8102000BF8BE76411002070110020E3
:101D50001B0100201201002000040040000C014083
:101D6000584C00203811002008B58020ADF8000044
:101D700002208DF8020010208DF8030069461A48F1
:101D8000FFF72EF92020ADF8000069461748FFF74D
:101D900027F91020ADF8000069461448FFF720F934
:101DA0002020ADF8000069461148FFF719F9082016
:101DB000ADF8000069460C48FFF712F980210A4887
:101DC000FFF793FB20210948FFF78FFB10210748FD
:101DD000FFF78BFB20210648FFF789FB082102480B
:101DE000FFF783FB08BD0000000801400010014020
:101DF0000018014010B500200249087003F028FACD
:101E000010BD00001201002010B500F029FD0948A6
:101E1000007858B9002405E00748005D05490855D9
:101E2000601CC4B2052CF7DB01F020F8FEF738FD8A
:101E300010BD0000D60F0020E31E030838B504468D
:101E4000102C00DD00241048807801281AD10F489A
:101E5000007868B90C48047000780D4901EBC005A2
:101E60000C4800680090D5E9001201F045FB09E03C
:101E700006480478102C00DD0024074931F81400CE
:101E8000FEF73AFE38BD0000641100200200002079
:101E9000B0550008F05600080600002008B5702074
:101EA000ADF8000001208DF8020010208DF803002D
:101EB00069460848FFF794F840210648FFF717FBEA
:101EC00020210448FFF713FB10210248FFF70FFB06
:101ED00008BD00000008014000BFFEE7704710B5D4
:101EE0004FF4A06000F040F802F070FAFEF73CFEFC
:101EF00002F086FD10BD000070B5002100230F2206
:101F0000C47804B3154C246804F4E064C4F5E064B8
:101F1000210AC1F10403CA40447804FA03F1847829
:101F20001440214309010E4C0678A155047804F0B1
:101F30001F050124AC4005786D11AD0005F1E025C9
:101F4000C5F8004109E0047804F01F050124AC4005
:101F5000044D0678761145F8264070BD0CED00E082
:101F600000E400E080E100E002490143024A116020
:101F7000704700000000FA050CED00E03EB538485F
:101F800004780020029000250A2094FBF0F100FB69
:101F900011403030C0B28DF80800642094FBF0F19D
:101FA00000FB11400A2190FBF1F03030C0B28DF8F7
:101FB0000900642094FBF0F03030C0B28DF80A00C4
:101FC0002748007908B9022500E00A25254800784D
:101FD000A84204D0E8B2FFF731FF22490D70224930
:101FE000C878FEF799F921482149097830F811009D
:101FF00020491F4A127831F81210CDE900109DF8DF
:1020000008200523F321482001F046FE174818490F
:10201000097830F811001749154A127831F8121072
:10202000CDE900109DF8092005238921482001F001
:1020300033FE0E480E49097830F811000D490C4A5C
:10204000127831F81210CDE900109DF80A2005230E
:102050001E21482001F020FE0220024948703EBDAA
:10206000E00F002025010020701100200600002054
:10207000020000202600002070B52DED028B86B0F6
:102080006A4890ED010AB0EE408AB2EE040A28EEEA
:10209000000ABCEEC00A10EE104A90ED000AF2EE03
:1020A000040A20EE200ABCEEC00A10EE105ABCEE64
:1020B000C80A10EE100A86B2002003905C484078EF
:1020C0000A2190FBF1F03030C0B28DF80C00584876
:1020D000407890FBF1F201FB12003030C0B28DF875
:1020E0000D0000F0B1F804A9204602F022FC05A979
:1020F000284602F01EFC9DF81000302819D14D48EA
:102100004D49097830F811004C494B4A127831F8A2
:102110001210CDE900109DF81120052384215C20C8
:1021200001F0BAFD84235C22AC21104601F05AFA7A
:1021300016E09DF8100098B13E483F49097830F804
:1021400011003E493C4A127831F812100522022350
:10215000CDE90021029004AA5C21084601F0B0FFFD
:1021600034483549097830F811003449324A127838
:1021700031F81210CDE900109DF813200523B62187
:102180005C2001F089FD4FF6FF70032306226821D1
:102190000090A82002F0DAFF26482749097830F895
:1021A00011002649244A127831F812100022042323
:1021B000CDE90021029005AA0A21B42001F080FF98
:1021C0001C481D49097830F811004FF44071CDE9E1
:1021D00000109DF80C2003230E21762001F05CFDF9
:1021E00014481549097830F811004FF44071CDE9D1
:1021F00000109DF80D2003231E21762001F04CFDD8
:102200000F48C089012803D00E48C078012809D1A1
:102210000C48C178304602F0CBFE00200849C88146
:102220000849C87006B0BDEC028B70BD801100205B
:10223000D60F00200600002002000020260000200B
:10224000584C00202501002038B500244A48D0ED24
:10225000010A4A484078401C00EE100AB8EEC00A55
:10226000F4EEC00AF1EE10FA03D8012044490870D8
:1022700011E04148D0ED010A40484078401C00EE92
:10228000100AB8EEC00AF4EEC00AF1EE10FA02DD50
:1022900000203B4908703B48007898B138480078E6
:1022A00080B93948007908B9002400E00824E0B278
:1022B000FFF7C4FD0121002002F07AFE0020314921
:1022C000087022E02F48007801281ED02C480078A2
:1022D00001281AD12848807A012806D120212B48CC
:1022E000FFF705F90020244988722748007908B9CA
:1022F000012400E00924E0B2FFF7A0FD0121002045
:1023000002F056FE01201F4908701D484078012840
:1023100017D11C484078012813D01B48007908B910
:10232000052400E00D241A4800EBC4031948406856
:102330000090D3E9001201F0DFF801201149487044
:1023400018E00F484078A8B90E48407890B10E4880
:10235000007908B9042400E00C240D4800EBC40304
:102360000C4840680090D3E9001201F0C5F8002045
:102370000449487038BD000080110020D60F0020AD
:102380001001002025010020E00F00200010014076
:10239000B0550008F05600082DE9FE414A48008873
:1023A000FEF7AAFB494890F80080012047490870D1
:1023B0004748408947F29371884228D145480078C0
:1023C00020B191245A25C4261E2703E07824AA258B
:1023D00055266E273C4800884FF6FF7101220623E0
:1023E000CDE9002102903CA22946204601F068FE7A
:1023F000354800884DF6DB6100221E23CDE900211F
:10240000029039A23946304601F05AFE56E0304873
:10241000408949F22631884228D12E48007820B1DF
:1024200091245A25C4261E2703E07824AA25552680
:102430006E27254800884FF6FF7101220623CDE95B
:102440000021029024A22946204601F039FE1E48B0
:1024500000884DF6DB6100221E23CDE900210290A9
:1024600021A23946304601F02BFE27E019480078BA
:1024700020B1EB245A25C8261E2703E07824AA257C
:1024800055266E27104800884FF6FF71012206235B
:10249000CDE90021029010A22946204601F010FE4D
:1024A000094800884DF6DB6100221E23CDE900219A
:1024B00002900DA23946304601F002FE034880F832
:1024C0000080BDE8FE810000040000200200002022
:1024D000641100204A4C002048535F436162696EDA
:1024E000657420202020200056312E3030202020FE
:1024F00020323032332D30352D3038007047F0B572
:10250000074627B94FF6FF7542F2041603E042F280
:1025100004154FF6FF7640F22B13B4222C21084607
:1025200001F00AFE002404E0284601F08FFE601C42
:10253000C4B2782CF8DBB4231A46A4212D2001F074
:10254000FBFD002404E0284601F080FE601CC4B2BC
:10255000762CF8DB40F22B13B422A421084601F0BC
:10256000EBFD002404E0284601F070FE601CC4B2BC
:10257000782CF8DB40F22B131A46A4212D2001F011
:10258000DBFD002404E0284601F060FE601CC4B2BC
:10259000762CF8DB8B2314222C21084601F0CCFD8D
:1025A000002404E0304601F051FE601CC4B2782CD7
:1025B000F8DB14231A46A4212D2001F0BDFD0024D0
:1025C00004E0304601F042FE601CC4B2762CF8DB19
:1025D0008B231422A421084601F0AEFD002404E060
:1025E000304601F033FE601CC4B2782CF8DB8B233C
:1025F0001A46A4212D2001F09FFD002404E030465E
:1026000001F024FE601CC4B2762CF8DBF0BD0000A3
:1026100010B5012007498870C87000200871FEF7C6
:102620008BFA0020044988720448C07900B910BDB3
:1026300000BFFCE725010020CA0F00207011002018
:1026400029B1064A52690243044B5A6104E0034A25
:1026500052698243014B5A617047000000100240EA
:1026600029B1064AD2690243044BDA6104E0034A05
:10267000D2698243014BDA617047000000100240CA
:1026800029B1064A92690243044B9A6104E0034A65
:1026900092698243014B9A6170470000001002402A
:1026A00010B54FF4803000F0B5F801210802FFF7B3
:1026B000C7FF01210448FFF7D3FF012144F67D0045
:1026C000FFF7DEFF10BD000003000018F0B5002288
:1026D000002100240023484D6D6805F00C0222B152
:1026E000042A05D0082A3ED105E0444D05603DE0AE
:1026F000424D05603AE0404D6D6805F480343E4D32
:102700006D683F4E05EA060101F0C04535B901F498
:102710007015B5F5701F01D0022500E0012501F00C
:10272000C046C1F3834747EA5666A9191CB9354D1F
:102730004D4305600BE0304D6D6805F400351DB16B
:10274000304D4D43056002E02C4D4D4305602A4D50
:102750006D6805F000452DB92B4E0568B54201D9CD
:102760003546056002E0254D056000BF00BF224DE3
:102770006D68C5F30212204D6D6805F0800515B136
:10278000224DAD5C00E000252B460568DD4045602C
:10279000194D6D68C5F30122174D6D6805F480650C
:1027A00015B11A4DAD5C00E000252B464568DD40B3
:1027B0008560114D6D68C5F3C1220F4D6D6805F43C
:1027C000005515B1114DAD5C00E000252B46456864
:1027D000DD40C560084D6D68C5F38132064D6D68FA
:1027E00005F080550DB142F00402094DAB5CC5689F
:1027F000B5FBF3F50561F0BD0010024000127A0050
:1028000000003C6000093D0000A24A04E81E0308E5
:10281000F01E03081149096821F480310F4A116044
:102820001146096821F480211160B0F5803F03D082
:10283000B0F5802F0ED106E00849096841F48031D7
:10284000064A116007E00549096841F4A021034ADE
:10285000116000E000BF00BF7047000000100240A0
:102860002DE9F04700250026A846FEF73FFBFEF7BE
:102870004FF88146484602F093FCFEF7D7FA002451
:1028800011E01849A01C31F81000454004F1220065
:1028900031F81000464004F1420031F8100080EA9F
:1028A0000808601C84B2062CEBDB002415E025B977
:1028B0000C49A01C31F810700BE02EB9094904F145
:1028C000220031F8107004E0064904F1420031F8AA
:1028D000107005490F55601C84B2062CE7DBBDE87B
:1028E000F0870000684C0020D60F002010B5FEF7DE
:1028F00023F902F05FFD00200249087000F0B6FAEB
:1029000010BD0000D60F002008B54FF44070ADF8A0
:10291000000001208DF8020014208DF803006946A4
:102920000148FEF75DFB08BD000C014038B50446C8
:10293000204600F077F9684600F03AFA0546012192
:10294000002000F075F938BD10B54420FFF7EEFF08
:1029500010BD30B502460B46FF20002113E0555C48
:10296000684008240BE000F0800525B1312585EA98
:102970004005E8B201E04506280E651EECB2002CC9
:10298000F1DC4D1CE9B29942E9DB30BD2B49897875
:102990000A2918DB00EE100AB8EE400ADFED280A1B
:1029A00020EE200A9FED271AC0EE010A23498978FC
:1029B00000EE101AB8EE400A30EE800AF2EE040A79
:1029C00030EE600A70471D498978002934DB1B49C5
:1029D00089780A2930DA00EE100AB8EE400ADFEDF5
:1029E000180A20EE200A9FED171AC0EE010A1349BB
:1029F000897800EE101AB8EE400A30EEC00AB5EE43
:102A0000C00AF1EE10FA02D89FED0F0ADAE700EEE5
:102A1000100AB8EE400ADFED0A0A20EE200A9FED08
:102A2000091AC0EE010A0549897800EE101AB8EEBD
:102A3000400A30EEC00AC5E700BFC3E7E00F002040
:102A40000000C84200FF7F47000000003149C978FC
:102A50000A291CDB00EE100AB8EE400ADFED2E0A50
:102A600020EE200A9FED2D1AC0EE010A9FED2C0AE0
:102A700070EEC00A2749C97800EE101AB8EE400A75
:102A800030EE800AF2EE040A30EE600A7047214907
:102A9000C97800293CDB1F49C9780A2938DA00EED9
:102AA000100AB8EE400ADFED1C0A20EE200ADFED26
:102AB0001B0A80EE201A9FED1A0A71EE400A154992
:102AC000C97800EE101AB8EE400A30EEC00AB5EE32
:102AD000C00AF1EE10FA02D89FED120AD6E700EE16
:102AE000100AB8EE400ADFED0C0A20EE200ADFEDF6
:102AF0000B0A80EE201A9FED0A0A71EE400A054982
:102B0000C97800EE101AB8EE400A30EEC00ABDE7F0
:102B100000BFBBE7E00F002000002F4300FF7F470E
:102B200000003442000000002DE9F04105460E4649
:102B3000144631462846FFF70CFF0746A74202D04D
:102B40000220BDE8F0810020FBE72DE9FC410546AD
:102B50000E4617463A46002101A8FEF7D5FC04466A
:102B600034B9002211460DF10500FEF7CDFC0446F4
:102B70002CB9002231466846FEF7C6FC044634B93B
:102B80009DF80020022101A8FFF7CEFF04469DF822
:102B900005009DF8041040EA012028802046BDE889
:102BA000FC8100007CB505460E4600F0E7F80446BF
:102BB00024B94FF4604000F0EFF8044614B900F077
:102BC000CDF804462CB90022114601A8FFF7BDFF3D
:102BD00004462CB9002201216846FFF7B6FF0446DF
:102BE0009CB9BDF80400FFF731FF85ED000A95EDB3
:102BF000000AF2EE040A30EE600A85ED000ABDF824
:102C00000000FFF7C3FE86ED000AFEF7FDFC044856
:102C1000807A012802D0012000F0B8F920467CBD5E
:102C2000CA0F002001490870704700004F010020C2
:102C300070B506460D4600F0A1F80446002C72D18E
:102C4000002E57D0012E2BD0022E7FD1052D22D25F
:102C5000DFE805F003090F151B0042F22F0000F01A
:102C60009BF804431AE042F22D1000F095F804435B
:102C700014E042F22B2000F08FF804430EE042F201
:102C8000293000F089F8044308E042F22A7000F08D
:102C900083F8044302E044F0800400BF00BF58E022
:102CA000052D22D2DFE805F003090F151B0042F2C3
:102CB000240000F071F804431AE042F2261000F0FC
:102CC0006BF8044314E042F2202000F065F804435E
:102CD0000EE042F2223000F05FF8044308E042F2D6
:102CE000217000F059F8044302E044F0800400BF72
:102CF00000BF2EE0052D24D2DFE805F003090F17F1
:102D00001D0042F2320000F047F804431CE042F29A
:102D1000301000F041F8044316E042F2362000F093
:102D20003BF8044310E015E010E042F2343000F0CC
:102D300033F8044308E042F2377000F02DF8044302
:102D400002E044F0800400BF00BF02E044F08004D1
:102D500000BF00BFFEF758FC204670BD10B5FEF75F
:102D60002FFC05490978012202EB4101C8B2FEF7A8
:102D70006FFC0446204610BD4F01002010B5FEF741
:102D80001FFC044909784906080EFEF761FC044659
:102D9000204610BD4F01002070B504462012FEF7FA
:102DA00057FC0546E0B2FEF753FC0543284670BDCC
:102DB00070B50546FFF7E2FF0446204670BD0000EF
:102DC00008B501210D20FFF75BFC6846FEF791FB7B
:102DD0004FF4C850ADF8000002208DF80200182012
:102DE0008DF8030069461948FEF7FAF8C220ADF8DD
:102DF000000069461648FEF7F3F801211548FEF772
:102E00007BF901211448FEF777F902201349086085
:102E100000BF1248001D006800F001000028F8D132
:102E20000F480E49091F08600E480C498839C1F83F
:102E3000840000BF09480830006800F080000028C6
:102E4000F8D106491031086008BD000000080140B3
:102E5000000C014000002040000400408820024097
:102E600023016745AB89EFCD704700002DE9F041A4
:102E70000026FDF715FD00240EE02648055D6E4096
:102E80002549A01C21F81050203021F81050203086
:102E900021F81050601C84B2052CEEDB1E48C68160
:102EA000A0F84E60A0F88E60FDF732FD0746384668
:102EB00002F076F900241DE01749A01C31F810102B
:102EC000164A32F81000814211D1134904F1220050
:102ED00031F8101032F81000814208D10E4904F187
:102EE000420031F8101032F81000814200D003E0A7
:102EF000601C84B2062CDFDB00BF062C07DA074813
:102F00000088401C04490880384602F05FF9BDE89B
:102F1000F0810000D60F0020684E0020684C002091
:102F20001848C27B417C4079012805D1002216480F
:102F30000078082800D101221248807901281DD18B
:102F4000002111480078102801D1102116E00E4808
:102F50000078022801D1202110E00B4800780128D8
:102F600001D180210AE008480078202801D14021C1
:102F700004E005480078042800D1042102EB012078
:102F800080B27047221100201A01002017494978A9
:102F9000022903D10321154A517002E00121134A8D
:102FA00051700121114A91700021114A5170117024
:102FB000D17091700F494A784978491C0D4B59706E
:102FC000052A02DB00211A46517000F07F01074AF2
:102FD000117108494A78891C885407490A680549CB
:102FE0004B78143141F82320704700006411002011
:102FF0008C11002038110020584C002010B500F032
:1030000001F810BD1CB50020019000903648006802
:1030100040F480303449086000BF3348006800F451
:10302000003000900198401C0190009818B9019858
:10303000B0F5405FF1D141F2883001F09FFE2A489F
:10304000006800F4003010B10120009001E0002081
:1030500000900098012845D12348406822494860E3
:103060000846406820F4605048600846406840F4D4
:10307000005048600846406820F4E0604860084618
:10308000406840F48060486008464068174908403E
:103090001549486008464068154908431249486088
:1030A0000846006840F08070086000BF0E48006865
:1030B00000F000700028F9D00B48406820F00300B1
:1030C000094948600846406840F00200486000BF77
:1030D0000548406800F00C000828F9D14FF4FA7058
:1030E00001F04CFE1CBD000000100240FFFFC01F9D
:1030F000000021A03EB51848057900200290102458
:103100000A2095FBF0F100FB11503030C0B2029064
:1031100012480078A04204D0E0B2FEF78FFE0F49BB
:103120000C700F49C878FFF7EAF90E480E49097884
:1031300030F811000D490C4A127831F81210CDE91F
:1031400000109DF808200523DC21482000F0A4FD94
:103150000220024948703EBDE00F002025010020FA
:103160007011002006000020020000202600002030
:103170003EB52A488578002002900A2D03DA2D20DA
:103180008DF8090002E02B208DF809000A2095FB3C
:10319000F0F100FB11503030C0B28DF8080000246F
:1031A0001E48007908B9062400E00E241C48007867
:1031B000A04204D0E0B2FEF741FE19490C70194953
:1031C000C878FFF79CF918481849097830F81100B9
:1031D0001749164A127831F81210CDE900109DF8FF
:1031E00008200523DC21482000F056FD0E480F4939
:1031F000097830F811000E490C4A127831F8121093
:10320000CDE900109DF8092005233C21482000F05D
:1032100043FD0220024948703EBD0000E00F00203F
:10322000250100207011002006000020020000206F
:10323000260000203EB529484578002002900A204B
:1032400095FBF0F03030C0B28DF809000A2095FBF4
:10325000F0F100FB11503030C0B28DF808000024AE
:103260001E48007908B9032400E00B241C480078AC
:10327000A04204D0E0B2FEF7E1FD19490C701949F3
:10328000C878FFF73CF918481849097830F8110058
:103290001749164A127831F81210CDE900109DF83E
:1032A00008200523DC21482000F0F6FC0E480F49D9
:1032B000097830F811000E490C4A127831F81210D2
:1032C000CDE900109DF8092005233C21482000F09D
:1032D000E3FC0220024948703EBD0000E00F0020E0
:1032E00025010020701100200600002002000020AF
:1032F000260000203EB52A48C578002002900A2DFD
:1033000003DA2D208DF8090002E02B208DF809004A
:103310000A2095FBF0F100FB11503030C0B28DF85F
:10332000080000241E48007908B9072400E00F2493
:103330001C480078A04204D0E0B2FEF77FFD194996
:103340000C701949C878FFF7DAF818481849097855
:1033500030F811001749164A127831F81210CDE9E9
:1033600000109DF808200523DC21482000F094FC83
:103370000E480F49097830F811000E490C4A1278AE
:1033800031F81210CDE900109DF8092005233C21E9
:10339000482000F081FC0220024948703EBD000038
:1033A000E00F002025010020701100200600002001
:1033B000020000202600002005480079012803D1E2
:1033C00000200349087102E001200149087170479B
:1033D0002001002010B51A48006840F47000184918
:1033E00008601848006840F0010016490860084667
:1033F0004068154908401349486008460068134969
:103400000840104908600846006820F480200860E1
:10341000084640680E4908400A4948600846006B63
:103420000C490840074908634FF41F008860FFF704
:10343000E5FD4FF0006002498039086010BD0000D2
:1034400088ED00E0001002400C00FFE8FFFFF6FEF0
:10345000FFFF001700FFFEFE10B501202149487252
:10346000FEF7D2FC00F0F8FE80211F48FEF73FF87F
:103470004FF47A70FDF785FA80211B48FEF735F886
:1034800020211A48FEF733F84FF47A70FDF779FAE5
:1034900020211648FEF729F810211448FEF727F8D6
:1034A0004FF47A70FDF76DFA10211048FEF71DF801
:1034B00008210D48FEF71BF84FF47A70FDF761FA0A
:1034C00008210948FEF711F800200649C871487222
:1034D000074908704FF47A7006498880FDF72CFB85
:1034E00010BD0000CA0F002000080140001001407C
:1034F0000A0D0020584C00202DE9F74F82B03848C3
:10350000007818B3BDF80A0035498989084485B2A6
:10351000BDF80A00324989890844BDF80E100844F4
:1035200086B2BDF80870BDF80800BDF80C1008445C
:103530001FFA80F8BDF80CA0701E83B2A8F101003C
:1035400081B22A46384600F0F7FD1BE0BDF808506E
:10355000BDF80800BDF80C10084486B2BDF80A702A
:10356000BDF80A00BDF80E1008441FFA80F8BDF837
:103570000CA0A8F1010083B2701E81B23A46284621
:1035800000F0DAFD049800F1036000904FF00009AC
:103590001FE009FB0AF00190002413E0204604EB31
:1035A000D0714910A4EB410121B901982044009940
:1035B00051F810B01FFA8BF000F048FE4FEA1B4B99
:1035C000601C84B2701BA042E8DC09F101001FFA04
:1035D00080F9A8EB07004845DBDC05B0BDE8F08FBB
:1035E0004A4C00202DE9F84F05460E4690461F46EE
:1035F0002A4800782A4901EBC000406800F10360C6
:103600000090B54201DAB84501DBBDE8F88F2548E6
:10361000007840B1701E83B2781E81B22A464046BF
:1036200000F08AFD07E0781E83B2701E81B2424628
:10363000284600F081FDC1462CE000BFC9EB09100F
:1036400005EB001B00241EE01748007890B92046C7
:1036500004EBD0714910A4EB410121B90BEB04003C
:10366000009951F810A01FFA8AF000F0EFFD4FEA20
:103670001A4A06E00D490C4A127831F8120000F09F
:10368000E5FD601C84B2701BA042DDDC09F1010085
:103690001FFA80F9B945D0DB00BFB6E764110020FE
:1036A000B05500084A4C002002000020060000200F
:1036B00010B54FF48051FE48FDF719FF0A20FDF7C1
:1036C00060F94FF48051FA48FDF70FFF6420FDF7D1
:1036D00058F94FF48051F648FDF709FF4FF4FA709E
:1036E000FDF74FF9F348408947F2937188427CD146
:1036F000012000F0A7FD4FF4807000F0A7FDFEF759
:10370000EDF9902000F09EFD4FF4004000F09EFD8A
:103710004FF4806000F096FD4FF4C44000F096FD39
:1037200040F2014000F08EFD002000F08FFD40F2DD
:10373000044000F087FD002000F088FDFF2000F02D
:1037400081FD012000F082FD4FF4817000F07AFDD0
:103750004FF4D87000F07AFD4FF4E26000F072FD93
:10376000102000F073FD40F2127000F06BFD0F208E
:1037700000F06CFD40F2527000F064FD2F2000F06C
:1037800065FD0220FDF7FDF84FF4607000F05AFD72
:1037900040F2031000F05AFD40F2813000F052FD7B
:1037A00045F61B4000F052FD40F2823000F04AFD29
:1037B00040F6013000F04AFD40F2833000F042FD57
:1037C00040F2156000F042FD4FF4617000F03AFDE8
:1037D00040F2111000F03AFD40F2853000F032FD69
:1037E00040F2031000F032FD00E045E040F2863088
:1037F00000F028FD49F6174000F028FD40F2873020
:1038000000F020FD40F2076000F020FD4FF46270F0
:1038100000F018FD40F2146000F018FD40F289300D
:1038200000F010FD40F2111000F010FD40F20270A7
:1038300000F008FD572000F009FDFF2000F002FD18
:10384000002000F003FD072000F0FCFC4FF4807026
:1038500000F0FCFC0620FDF794F84FF4007000F037
:10386000F1FC002000F0F2FC40F2012000F0EAFC44
:10387000002000F0EBFC0DE28E48408949F2263131
:1038800088427CD140F2027000F0DCFC43F2080078
:1038900000F0DCFC40F2057000F0D4FC362000F0B3
:1038A000D5FC40F20B7000F0CDFC41F2132000F08B
:1038B000CDFC012000F0C6FC4FF4807000F0C6FC87
:1038C000022000F0BFFC4FF4807000F0BFFCFEF758
:1038D00005F9902000F0B6FC4FF4004000F0B6FC73
:1038E000082000F0AFFC40F2022000F0AFFC0920FD
:1038F00000F0A8FC002000F0A9FC0C2000F0A2FCC5
:10390000002000F0A3FC0F2000F09CFC002000F041
:103910009DFC4FF4807000F095FC002000F096FCB8
:103920004FF4817000F08EFC002000F08FFC40F21C
:10393000031000F087FC002000F088FC1420FDF745
:1039400020F84FF4807000F07DFC41F2901000F000
:103950007DFC40F2011000F075FC40F2272000F0E1
:1039600075FC0520FDF70DF84FF4817000F06AFC3E
:103970009F2000F06BFC0520FDF703F800E0C9E094
:1039800040F2031000F05EFC4FF4345000F05EFC97
:1039900040F2812000F056FC0E2000F057FC05207C
:1039A000FCF7EFFF4FF4007000F04CFC002000F03B
:1039B0004DFC40F2012000F045FC002000F046FCE8
:1039C0004FF4407000F03EFC002000F03FFC40F25D
:1039D000013000F037FC40F2077000F037FC40F295
:1039E000023000F02FFC40F2066000F02FFC40F2A5
:1039F000053000F027FC002000F028FC40F20630E3
:103A000000F020FC4FF4506000F020FC40F2073042
:103A100000F018FC40F2067000F018FC4FF4427001
:103A200000F010FC052000F011FC40F2093000F01D
:103A300009FC072000F00AFC4FF4437000F002FC80
:103A4000002000F003FC40F20D3000F0FBFB0A20E8
:103A500000F0FCFB4FF4806000F0F4FB4FF44450A6
:103A600000F0F4FB40F2014000F0ECFB012000F01C
:103A7000EDFB40F2044000F0E5FB002000F0E6FB27
:103A80004FF4A06000F0DEFB002000F0DFFB40F20E
:103A9000015000F0D7FB002000F0D8FB40F20250AC
:103AA00000F0D0FB002000F0D1FB40F2035003E017
:103AB000000C01406411002000F0C4FB002000F065
:103AC000C5FB40F2045000F0BDFB002000F0BEFB3F
:103AD00040F2055000F0B6FB002000F0B7FB1020CC
:103AE00000F0B0FB102000F0B1FB112000F0AAFBA9
:103AF0004FF4C06000F0AAFB202000F0A3FB0220DE
:103B000000F0A4FB072000F09DFB40F2731000F0D2
:103B10009DFBBFE0112000F095FB7820FCF731FF02
:103B2000362000F08FFBC02000F090FB3A2000F020
:103B300089FB552000F08AFBB22000F083FB0C20AB
:103B400000F084FB0C2000F081FB002000F07EFBE5
:103B5000332000F07BFB332000F078FBB72000F02F
:103B600071FB462000F072FBBB2000F06BFB1B20BA
:103B700000F06CFBC02000F065FB2C2000F066FB21
:103B8000C22000F05FFB012000F060FBC32000F0CA
:103B900059FB0F2000F05AFBC42000F053FB2020FB
:103BA00000F054FBC62000F04DFB0F2000F04EFB50
:103BB000D02000F047FBA42000F048FBA12000F03B
:103BC00045FBD62000F03EFBA12000F03FFBE020AB
:103BD00000F038FBF02000F039FB002000F036FB4D
:103BE000062000F033FB042000F030FB052000F03D
:103BF0002DFB052000F02AFB312000F027FB44209C
:103C000000F024FB482000F021FB362000F01EFBD2
:103C1000122000F01BFB122000F018FB2B2000F0FC
:103C200015FB342000F012FBE12000F00BFBF0202C
:103C300000F00CFB0B2000F009FB0F2000F006FB4E
:103C40000F2000F003FB0D2000F000FB262000F009
:103C5000FDFA312000F0FAFA432000F0F7FA47208D
:103C600000F0F4FA382000F0F1FA142000F0EEFA37
:103C7000142000F0EBFA2C2000F0E8FA322000F0DB
:103C8000E5FA212000F0DEFA292000F0DBFA2C20F2
:103C900000F0D8FA10BD00002DE9FF4F89B0894629
:103CA00014469B460020029084480078844901EB2A
:103CB000C000406800F103600090824800EBCB0038
:103CC000407806907F4800EBCB0040680490202CA1
:103CD00000DA2024A4F12000C4B2BBF1080F37D2CF
:103CE000DFE80BF0050C131A0421282F00BF7648DB
:103CF00010F8345000EBC400466830E0734810F808
:103D0000345000EBC400466829E0714810F8345084
:103D100000EBC400466822E06E4810F8345000EB17
:103D2000C40046681BE06C4810F8345000EBC40037
:103D3000466814E0694810F8345000EBC400466847
:103D40000DE0674810F8345000EBC400466806E008
:103D50005D4810F8345000EBC400466800BF00BF57
:103D60000698C11700EB5171C1F3CF0805FB08F0AD
:103D700080B20790049806FB08000490002712E028
:103D800097FBF5F005FB107000FB088197FBF5F041
:103D9000401C081A80B203900498C15D514A0398F0
:103DA0001154781C87B207988742E9DB0699099875
:103DB000084480B2059009EB05001FFA80FA4A48D2
:103DC0000078E0B14848808900F5A07005998842E4
:103DD00005DC4548808900F5A07080B20590BAF1F5
:103DE000F00F01DB4FF0F00A0598401E83B2AAF1F4
:103DF000010081B24846099A00F09EF913E0059847
:103E0000F02801DBF0200590BAF5A07F01DB4FF42C
:103E1000A07AAAF1010083B20598401E81B24A46F9
:103E2000099800F089F9002008903EE0089800FB0E
:103E300008F080B2039008984844C0EB001109983C
:103E400000EB011600272AE0039838442549085C56
:103E50000290002007901DE007990298084100F0A9
:103E6000010018B1169800F0F1F90EE01F48007833
:103E700018B1179800F0EAF907E0009850F816100A
:103E80000191019988B200F0E1F9761C0798401C75
:103E900080B2079007980828DEDB781C87B2474578
:103EA000D2DB0898401C80B20890AAEB0901089860
:103EB0008142BBDC28460DB0BDE8F08F64110020C4
:103EC000B0550008944C0108640301084428010817
:103ED000B43001089C49010824CC000838F40008DB
:103EE000A8550008740100204A4C00200200002060
:103EF0002DE9FF4F87B00E466B4800786B4901EB08
:103F0000C000406800F10360009069490A9831F8E8
:103F100030900A9801EBC000408804900A9801EBA9
:103F2000C000406803900498C11700EB51714FEA3C
:103F3000E10A09FB0AF085B2099A517810782A46FD
:103F4000FDF706F8039908440390039800F1036015
:103F5000039000241FE0E11704EB91718910A4EB9A
:103F6000810111B903980059019094FBF9F009FB04
:103F7000104000FB0AA194FBF9F0401C081A80B223
:103F800006900198C1B24B4A069811540198000A54
:103F90000190601C84B2AC42DDDB049907980844B0
:103FA0001FFA80FB06EB090087B243480078C0B1D6
:103FB0004148808900F5A070584505DC3E4880895D
:103FC00000F5A0701FFA80FBF02F00DBF027ABF1AB
:103FD000010083B2781E81B23046079A00F0ACF837
:103FE00012E0BBF1F00F01DB4FF0F00BB7F5A07F53
:103FF00001DB4FF4A077781E83B2ABF1010081B2F0
:104000003246079800F098F84FF0000845E008FBAA
:104010000AF080B2069006EB0800C0EB001107988A
:1040200000EB01100290002431E006982044214961
:10403000085C0590002526E00598284100F0010065
:1040400018B1149800F002F915E01C48007818B176
:10405000159800F0FBF80EE00099029851F8100056
:10406000019005F0010010B10198000C0190019938
:1040700088B200F0EBF805F0010010B10298401C86
:104080000290681C85B2082DD6DB601C84B25445B2
:10409000CBDB08F101001FFA80F8B81B4045B6DC05
:1040A00048460BB0BDE8F08F64110020B055000801
:1040B00014570008740100204A4C00200200002020
:1040C0002DE9FE4F06460F4614469846DDE90D9A47
:1040D0003D4602964FF0000B27E0207800B926E01D
:1040E000207880280DDACDE9009A227829460C9BA9
:1040F0000298FFF7D1FD284485B2B5F5A07F0FDB0C
:1041000015E0CDE9009A224629460C9B0298FFF75C
:10411000EFFE284485B2B5F5A07F00DB07E0641C04
:10412000641C0BF101001FFA80FBC345D5DB00BF07
:104130002846BDE8FE8F000030B505460C463F48D6
:10414000408949F22631884205D03C48408947F2EF
:10415000937188422ED14FF4047000F073F8284612
:1041600000F074F840F2112000F06CF8204600F0E6
:104170006DF840F2122000F065F8104600F066F885
:1041800040F2132000F05EF8184600F05FF84FF49C
:10419000007000F057F8002000F058F840F20120BD
:1041A00000F050F8002000F051F840F2022000F03A
:1041B00049F842E022480078F0B12A2000F042F8A5
:1041C000101200F043F8D0B200F040F8181200F0DE
:1041D0003DF8D8B200F03AF82B2000F033F828125E
:1041E00000F034F8E8B200F031F8201200F02EF8B8
:1041F000E0B200F02BF81DE02A2000F023F828128E
:1042000000F024F8E8B200F021F8201200F01EF8C7
:10421000E0B200F01BF82B2000F014F8101200F0B0
:1042200015F8D0B200F012F8181200F00FF8D8B25A
:1042300000F00CF82C2000F005F830BD64110020CF
:104240004A4C00204FF0C041088070470149088067
:10425000704700000000026010B53220FCF791FBAF
:10426000FFF726FA0020FCF747FCA020FCF789FBAB
:104270004FF400510148FDF738F910BD000C014022
:1042800008B54FF40050ADF8000010208DF8030081
:1042900002208DF8020069463348FCF7A1FE4FF674
:1042A0008070ADF8000018208DF8030002208DF812
:1042B000020069462D48FCF793FE4CF20370ADF8FE
:1042C000000018208DF8030002208DF802006946D6
:1042D0002748FCF785FE4FF48050ADF80000102011
:1042E0008DF8030002208DF8020069461E48FCF795
:1042F00077FE4FF40060ADF8000018208DF8030041
:1043000002208DF8020069461948FCF769FE8020FA
:10431000ADF8000018208DF8030002208DF802008F
:1043200069461348FCF75CFE2020ADF80000182019
:104330008DF8030002208DF8020069460C48FCF756
:104340004FFE1020ADF8000018208DF80300022069
:104350008DF8020069460648FCF742FE4FF4005112
:104360000148FDF7C4F808BD000C014000180140E9
:10437000001401401FB5124800681249B0FBF1F06B
:10438000401E84B2684600F0CBFA4FF47A70029077
:10439000ADF800400020ADF80C00019069460A48D5
:1043A00000F072FA0121084800F044FA0122114697
:1043B000054800F05FFA0121034800F03EFA1FBDF6
:1043C0006001002040420F000004004008B51D209D
:1043D0008DF8000001208DF8010000208DF802000A
:1043E00001208DF803006846FDF786FD08BD00003A
:1043F00010B50121F14800F02CFA00287ED0F048D9
:104400000068401CEE4908600121EC4800F012FAF7
:10441000EC480068401CEB49086008468068401C76
:10442000886008468068B0F57A7F0ED3E6488078C9
:10443000012803D1E549081FFEF7B4FB0020E1493C
:10444000886008468089401C8881DE4880893C2835
:1044500004DB0020DB4988810120C881DC4890F81A
:104460003300A8B1DA4890F8341190F83401401EB6
:10447000D74A82F8340159B90120114681F8350133
:10448000FCF764FA0020D24981F8350181F8330045
:10449000D048407BA8B1CF48407B401ECD494873EF
:1044A000CD484078022816D00846407B052190FB75
:1044B000F1F201FB120070B90120C6490871487180
:1044C00009E0C5484078022805D01F20C14948733B
:1044D000012008718871FDF781FAC048C08820B1B9
:1044E000BE48C088401EBD49C880BD48408920B133
:1044F000BB484089401EBA49488100E0A6E0B9485F
:10450000C08820B1B748C088401EB649C880AD49B0
:104510008888411EAB4A918018BB4FF47A701146CF
:1045200088802021B048FCF7E0FF8021AF48FCF7ED
:10453000DCFF0821AD48FCF7D8FF1021AA48FCF7A2
:10454000D4FFA748C07920B1A548C079401EA4492E
:10455000C871A348808920B1A1488089401EA04924
:104560008881A3480078002870D09848001F90EDFB
:10457000010AB5EEC00AF1EE10FAF5D09D480078B8
:1045800020B1012828D0022825D197E08F48001FAC
:10459000D0ED010A98484078C01C00EE100AB8EE31
:1045A000C00AF4EEC00AF1EE10FA11DB012000F0AF
:1045B0002BFE83480068914988420CD3002000F00C
:1045C00023FE01208B49087000207D49086002E02D
:1045D000012088490870EFE089480068401C88493C
:1045E00008608848007801280BD17848001F90EDBA
:1045F000010ABDEEC00A844880ED000A002081490E
:1046000008707248001FD0ED010A7B48407800EE28
:10461000100AB8EE400AF4EEC00AF1EE10FA16D213
:10462000002000F0F1FD002065490860774800781F
:10463000012842D172480068754988423DD902205C
:104640006C49087000207149087036E0B5E05F4899
:10465000001F90ED010ABDEEC00A10EE100A6A4973
:10466000096888421DDB6B480068401C6949086086
:1046700008460068684988421FD9002065490860DB
:1046800000F0C2FD012000F075FE00204C490860DA
:1046900002205849087001205A4908705B49087087
:1046A0000BE04A48001F90ED010ABDEEC00A5648D3
:1046B00080ED000A0020574908607DE020214B482A
:1046C000FCF70AFF10B9002000F09EFD01203F49D1
:1046D000091F88723A480068484988420AD34F48FF
:1046E0000078012806D100F055FE00204B490870E3
:1046F00033490860324800684EF6602188420BD387
:1047000047480078012807D100F034FE00204449D2
:1047100008702B4908604EE02948006841498842EA
:104720000CD341480078012808D1002000F022FE77
:1047300000203D490870224908603CE0204800689C
:104740004EF66021884212D310212848FCF7C4FE9F
:1047500001280CD135480078012808D1002000F04C
:1047600019FE0020314908701549086023E01448FB
:1047700000682C4988421ED320211C48FCF7ACFE5F
:10478000012818D129480078A8B92748007890B99D
:104790002348007878B900200949086001201549AC
:1047A00008701E4908701E4908701F4908701F498B
:1047B00008701F49087000BF00BF10BD0004004012
:1047C00034010020584C00202501002084110020D5
:1047D000EA0F0020221100206411002012010020A5
:1047E000701100208C1100200010014000080140D1
:1047F0002C01002055010020D60F002020BF020010
:104800004001002048010020440100204E0100200A
:10481000E09304003C010020005307004901002000
:104820004A010020804F12004B0100204C01002063
:104830004D010020CA430282704721B1028842F034
:104840000102028004E002884FF6FE731A400280E3
:10485000704730B50246002000230024158A05EA7F
:104860000103958905EA010413B10CB1012000E0B0
:10487000002030BD1AB183890B43838102E0838914
:104880008B43838170470000002202881C4B9842B2
:1048900011D0B0F1804F0ED01A4B98420BD01A4B6A
:1048A000984208D0194B984205D0194B984202D033
:1048B000184B984205D14FF68F731A408B881343DB
:1048C0009AB2154B984207D0144B984204D04FF639
:1048D000FF431A408B891A4302808B68C3620B889E
:1048E0000385074B984205D0064B984202D0064BF1
:1048F000984201D18B7B038601238382704700009D
:10490000002C014000340140004001400004004000
:1049100000080040000C004000100040001400405F
:104920004FF6FF71816000210180818141608173B8
:1049300070474FF47A72B0FBF2F302FB1302642368
:10494000B2FBF3F230320A706422B0FBF2F302FBE6
:1049500013020A23B2FBF3F230324A700A22B0FB90
:10496000F2F302FB13023032CA702E228A707047B3
:1049700010B500F0FBF800F069F810BD10B540F27A
:1049800025511D4800F0A3F818B31B4800F08CF91E
:10499000C4B240F22551184800F042F8174890F888
:1049A0003300FF281CDC154890F83501012817D08A
:1049B000124890F8331090F83300401C0F4A82F8E8
:1049C000330002F1340044540420114681F83401CC
:1049D00006E00A48B0F83601401C0849A1F8360143
:1049E00040F22771044800F072F820B140F22771BC
:1049F000014800F015F810BD00380140EA0F002012
:104A000008B525208DF8000000208DF801008DF8F4
:104A1000020001208DF803006846FDF76DFA08BD1D
:104A200001F40072B2F5007F00D100BFCA430280DA
:104A3000704721B1828942F40052828104E0828968
:104A40004DF6FF731A408281704700001FB50121A7
:104A50000420FDF715FE01218803FDF711FE6846CD
:104A600000F07EF94FF4164000904FF48050ADF8FE
:104A700004000020ADF80600ADF80800ADF80C0009
:104A80000C20ADF80A006946094800F0A1F801229F
:104A900040F22551064800F044F8002240F2277108
:104AA000034800F03EF801210148FFF7C2FF1FBD97
:104AB0000038014002460020B1F5007F00D100BF60
:104AC00013880B400BB1012000E00020704770B547
:104AD0000246002400230025002040F66A16B14259
:104AE00000D100BFC1F3421501F01F03012606FAF1
:104AF00003F3012D02D19689334006E0022D02D145
:104B0000168A334001E0968A33400C12012606FAD9
:104B100004F41688344013B10CB1012000E00020E9
:104B200070BDF0B50346002400260025002040F6A5
:104B30006A17B94200D100BF1846C1F3421401F010
:104B40001F06012707FA06F5012C01D10C3004E0FD
:104B5000022C01D1103000E014301AB107682F4345
:104B6000076002E00768AF430760F0BD08B54FF487
:104B70000070ADF8000002208DF8020010208DF8C2
:104B8000030069461048FCF72BFA4FF40070ADF8AB
:104B9000000002208DF8020018208DF803006946FD
:104BA0000A48FCF71DFA4FF48060ADF800000420BD
:104BB0008DF8030069460548FCF712FA4FF40071BE
:104BC0000148FCF792FC08BD0010014000080140BC
:104BD0002DE9F04786B005460E460024A24600BFE8
:104BE000A1460027B08900B100BF2F462C8A4CF6A1
:104BF000FF700440F08804432C82AC894EF6F31019
:104C00000440B08831890843718908430443AC816A
:104C1000AC8A4FF6FF400440B0890443AC8201A83F
:104C2000FDF754FD1F48874202D1DDF810A001E0D6
:104C3000DDF80CA0A88900F4004040B10AEBCA00DE
:104C400000EB0A1031684900B0FBF1F807E00AEB0D
:104C5000CA0000EB0A1031688900B0FBF1F864204B
:104C6000B8FBF0F004012009642101FB1089A88938
:104C700000F4004040B1322000EBC900B0FBF1F07D
:104C800000F00700044308E0322000EB0910642123
:104C9000B0FBF1F000F00F0004432C8106B0BDE83A
:104CA000F08700000038014001468888C0F3080002
:104CB000704700002DE9F04105460E46174625B91C
:104CC0004FF400710A48FCF712FC002405E0315D46
:104CD000284600F00FF8601CC4B2BC42F7DB25B9CF
:104CE0004FF400710248FCF700FCBDE8F0810000C1
:104CF0000010014070B504460D465CB929461348C2
:104D000000F02AF800BF40211048FFF7D3FE00282A
:104D1000F9D01AE0012C0BD129460D4800F01CF8FF
:104D200000BF40210A48FFF7C5FE0028F9D00CE07B
:104D3000022C0AD12946074800F00EF800BF402196
:104D40000448FFF7B7FE0028F9D070BD00380140D5
:104D50000044004000480040C1F3080282807047D0
:104D60004FF41651016000218180C18001810C2126
:104D7000418100218181704700BFFEE7002100E0F2
:104D8000491C8142FCD3704751B18200A2F1C0425C
:104D9000126842F001038200A2F1C042136009E0F0
:104DA0008200A2F1C0421268034B1A408300A3F1B3
:104DB000C0431A6070470000FEFF0F00D0E90112E7
:104DC0001143C26811430269114342691143826968
:104DD0001143C2691143026A1143426A1143826A54
:104DE0001143C26A1143026B114302689200A2F19F
:104DF000C0421160816808290BD101688900A1F1C6
:104E0000C041096841F0400201688900A1F1C04138
:104E10000A60416B0968426B526841EA0211426BB9
:104E2000926841EA0221426B928941EA0241426B57
:104E3000128A41EA0251426B127D41EA0261426BE1
:104E4000926911430268521C9200A2F1C0421160A3
:104E5000C16AB1F5804F1BD1816B0968826B5268C2
:104E600041EA0211826B926841EA0221826B128A46
:104E700041EA0251826B127D41EA0261826B9269C2
:104E8000114302689200A2F1C042C2F8041107E087
:104E90006FF0704201688900A1F1C041C1F804219E
:104EA000704700B59DB001210802FDF7C9FB022043
:104EB0000090002001901E2002900020039004909A
:104EC000059006900220079000200890032009908A
:104ED00000200A900B900C900D900E9010201190D5
:104EE00000200F90109013901290159018904FF48E
:104EF00080501790800019900020169014901A90FE
:104F000007A81C90CDF86CD00EA8FFF757FF012121
:104F10000020FFF739FF1DB000BD02E008C8121FD6
:104F200008C1002AFAD170477047002001E001C192
:104F3000121F002AFBD1704710B5194800780128CC
:104F400016D11848D0ED010A17484078C01C00EE71
:104F5000100AB8EEC00AF4EEC00AF1EE10FA07DD4E
:104F600080211248FCF7C3FA00200D49087015E0B3
:104F70000C48D0ED010A0C484078401C00EE100AA5
:104F8000B8EEC00AF4EEC00AF1EE10FA06D28021A3
:104F90000648FCF7AAFA01200149087010BD00007C
:104FA0005801002080110020D60F00200008014089
:104FB0002DE9F8430746884600260F25B8F1000F73
:104FC00017D135483549098820F8117033480088D1
:104FD000401C1E2190FBF1F201FB12002F490880BA
:104FE0002F4800681E2804DA2D480068401C2C4910
:104FF00008602A480688002447E0294800681E28DF
:1050000016DA254830F8140026494978884202DC2F
:105010004FF4FC6901E04FF6E0791F48CDF80090AD
:1050200030F8143005221721284600F08FF824E0CC
:10503000194830F816001B494978884202DC4FF4C1
:10504000FC6901E04FF6E079A81D83B22A4654219D
:105050001720FEF7C7FA1048CDF8009030F8163048
:1050600005221721284600F071F8701C86B21E2018
:1050700096FBF0F100FB116086B2B5F5967F02DA7F
:1050800005F1090085B2601CC4B20548006884427D
:10509000B3DBBDE8F88300008E0900200C0100207E
:1050A00008010020D60F002010B52348007820B159
:1050B000012806D002283DD123E001201F49487075
:1050C00038E001201D4948701D48D0ED010A1D48F7
:1050D0004078401C00EE100AB8EEC00AF4EEC00A98
:1050E000F1EE10FA0ADB012000F08EF820211648BC
:1050F000FCF7F2F910B9002000F086F8FFF71CFF6A
:1051000018E000200D4948700D48D0ED010A0D4807
:105110004078401C00EE100AB8EEC00AF4EEC00A57
:10512000F1EE10FA05D8002000F034F90120024910
:10513000087000BF00BF10BD550100201001002005
:1051400080110020D60F0020000801402DE9F04317
:1051500005460E4617461C46DDF81C904FF0000829
:105160001E2C00DD1E24E81983B206EB440081B238
:105170002A463046FEF7E0FF4FF0000806E04846BA
:10518000FFF764F808F101001FFA80F8012000EB36
:105190004400791C48434045F1DCBDE8F083000041
:1051A00070B5054607482E18002408E03046FBF786
:1051B00099FE054921F81400B61C601C84B2FF2C2E
:1051C000F4DD70BD00F80308684C002070B505469A
:1051D0000B482E18FBF78AFE3046FBF799FD00249A
:1051E00008E0084830F814103046FBF729FEB61CDA
:1051F000601C84B2FF2CF4DDFBF718FE70BD0000CC
:1052000000F80308684E002010B50446012C04D1B4
:1052100040210448FCF769F903E040210148FCF70C
:1052200066F910BD0008014038B500245020FCF795
:1052300079FB14B9FCF77CFB04462CB90022012150
:105240006846FCF743FB0446BDF80000001238BD79
:1052500010B50446082C60D2DFE804F05F04111E8C
:105260002B38455220213448FCF73FF910213248B1
:10527000FCF73BF980213148FCF739F95AE08021ED
:105280002E48FCF732F910212B48FCF72EF920218B
:105290002948FCF72CF94DE080212848FCF725F936
:1052A00020212548FCF721F910212348FCF71FF99C
:1052B00040E010212048FCF718F980211F48FCF736
:1052C00016F920211C48FCF712F933E020211A4876
:1052D000FCF70BF980211948FCF709F91021164851
:1052E000FCF705F926E080211448FCF7FEF82021A0
:1052F0001148FCF7FCF810210F48FCF7F8F819E00A
:1053000080210E48FCF7F3F820210B48FCF7EFF85A
:1053100010210948FCF7EBF80CE080210748FCF766
:10532000E4F820210448FCF7E0F810210248FCF7DB
:10533000DCF800BF00BF10BD0010014000080140B4
:10534000FBF7BEF8FEF788F8FDF7FEFA01200749E3
:1053500088700020C870012005490870FCF760FCC7
:1053600003E0FCF75DFCFFF79FFEFAE72501002054
:105370002C01002010B50446012C04D11021044852
:10538000FCF7B3F803E010210148FCF7B0F810BDBA
:105390000008014010B50446012C04D12021044826
:1053A000FCF7A3F803E020210148FCF7A0F810BDAA
:1053B000000801400021234A1170D170224A117067
:1053C000204A51709170214A117291711D4A1171D8
:1053D00000202FE00022C0EBC00101EB810319493E
:1053E000891D01EB83018A71C0EBC00101EB8103D0
:1053F0001449891D01EB83018A80C0EBC00101EBD8
:1054000081031149891D01EB83018A71C0EBC00141
:1054100001EB81030C49891D01EB83018A80C0EBFC
:10542000C00101EB81030849891D01EB8301CA71A9
:10543000411CC8B20228CDDB0021054A5170034A45
:10544000D1717047EA0A0020CC090020CA0F002061
:1054500070110020C50098006B003E001100720121
:105460002C01E600A0005A00C50098006B003E0029
:1054700011004F010901C3007D0037000C000C0032
:10548000E1000C004001F000E100F0000000B0106D
:105490000000EF0000008F010000010098100000E4
:1054A000EF0000008F0100000001B0100000EF00CD
:1054B00000008F010000010198100000EF000000C3
:1054C0008F0100000002B0100000EF0000008F010B
:1054D0000000010298100000EF0000008F010000A2
:1054E000000048000000EF0000008F0100000100F4
:1054F000E8002000AF010000EF002000000148009C
:105500000000EF0000008F0100000101E800200012
:10551000AF010000EF002000000248000000EF0093
:1055200000008F0100000102E8002000AF01000030
:10553000EF002000FFFFDBDEB6B592946D6B494AA9
:105540002421000002040801020408108601C3009F
:105550008601C300A60089006C00A60089006C00CB
:1055600097007A005D0097007A005D002301060134
:10557000E90023010601E900640147012A01A100B5
:1055800084006700650048002B00BF00A200850072
:10559000000000000000000000000000000000000B
:1055A00000000000000000000000000000000000FB
:1055B000F000400100001000F00040010000130066
:1055C000F000400100001600F0004001000019004A
:1055D0002D00250000001C002D00250000101C00DF
:1055E000F000400100001D00F0004001000020001C
:1055F000F000400100002300F00040010000260000
:10560000F000400100002900F000400100002C00E3
:105610002D00250000002F002D00250000102F0078
:10562000F000400100003000F000400100003300B5
:10563000F0004001000036002F00240000625100FD
:105640002F002400008451002F00240000A65100E8
:105650002F00240000C851002F00240000EA510050
:105660002F002400000C52002F002400002E5200B6
:105670002F002400005052002F002400007252001E
:105680002F002400009452002F00240000B6520086
:105690002F00240000D852002F00240000FA5200EE
:1056A0002F002400001C53002F002400003E530054
:1056B0002F002400006053002F00240000825300BC
:1056C0002F00240000A453002F00240000C6530024
:1056D0002F00240000E853002F002400000A54008B
:1056E0002F002400002C54002F002400004E5400F2
:1056F00000000000B4000E01B20062008A006200E7
:10570000620062003A0062001C006200960018000D
:10571000180027011800180000001F0028002800AA
:10572000006027001000100000A03E0020002000B4
:105730000060420018001800003B55000000000007
:105740000000000000000000000000000000000059
:105750000000000000000000000000000000000049
:105760000000000000000000000000000000000039
:105770000000000000000000000000000000000029
:105780000000000000000000000000000000000019
:105790000000000000000000000000000000000009
:1057A00000000000000000000000000000000000F9
:1057B00000000000000000000000000000000000E9
:1057C00000000000000000000000000000000000D9
:1057D00000000000000000000000000000000000C9
:1057E00000000000000000000000000000000000B9
:1057F00000000000000000000000000000000000A9
:105800000000000000000000000000000000000098
:105810000000000000000000000000000000000088
:105820000000000000000000000000000000000078
:105830000000000000000000000000000000000068
:105840000000000000000000000000000000000058
:105850000000000000000000000000000000000048
:105860000000000000000000000000000000000038
:105870000000000000000000000000000000000028
:105880000000000000000000000000000000000018
:105890000000000000000000000000000000000305
:1058A00003030000000000000000000000000000F2
:1058B00000000000000000000000000000000000E8
:1058C00000FFFFFFFFFF00000000000000000000DD
:1058D00000000000000000000000000000000000C8
:1058E00000000000FFFFFFFFFF00000000000000BD
:1058F00000000000000000000000000000000000A8
:1059000000000000000000E0FFFFFF80000000003A
:105910000000000000000000000000000000000087
:105920000000000000000000000000F0F8F000009F
:105930000000000000000000000000000000000067
:10594000000000000000000000000000000F3F3FCA
:105950003F0F0000000000000000000000000000F9
:105960000000000000000000000000000000000037
:1059700080E0E0E080000000000000000000000087
:105980000000000000000000000000000000000017
:105990000000000000000000000000000000000007
:1059A00000000000000000000000000000000000F7
:1059B00000000000000000000000000000000000E7
:1059C00000000000000000000000000000000000D7
:1059D00000000000000000010101010101000001C0
:1059E00001010101010000000000000000000000B2
:1059F00000000000000000000000FFFFFFFFFFFFAD
:105A00000000FFFFFFFFFFFF00000000000000009C
:105A100000000000000000000000000000C0FCFCCE
:105A2000FCFCC00000C0FCFCFCFCC000000000004E
:105A30000000000000000000000000000000000066
:105A40000000000000000000000000000000000056
:105A50000000000000000000000000000000000046
:105A60000000000000000000000000000000000036
:105A70000000000000000000000000000000000026
:105A80000000000000000000000000000000000016
:105A90000000000000000000000000000000000006
:105AA00000000000000000000000000000000000F6
:105AB00000000000000000000000000000000000E6
:105AC00000000000000000000000000000000000D6
:105AD00000000000000000000000000000000000C6
